:020000040800F2
:10000000D05E00205D02000823220008E11E0008E7
:1000100021220008850800081927000800000000B8
:100020000000000000000000000000009D0100082A
:100030001D09000800000000F90100082523000840
:1000400077020008770200087702000877020008AC
:10005000770200087702000877020008770200089C
:10006000770200087702000877020008770200088C
:10007000770200087702000877020008770200087C
:100080008908000895080008770200087702000830
:10009000770200087702000877020008770200085C
:1000A000770200087702000877020008770200084C
:1000B000770200087702000877020008770200083C
:1000C000770200087702000877020008752200080E
:1000D0007702000877020008A1260008DD26000844
:1000E000770200087702000877020008770200080C
:1000F00077020008770200087702000877020008FC
:1001000077020008770200087702000877020008EB
:100110007702000877020008F1230008FD23000899
:1001200077020008770200087702000877020008CB
:1001300077020008770200087702000877020008BB
:1001400077020008770200087702000877020008AB
:10015000770200087702000877020008770200089B
:10016000770200087702000877020008770200088B
:1001700077020008770200087702000800000000FC
:100180007702000877020008DFF80CD000F0CEFA02
:100190000048004731400008D05E00202C4B196811
:1001A0000868B0E8F04F80F30988BFF36F8F4FF015
:1001B000000080F3118870470000000008480068C4
:1001C000006880F308884FF0000080F3148862B65E
:1001D00061B6BFF34F8FBFF36F8F00DF00BF00BF6B
:1001E00008ED00E0DFF80C00016841F470010160E7
:1001F000704700BF88ED00E0EFF30980BFF36F8F19
:10020000134B1A681EF0100F08BF20ED108A20E96A
:10021000F04F106009B44FF0500080F31188BFF325
:100220004F8FBFF36F8F05F0E5F94FF0000080F3BB
:10023000118809BC19680868B0E8F04F1EF0100F6B
:1002400008BFB0EC108A80F30988BFF36F8F704746
:100250001C000020EFF3058070470000064880472F
:1002600006480047FEE7FEE7FEE7FEE7FEE7FEE79B
:10027000FEE7FEE7FEE7FEE7D52300088901000858
:100280002DE9F05F0546002092469B4688460646CB
:10029000814640241BE0284641464746224600F05E
:1002A0007CF853465A46C01A914110D3114618465D
:1002B000224600F063F82D1A67EB01084F462246EC
:1002C0000120002100F05AF817EB00094E41201ED2
:1002D000A4F10104DFDC484631462A464346BDE826
:1002E000F09F40EA01039B0703D009E008C9121FF1
:1002F00008C0042AFAD203E011F8013B00F8013BE0
:10030000521EF9D27047D2B201E000F8012B491E0B
:10031000FBD270470022F6E710B513460A460446A2
:100320001946FFF7F0FF204610BD00F0004230F004
:1003300000400AD0C10D01F56071C0F3160042EA19
:100340000151C20840071143704700200146704721
:1003500030B50B46014600202022012409E021FA95
:1003600002F59D4205D303FA02F5491B04FA02F592
:100370002844151EA2F10102F1DC30BD202A04DB65
:10038000203A00FA02F1002070479140C2F12003A8
:1003900020FA03F3194390407047202A04DB203AE7
:1003A00021FA02F00021704721FA02F3D040C2F195
:1003B000200291400843194670472DE9FE4F8046C0
:1003C00081EA0300C00F0C46009021F0004123F0A9
:1003D0000045B8EB0200A94105D2404621469046AF
:1003E0001C460B46024623F00040104347D0270D21
:1003F000C7F30A00C3F30A510290401A0190402843
:100400006BDAC3F3130040F4801B0098924620B1CE
:100410000023D2EB030A63EB0B0B01985946C0F1A2
:1004200040025046FFF7AAFF06460D465046594681
:10043000019A00F08DF910EB08006141002487EA71
:10044000115284EAE7731A4340D0009A62B3019ACA
:10045000012A4FEA075215DC001B61EB02014FF045
:10046000004202EA0752CDE90042001C41F580112A
:1004700032462B4600F08DF903B0BDE8F08F4046C0
:100480002146F9E7001B61EB0201001C41F58013D6
:1004900000185B412018A2F5001747EB030140EA62
:1004A000D570B6196D4111E06D084FEA360645EA80
:1004B000C0754FEA0752001B61EB0201001C41F5B9
:1004C000801149084FEA30000019514132462B464D
:1004D00003B0BDE8F04F00F04DB900980122400094
:1004E0000023D0EB020263EBE073009821464FEA51
:1004F000E074B8EB000061EB0401E9E783F000432E
:100500005BE781F0004158E72DE9FE4F81EA0304E3
:1005100004F0004421F0004100944FF0000B23F060
:10052000004350EA01045ED052EA03045BD0C3F3F7
:100530000A54C1F30A552C44A4F2F3340194A0FBED
:100540000254C1F3130141F48011C3F3130343F4C4
:10055000801301FB024400FB034E840A970A44EA1D
:10056000815447EA8357A4FB076802958D0A05FB6F
:1005700007854FEA932C04FB0C542705029D4FEA94
:10058000065847EA1637B5EB08056EEB070C870EE1
:10059000920E47EA811742EA8312A7FB0201B6EBEB
:1005A0000B0164EB00042B0D43EA0C335E1844EBA3
:1005B0001C50DA465146E7FB0201C5F313044FEA2B
:1005C0000B3343EA14534FEA0432019C43EA060317
:1005D000A4F10C040294009CCDE900B400F0D9F819
:1005E00003B0BDE8F08F00200146F9E72DE9F04D9A
:1005F00081EA030404F0004B21F0004514464FF05B
:10060000000A23F0004150EA050220D054EA01021A
:100610001DD0C5F30A570246C5F31303C1F31300F7
:10062000C1F30A5640F4801543F48013A7EB060883
:10063000101BD64608F2FD3873EB050002D308F113
:10064000010801E092185B41B8F1000F03DA0020C5
:100650000146BDE8F08D00204FF480110646844627
:100660000EE0171B73EB050705D3121B63EB0503A5
:1006700006434CEA010C49084FEA300092185B41EE
:1006800050EA0107EDD152EA030012D082EA0400D9
:1006900083EA0501084305D0101BAB4106D20122B5
:1006A000002306E000224FF0004302E06FF0010259
:1006B00053101AEB06004CEB085110EB0A0041EB0B
:1006C0000B01BDE8F04D00F055B8C1F30A52C1F37B
:1006D000130140F2FF3341F480119A4202DA002004
:1006E0000146704740F233439A42A2F2334202DCA1
:1006F0005242FFF752BEFFF741BE000030B5041E64
:1007000071F1000404DB4FF00044404264EB01014E
:10071000141E73F1000405DB1C464FF000435242E7
:1007200063EB0403994208BF904230BD064C074D6D
:1007300006E0E06840F0010394E8070098471034B1
:10074000AC42F6D3FFF724FD906C0008B06C0008B3
:10075000202A06DBCB17203A41FA02F043EAE07385
:1007600006E041FA02F3D040C2F120029140084372
:100770001946704710B5141E73F1000408DA401CC6
:1007800041F1000192185B411A4301D120F00100B0
:1007900010BD2DE9F04D92469B4611B1B1FA81F2A0
:1007A00002E0B0FA80F220329046FFF7E7FD0446FF
:1007B0000F4640EA0A0041EA0B0153465A460843F5
:1007C00013D0114653EA010019D0C8F14002504637
:1007D000FFF7E3FD05460E46504659464246FFF7F1
:1007E000CDFD084305D0012004E020463946BDE890
:1007F000F08D0020054346EAE0762C4337430A9803
:100800006305E40AA0EB08000022FD0A44EA47540D
:100810000A3002D500200146E9E7010510196941B7
:10082000DDE9084500196941BDE8F04DA2E770B562
:100830008C1810F8015B15F0070301D110F8013B8B
:100840002A1106D110F8012B03E010F8016B01F812
:10085000016B5B1EF9D12B0705D40023521E0DD46A
:1008600001F8013BFAE710F8013BCB1A921C03E0B8
:1008700013F8015B01F8015B521EF9D5A142D8D3F0
:10088000002070BDFEE70000014800F087B80000BE
:10089000AC040020014800F081B800000C050020E5
:1008A00001681823CAB2103AB2FBF3F2054B6FF39A
:1008B0000901032A9B5CC36500D9091D81650846AF
:1008C00070470000306A000810B5014600208B69AF
:1008D0008A6A4FF0C07453B1B3F5005F15D072B19E
:1008E000012A0CD0022A0AD0032A09D104E01AB145
:1008F000012A06D0022A03D1C96AC90100D5012004
:1009000010BDC96AA142FAD010BD002AF7D0012A51
:10091000F2D0022AF3D0032AF3D010BD704704F0BE
:1009200055BC704704F072BC30B513461CE050242F
:1009300084F31188BFF34F8FBFF36F8FC48885880E
:10094000AC4215D0C5880468645DC5886D1CC5803F
:10095000C588B5F5847F01D90025C58001F8014B14
:10096000002484F31188521E002AE0D1981A30BD69
:10097000002080F31188F9E790F83510022903D0A0
:100980008021416501207047052180F835100068FD
:10099000016821F001010160002070472DE9F84352
:1009A00004464FF00009CDF8009063484FF416510B
:1009B000A56D0068B0FBF1F72E6894F85C10082074
:1009C00000FA01F131420FD021680A6852070BD5B5
:1009D0000A6822F004020A6094F85C108840A8605B
:1009E000606D40F00100606594F85C104FF0010804
:1009F00008FA01F0304208D021684969090604D597
:100A0000A860606D40F00200606594F85C100420FE
:100A10008840304208D021680968890704D5A86059
:100A2000606D40F00400606594F85C101020884010
:100A3000304218D021680968090714D5A8602068D9
:100A40000168490304D50068000308D5A16C07E0DC
:100A50000168C90503D4016821F008010160216C17
:100A600009B12046884794F85C1020208840304225
:100A700031D021680968C9062DD5A86094F83500E1
:100A800005282068016806D0490347D5006800039F
:100A90001DD4616C1CE021F01601016020684169E1
:100AA00021F080014161206C08B9A06C20B1206860
:100AB000016821F00801016094F85C103F20884033
:100AC000A86084F8349084F83580216D1FE0E16BD4
:100AD00009B120468847606D00282BD0606DC007A3
:100AE00014D0052084F835002068016821F0010148
:100AF00001600098401C0090B84203D8206800684C
:100B0000C007F6D184F8349084F83580E16C002970
:100B100010D001B02046BDE8F04308470168C90580
:100B2000D5D4016821F01001016084F8349084F874
:100B30003580CCE7BDE8F883180000202DE9F041AE
:100B4000044600F04DF906465CB1002584F83450A7
:100B5000022084F835002068016821F0010101605D
:100B60000DE00120BDE8F08100F03AF9801B052876
:100B700005D920206065032084F83500F2E720685D
:100B80000068C007F0D12268116820480140D4E90C
:100B900001031843D4E90336334318436369184308
:100BA000A3691843E3691843236A18430843616A39
:100BB000042903D1D4E90B131943084310602068BA
:100BC0004069666A20F0070130460E430127042879
:100BD0000CD1A06A0643E06A40B12046FFF774FEDC
:100BE00020B14020606584F83570BAE7206846611E
:100BF0002046FFF755FE94F85C203F21914081602C
:100C0000656584F835700020ACE700003F8010F087
:100C10002DE9F84F00224FF0010803254FF00F0E89
:100C20000B6808FA02F42340A3426ED14E68012EED
:100C300005D0022E03D0112E01D0122E12D18668BB
:100C40004FEA420C05FA0CF7BE43CF6807FA0CF7DF
:100C5000374387604668A6430C79C4F30014944078
:100C600034434460C668570005FA07FC8C6826EADE
:100C70000C06BC403443C4604C68022C01D0122CDA
:100C800013D1D40800EB8404A346D4F82090540771
:100C90004FEAD46A0EFA0AF629EA06090E6906FA3C
:100CA0000AF646EA0906CBF8206006680C7926EABF
:100CB0000C0604F00304BC40344304604C68E400B8
:100CC00065D5364C266846F480462660246822F0B6
:100CD000030604F480440094314C3444A446D4F810
:100CE00008489607370F0EFA07F6B4432D4EB04268
:100CF00001D1002624E02C4EB04201D101261FE094
:100D00002A4EB04202D102261AE040E0284EB042FC
:100D100001D1032614E0274EB04201D104260FE092
:100D2000254EB04201D105260AE0244EB04201D141
:100D3000062605E0224EB04201D1072600E0082633
:100D4000BE402643CCF808681E4E34684F689C436A
:100D5000FF0300D51C4334601A4C241D26684F68DD
:100D60009E43BF0300D51E432660164E08363468E6
:100D70004F689C43FF0200D51C433460114E0C3673
:100D800034684F689C43BF0200D51C433460521C3A
:100D9000102AFFF445AFBDE8F88F00004438024048
:100DA0000030014000000240000402400008024000
:100DB000000C0240001002400014024000180240E3
:100DC000001C0240003C0140426931EA020200D1AD
:100DD0000904816170470AB1816170470904FBE72A
:100DE00001488068704700000C00002070B50400C6
:100DF00025D094F83D00002520B984F83C502046C9
:100E000000F0B8F8242084F83D002068016821F043
:100E1000010101602068016841F40041016020681F
:100E2000016821F40041016000F04AFA4D4A61680E
:100E3000914201D84C4900E04C49884201D201203E
:100E400070BD4B492368B0FBF1F15E6826F03F06A8
:100E50000E435E606368934206D94FF4967359431C
:100E60004FF47A73B1FBF3F12368491C1E6A26F034
:100E70003F06314319626168914210D84900401E13
:100E8000B0FBF1F2521CC2F30B02042A01D204207F
:100E900022E0B0FBF1F0401CC0F30B001CE0A268A4
:100EA000F2B301EBC10303EB0116431EB3FBF6F3F0
:100EB0005B1C43F480431B0549D092B301EBC10294
:100EC00002EB0111401EB0FBF1F0401CC0F30B001F
:100ED00040F4804040F400402168CA694CF6FF733A
:100EE0009A431043C861D4E907100143206802689F
:100EF00022F0C00211430160D4E9030101432068DC
:100F0000826848F2FF339A4311438160D4E90501B6
:100F100008432168CA6822F0FF021043C86001E05C
:100F20000EE016E02068016841F0010101602564CF
:100F3000202084F83D00256384F83E50002070BDD9
:100F400001EB4106431EB3FBF6F35B1CB3E7012044
:100F5000C2E701EB4101401EB0FBF1F0401CC0F3C1
:100F60000B00B7E7A086010080841E0000093D0049
:100F700040420F0010B586B0044614216846FFF7C2
:100F8000C9F913492068884220D11248016841F00C
:100F9000020101600068694600F002000590C0206F
:100FA0000090122001900120029003200390042061
:100FB00004900948FFF72CFE06481030016841F400
:100FC00000110160006800F40010059006B010BD2B
:100FD000005400403038024000040240024881685A
:100FE00002781144816070470C0000200B4810B556
:100FF000016841F400710160016841F480610160A1
:10100000016841F480710160032000F08DF8002038
:1010100000F006F800F03EF8002010BD003C024051
:1010200010B5014688B00022362000F05DF8362069
:1010300000F04CF813480024016841F010010160F1
:10104000006805A900F010000690684600F018F945
:1010500000F036F90C494000B0FBF1F10C480B4AA6
:10106000491E026040F2E732C0E90324C0E90114DE
:1010700000F06AFC10B1012008B010BD044800F077
:10108000AFFCF9E74038024040420F00001000403A
:101090006C0500200C4882B0016841F48041016079
:1010A000006800F4804000900748001F016841F08C
:1010B000805101600068002200F0805000900F21F4
:1010C000901E02B000F010B844380240002809DB3E
:1010D00000F01F02012191404009800000F1E02052
:1010E000C0F8001170470000F0B40E4B1B680C46AE
:1010F000C3F30223C3F10705042D00D90425191DEC
:10110000072901D2002300E0DB1E012606FA05F1C3
:10111000491E214099409E40761E16403143F0BC46
:1011200001F00CBB0CED00E0064900F00702086876
:101130004FF6FF03184040EA0220034A10430860BC
:10114000704700000CED00E00000FA052DE9F047C3
:101150000E46050065D0DFF81481D8F80000F7B21C
:1011600000F00F00B04207D288F80070D8F80000F5
:1011700000F00F00B04254D128683D4C810712D5D1
:10118000400703D5206840F4E0502060287800072D
:1011900003D5206840F4604020602068A96820F0F2
:1011A000F000084320602878C0072DD030496868D7
:1011B0000839012812D0022813D0032811D0096859
:1011C000890700292DDA216821F0030101432160FC
:1011D000FFF706FE814641F2883A0EE0096889036E
:1011E000EFE709688901ECE7FFF7FAFDA0EB0901D9
:1011F000514502D90320BDE8F0872068696800F0F6
:101200000C00B0EB810FEFD1D8F80010404601F090
:101210000F01B14207D90770006800F00F00B0421B
:1012200001D00120E7E72878400705D52068E96864
:1012300020F4E050084320602878000706D5206895
:10124000296920F4604040EAC100206000F058F8AD
:101250002168084AC1F30311515CC840064908607F
:1012600006480068FFF7DCFE0020C4E7003C0240AF
:1012700008380240386A00081800002010000020DA
:101280000F2202600C4A136803F0030343601368E3
:1012900003F0F0038360136803F4E053C360126843
:1012A0004FF4E05303EAD20202610448006800F000
:1012B0000F0008607047000008380240003C024000
:1012C0000448054900680968044AC1F38221515C59
:1012D000C84070471800002008380240486A0008DB
:1012E0000448054900680968044AC1F34231515C69
:1012F000C84070471800002008380240486A0008BB
:10130000154810B5006810F00C02144813D04110B5
:10131000042A0FD0082A0ED10F4C241F22682368FC
:1013200002F03F025B0207D52068C0F38810A0FBE3
:10133000010106E0084610BD2168C1F38811A1FB38
:1013400000010023FEF79CFF2168C1F30141491C05
:101350004900B0FBF1F010BD083802400024F40051
:101360002DE9F84F04006ED02078DFF83C93C007D9
:10137000A9F104054AD009F104000168C1F3810113
:10138000012908D00068C0F3810002280AD1D9F8E9
:101390000000400206D52868800337D56068002821
:1013A000E1D033E06068B0F5803F10D0B0F5A02FF9
:1013B000286810D020F480302860286820F480202D
:1013C00028606068A8B1FFF70BFD06460DE02868AD
:1013D00040F48030F4E740F480202860F7E700BF55
:1013E000FFF7FEFC801B642873D828688003F7D5BC
:1013F0000CE0FFF7F5FC064605E000BFFFF7F0FC48
:10140000801B6428F0D828688003F7D42078DFF8A0
:101410009C8280074FF0000A3ED5A348001D01685A
:1014200011F00C0F08D00068C0F3810002280BD126
:10143000D9F80000400207D42868800716D5E06874
:10144000012800D112E02BE1E068B8B10120C8F812
:101450000000FFF7C5FC064605E000BFFFF7C0FC33
:10146000801B0228C0D828688007F7D52868216922
:1014700020F0F80040EAC10028600DE0C8F800A0A4
:10148000FFF7AEFC064604E0FFF7AAFC801B02282B
:101490001FD828688007F7D42078000722D5824E0D
:1014A00083486169703671B101210160FFF798FCD2
:1014B000074604E0FFF794FCC01B022809D83068F7
:1014C0008007F7D50EE0C0F800A0FFF789FC0746BB
:1014D00005E082E0FFF784FCC01B02287DD830685D
:1014E0008007F7D42078400768D5DFF8BCB1002723
:1014F0000BF13C0BDBF80000C0000BD4DBF8001054
:1015000041F08051CBF80010DBF80000012700F01B
:1015100080500090674E3068C00510D4306840F4A9
:1015200080703060FFF75CFC009005E0FFF758FC2E
:101530000099401A022850D83068C005F6D55A4E96
:10154000A0686C3601280FD00528306810D020F034
:1015500001003060306820F004003060A068B8B14D
:10156000FFF73EFC00900FE0306840F00100F4E728
:1015700040F004003060F7E7FFF732FC0099411AB1
:1015800041F28830814266D830688007F4D50EE099
:10159000FFF726FC009007E0FFF722FC0099411AB4
:1015A00041F28830814256D830688007F4D42FB198
:1015B000DBF8001021F08051CBF80010A069C8B30F
:1015C0003949091D0968C1F3810102294AD002285D
:1015D000504607D0C8F8600000E03CE0FFF700FC90
:1015E00004463BE04746C8F86000FFF7F9FB0646B3
:1015F00005E000BFFFF7F4FB801B02282BD828680A
:101600008001F7D4D4E907010843A16A2A4A4908AE
:1016100002EB0141626A41EA8211084394F82C10FE
:1016200040EA0161C9F8001001203866FFF7D8FBD5
:10163000044606E036E000BFFFF7D2FB001B02289D
:1016400009D828688001F7D52CE000BFFFF7C8FB58
:10165000001B022802D90320BDE8F88F286880010A
:10166000F4D41FE00128F7D0D9F80000E26900F4B3
:101670008001914214D1226A00F03F0191420FD1C2
:1016800047F6C071626A0140914209D1A26A00F432
:101690004031914204D1E16A00F07060884201D08B
:1016A0000120D9E70020D7E7043802400000474274
:1016B000800E4742007000400000FFFF70470000AE
:1016C00038B5016804464A688868C043430606D5B1
:1016D000C30704D1D3435B0601D4216C05E0830723
:1016E00008D4D3431B0605D4616C01B02046BDE885
:1016F00030400847830603D5430601D5C30551D4BE
:10170000D3439B064ED443060AD494F85130032B9E
:1017100049D0636D43F004036365CB688B68009325
:10172000830609D4636D43F0010363658B680093FE
:101730000B6823F040030B60C00506D4606D40F0D9
:1017400008006065206880680090606D002829D0DE
:101750002068416821F0E0014160012084F85100D7
:10176000900701D4D00722D02068416821F00301FE
:101770004160114DE06C40B10565E06CFFF7FCF88D
:1017800018B1606D40F040006065A06C002809D081
:101790000565A06CFFF7F0F8002803D0606D40F0FD
:1017A0004000606538BDC8688868009038BD204634
:1017B000FFF784FF38BD00008122000870B50400E7
:1017C00005D00025A56294F8510010B106E0012073
:1017D00070BD84F85050204600F030F8022084F8A4
:1017E00051002068016821F040010160D4E9010145
:1017F0000843D4E903121143084361690843218B6C
:1018000001F400710843E1690843216A0843A16AB1
:10181000084321680860A069042101EA1040616A58
:101820000843216848602068C16921F40061C161F2
:101830006565012084F85100002070BD10B586B0A8
:10184000044614216846FEF765FD17492068884262
:1018500028D116480021026842F4805202600068D4
:1018600000F48050059011481438026842F00102DB
:101870000260006800F001000590E0200090022066
:10188000CDE9010103200390052004906946084832
:10189000FFF7BEF9002205212320FFF725FC2320B6
:1018A000FFF714FC06B010BD003001404438024080
:1018B000000002407047704770B590F83C20012A44
:1018C00032D0012480F83C40022280F83D20036899
:1018D0005A689D6822F070060A6832435A60134BBA
:1018E00002689A4214D0B2F1804F11D0104B9A4244
:1018F0000ED0104B9A420BD00F4B9A4208D00F4B90
:101900009A4205D00E4B9A4202D00E4B9A4204D115
:10191000496825F080031943916080F83D4000211B
:1019200080F83C10084670BD022070BD00000140E8
:101930000004004000080040000C0040000401408A
:10194000004001400018004010B5040003D094F896
:101950003D0010B107E0012010BD002084F83C00DC
:10196000204600F00DF8022084F83D00211D20687B
:1019700000F04AFD012084F83D00002010BD000069
:1019800008B500680B49884212D10B48016841F044
:10199000200101600068002200F020000090052175
:1019A0003720FFF7A1FBBDE808403720FFF78EBBCB
:1019B00008BD00000014004040380240022180F8B9
:1019C0003D1001688A6802F00702062A03D00A68FF
:1019D00042F001020A60012180F83D1000207047AA
:1019E0000168CA6842F00102CA600068816801F0BB
:1019F0000701062903D0016841F0010101600020C0
:101A00007047704770B50446006801694FF00005E3
:101A1000C943890715D4C168C943890711D4E91E90
:101A2000016101202077206880698007204602D06C
:101A3000FFF7E7FF04E000F098F8204600F096F882
:101A4000257720680169C943490717D4C168C9438C
:101A5000490713D46FF00401016102202077206848
:101A6000806910F4407F204602D0FFF7CAFF04E0EF
:101A700000F07BF8204600F079F8257720680169AE
:101A8000C943090716D4C168C943090712D46FF0C6
:101A900008010161042020772068C0698007204682
:101AA00002D0FFF7AEFF04E000F05FF8204600F040
:101AB0005DF8257720680169C943C90617D4C16854
:101AC000C943C90613D46FF01001016108202077C3
:101AD0002068C06910F4407F204602D0FFF791FFD4
:101AE00004E000F042F8204600F040F82577206836
:101AF0000169C943C90708D1C168C943C90704D1ED
:101B0000891E0161204600F033F820680169C9434D
:101B1000090609D4C168C943090605D46FF08001DC
:101B200001612046FFF7C6FE20680169C9434906E6
:101B300009D4C168C943490605D46FF04001016169
:101B4000204600F01FF820680169C94389060BD4BC
:101B5000C168C943890607D46FF02001016120469E
:101B6000BDE87040FFF7A7BE70BD7047704700002A
:101B700000680349884201D1FFF730BA704700007E
:101B80000010004070477047704770477047000072
:101B900070B5040004D094F83900002510B10DE0B0
:101BA000012070BD84F83850204600F091FC606E32
:101BB00008B913486066014620468847242084F807
:101BC00039002068C16821F40051C160204600F04E
:101BD000A1FC2068016921F49041016120684169FC
:101BE00021F02A0141612068C16841F40051C160BF
:101BF000E563202084F8390084F83A00002070BDA5
:101C0000051C00082DE9F04387B0064614216846FC
:101C1000FEF780FB5649D6F800C056480225032738
:101C2000072200248C451ED1524914310B6843F021
:101C300010030B60096801F010010591016841F083
:101C4000010101600068029400F001000590780233
:101C5000CDE90005CDE9037269464748FEF7D8FF94
:101C600007B0BDE8F0834349DFF810811031444BE1
:101C7000C44556D1D1F800C04CF4003CC1F800C0B6
:101C8000096801F400310591016841F00801016023
:101C90000068029400F0080005906020CDE900057E
:101CA000CDE9037269461846FEF7B2FF364D354856
:101CB0004FF000682860C5E901844FF48069C5E9E8
:101CC00003496C61AC610420EC61C5E90840C5E9D9
:101CD0000A7428462C63FEF731FF08B1FEF721FE97
:101CE0007563AE63284D274860351830E5E8020873
:101CF0004020A5E81102244845F814496030AC6141
:101D0000EC612C626C62FEF719FF08B1FEF709FE68
:101D10003563002206212620AE63FFF7E5F9262071
:101D200023E01A4EB4459BD10E6846F480260E601F
:101D3000096801F480210591016841F00801016002
:101D40000068029400F0080005904FF44070CDE95F
:101D50000005CDE9037269461846FEF759FF0022D7
:101D600005212720FFF7C0F92720FFF7AFF977E714
:101D700000100140303802400000024000440040A2
:101D8000000C024088600240AC0400200048004083
:101D900010B5002372B190F83840012C10D0012406
:101DA00080F8384090F83940202C0BD090F839401A
:101DB0001CB326E0C16B41F02001C163012010BDBE
:101DC000022010BD0D291CD2DFE801F007090B0D20
:101DD0000F1113151B1B1B252700026416E042641C
:101DE00014E0826412E0C26410E002650EE0426515
:101DF0000CE082650AE0C26508E00B290BD00C29D3
:101E00000BD0C16B41F02001C1630123002180F898
:101E10003810184610BD4266F8E78266F6E770474C
:101E200070472DE9F843044690F839001F461646DE
:101E30000D46202850D1B5B1AEB194F83800012834
:101E40004AD0012084F838004FF00008C4F83C80E4
:101E5000212084F83900FEF7C3FFA6848146E6847A
:101E600084F8388026E00120BDE8F883E08C401E2D
:101E7000E084A0684B46B0F5805F4FF000024FF061
:101E800080012046009703D000F0D8FBE8B90DE0B0
:101E900000F0D4FBC8B928882168C0F30800486066
:101EA000206908B16D1C05E0AD1C03E0216815F840
:101EB000010B4860E08C0028D8D14B46002240211D
:101EC0002046009700F0BAFB08B10320CCE72020A1
:101ED00084F839000020C7E70220C5E77047704743
:101EE000FEE710B5FEF7B6F9002800D0012010BDBE
:101EF0000D4808B5016841F4001101600068002236
:101F000000F40010009005211020FFF7EDF81020DC
:101F1000FFF7DCF8002205211120FFF7E5F8BDE806
:101F200008401120FFF7D2B83038024010B50B4AF4
:101F300000210B4802F040FA0A4C084A0021A06038
:101F4000483A094802F038FA044A2060243A00214D
:101F5000064802F031FA606010BD0000F869000820
:101F6000F922000800000020C52100089122000885
:101F70002DE9F04387B014216846FEF7CBF92F48CE
:101F80000024016841F080010160016801F08001D6
:101F90000591016841F001010160016801F0010152
:101FA0000591016841F002010160016801F0020140
:101FB0000591016841F008010160016801F0080124
:101FC0000591016841F01001016000681C4F00F0AC
:101FD00010000590012210213846FEF7FCFEDFF8C4
:101FE00064804FF4C046002231464046FEF7F3FEBF
:101FF000DFF85490012203214846FEF7ECFE102042
:1020000000900125CDE90154694638460394FEF756
:10201000FFFD0096CDE90154694640460394FEF762
:10202000F7FD0320CDE9000569464846CDE90245A4
:10203000FEF7EEFD07B0BDE8F08300003038024047
:102040000000024000040240001002400D4810B59C
:102050000B4901600C49416000214FF480428160CE
:10206000C0E9031241618161C1610162FEF7BEFEF8
:10207000002803D0BDE81040FEF753BC10BD00009F
:10208000005400407C020020801A0600104810B561
:102090000E4901604FF48271416000218160C1608E
:1020A0004FF400720161C0E905123822C0E907212E
:1020B000416281620A21C162FFF780FB002803D0E0
:1020C000BDE81040FEF72DBC10BD000000300140FF
:1020D000D00200201CB500240F4800940D49019443
:1020E000016040F28F61C0E901144FF6FF71C160D9
:1020F00080218161FFF728FC08B1FEF712FC0094F3
:10210000694605480194FFF7D7FB002801D0FEF788
:1021100008FC1CBD00140040280300200C4810B52A
:102120000A4901604FF4E1314160002181600C22D5
:10213000C160C0E904128161C161FFF729FD002877
:1021400003D0BDE81040FEF7ECBB10BD001001400D
:10215000680300200C4810B50A4901604FF4E131D2
:102160004160002181600C22C160C0E904128161DC
:10217000C161FFF70DFD002803D0BDE81040FEF758
:10218000D0BB10BD00440040D40300200C4810B563
:102190000A4901604FF4E1314160002181600C2265
:1021A000C160C0E904128161C161FFF7F1FC002840
:1021B00003D0BDE81040FEF7B4BB10BD004800409E
:1021C0004004002000234FF4E1320321184601F0BF
:1021D000E9FA01F051F900BF01F01EFBFCE7000035
:1021E000F8B54FF0FF350C4E00952C46B0680068EE
:1021F0000168890601D54068C4B20094641C06D009
:102200000548012269460C3000F00CF8EDE7034860
:1022100000688047F8BD00009C010020EC01002010
:10222000FEE77047F0B5502383F31188BFF34F8F5B
:10223000BFF36F8F4FF48474002315E00D78878807
:102240000668F55585886D1C85808588A54200D96E
:1022500083808588C688B54206D1C5886D1CC58037
:10226000C588A54200D9C380521EE7D2002080F362
:102270001188F0BD0148FFF723BA0000D00200200A
:1022800010B5806B0021C187C186FFF717FA10BD1A
:1022900008B500204FF4165302220121009001F0EE
:1022A000ABF800F0C5FE00BF01F0D4FCFCE7000075
:1022B000F8B50E49002009684862451E0C4E00958D
:1022C0002C46B06800680168890601D54068C4B230
:1022D0000094641C06D00648012269460C30FFF7C2
:1022E000A1FFEDE7034800688047F8BD2803002000
:1022F00068010020C400002086B014220749684607
:10230000FDF7EFFF064C4FF4FA7501212046FEF76A
:102310005BFD284601F0ACFEF7E700001C6A0008F0
:102320000010024010B5502080F31188BFF34F8F8A
:10233000BFF36F8F04F06CF918B104494FF080506F
:102340000860002080F3118810BD000004ED00E05B
:1023500030B593B030216846FDF7DCFF14210CA89E
:10236000FDF7D8FF19480025016841F08051016050
:10237000006800F0805011901548016841F48041D8
:1023800001600068022400F4804011900120009058
:10239000000401908001CDE9064008AA0420A8218C
:1023A00082E813000B906846FEF7DAFF0CA90F20B5
:1023B00081E831004FF4A0500F90E0021090052109
:1023C0000CA8FEF7C3FE13B030BD00004038024039
:1023D000007000400548016841F470010160034944
:1023E0004FF00060803908607047000088ED00E021
:1023F0000148FFF707BB00006C0500200148FFF70C
:1024000001BB000028030020F0B50268254C264DD2
:10241000264E274F274B4FF0804CA04209D06045F5
:1024200007D0A84205D0B04203D0B84201D09842AC
:1024300004D122F0700E4A6842EA0E02A0421BD07C
:10244000604519D0A84217D0B04215D0B84213D079
:10245000984211D0184DA8420ED0184DA8420BD06A
:10246000174DA84208D0174DA84205D0164DA842D6
:1024700002D0164DA84203D122F44075CA682A43FF
:102480004D6922F080022A4302608A68C2620A68AB
:102490008262A04201D0984201D109690163012101
:1024A0004161F0BD00000140000400400008004010
:1024B000000C004000040140004001400044014085
:1024C0000048014000180040001C0040002000406F
:1024D0000849016408494164084981640849C164A4
:1024E0000849016508494165084981650849C16590
:1024F00070470000DF1E0008DD1E0008211E0008D6
:102500001F1E00088D1B0008871B00088B1B00087E
:10251000891B00082DE9F041044600680169E26862
:1025200021F44051114301612169A068E269084327
:102530006169114308432168CA6849F20C639A43F0
:102540000243CA6020684169A26921F440711143C5
:102550004161E069192764253226B0F5004F354AFC
:10256000354920684FF0000806D0884201D09042DB
:1025700036D1FEF7B5FE35E0884201D0904202D157
:10258000FEF7AEFE01E0FEF79BFE61684A18A0FB75
:10259000070148EB0803FDF773FE0146B0FBF5F0B9
:1025A0000201B1FBF5F06FF01803584301EB800016
:1025B00006EBC000B0FBF5F000F0F80002EB4002C3
:1025C000B1FBF5F0584301EB800006EBC000B0FB17
:1025D000F5F000F00700216810448860BDE8F08144
:1025E000FEF76EFE61688B0F8A00A0FB0701FDF706
:1025F00047FE0146B0FBF5F06FF01802504301EBC7
:10260000800006EB0010B0FBF5F000F0F002B1FB2B
:10261000F5F002EB0012B1FBF5F06FF01803584330
:1026200001EB800006EB0010B0FBF5F000F00F00AE
:10263000D1E7000000140140001001402DE9F041F5
:10264000984617460E460446069D1DE0681C1BD0A2
:102650002DB1FEF7C5FBA0EB0800A84214D92068F5
:10266000C16821F4D071C1602068416921F0010185
:102670004161202084F8390084F83A00002084F871
:1026800038000320BDE8F0812068006836EA0000C9
:1026900004D00020B842D9D00020F3E70120F9E7A8
:1026A00038B50D4C20680068800606D5E16C2046E0
:1026B000884721686FF020000860206801680907DA
:1026C00003D541680168416800910168490602D557
:1026D0006FF04001016038BDD403002038B50D4CC7
:1026E00020680068800606D5E16C2046884721688E
:1026F0006FF02000086020680168090703D5416871
:102700000168416800910168490602D56FF04001F7
:10271000016038BD40040020FEE700000FB4054B07
:1027200010B503A9044A029800F0EAF810BC5DF85D
:1027300014FB000019400008780200200907090E68
:10274000002804DB00F1E02080F80014704700F05E
:102750000F0000F1E02080F8141D704702E008C867
:10276000121F08C1002AFAD170477047002001E00B
:1027700001C1121F002AFBD1704700002DE9FF5F45
:1027800082B00021DDE90430020DDDF840B00343E2
:1027900018D044F61050A2F2FF324243151411989B
:1027A00001281FD0A5EB0B00401C5FEA000A4FF088
:1027B00000064E4FDFF83891B046504615D5CAF1A5
:1027C000000413E0119801244AA3012801D16FEA03
:1027D0000B010298119AC0E90031C0E9024206B02B
:1027E000BDE8F09FCBF10000DFE704460021404A3E
:1027F000491842EB0450CDE9001012E0E00707D081
:1028000032463B4640464946FDF77EFE80468946B5
:1028100032463B4610461946FDF776FE06460F4601
:102820006410002CEAD1DDE90401DDE90023BAF1EE
:10283000000F06DAFDF768FE42464B46FDF764FEE0
:1028400005E0FDF7D3FE42464B46FDF7CFFE0446BA
:102850000E460022284BFDF751FF03D84FF0FF3002
:10286000014607E00022254B20463146FDF7A5FD35
:10287000FDF72BFF102409E0002C0ADB0A220023BD
:10288000FDF7FEFC039B30321A55641E50EA01022C
:10289000F2D1641C039AC4F111031444119A012A61
:1028A00003D0012208430DD10AE0084304D00020E0
:1028B0004FF0110B119072E7A3EB0B056D1E0DE0AD
:1028C0005B4504DD4FF0000205F1010504E003DA89
:1028D0004FF00002A5F10105002AECD002981199F1
:1028E000C0E90231C0E9004579E70000000014406A
:1028F0000000F03F300000000000F0430000E03F27
:102900002DE9FF4F95B09B468946064600250FE20C
:10291000252877D100242746F84A0121059400E0B4
:10292000044316F8013F203B01FA03F01042F7D1AF
:1029300030782A2811D06FF02F033078A0F13002C0
:10294000092A16D8059A44F0020402EB820203EB2E
:1029500042021044761C0590EFE759F8042B0592CB
:10296000002A03DA504244F40054059044F0020473
:10297000761C30782E2816D116F8010F44F0040486
:102980002A280DD06FF02F023078A0F13003092BE8
:1029900009D807EB870302EB4303C718761CF3E75C
:1029A00059F8047B761C30786C280FD006DC4C2854
:1029B00017D068280DD06A2814D104E0742810D0EC
:1029C0007A280FD10DE044F400140AE044F4801496
:1029D00001E044F440147278824202D104F580147C
:1029E000761C761C307866280BD013DC582877D0FC
:1029F00009DC002875D04528F6D04628F4D04728B1
:102A00001AD19DE118E0632835D0642879D0652873
:102A100012D195E1702873D008DC6728F1D06928BD
:102A20006FD06E280DD06F2806D1B5E073282CD05A
:102A3000752875D0782874D05A46179990476D1C20
:102A400075E1C4F30250022809D003280DD0D9F84B
:102A5000001004280DD00D6009F1040967E1D9F8D0
:102A60000010EA17C1E90052F6E7D9F800100D800E
:102A7000F2E70D70F0E719F8041B8DF80010002044
:102A80008DF80100EA46012003E059F804AB4FF04D
:102A9000FF3061074FF0000102D40DE008F10101A1
:102AA0008846B9420FDA8045F8DB1AF80810002989
:102AB000F4D108E008F1010188468142FADB1AF8F6
:102AC00008100029F6D105985B46A0EB08072146BF
:102AD0003846179A00F094FA284400EB080507E0FE
:102AE0004DE029E10DE01AF8010B5A46179990477D
:102AF000B8F10108F7D25B4621463846179A13E130
:102B000042E00A220092C4F302524FF0000A022A65
:102B100008D059F804CB032A4FEAEC710AD00DE033
:102B200029E02AE009F1070121F00702F2E802C1D9
:102B3000914609E00FFA8CFC4FEAEC71042A03D1AC
:102B40004FFA8CFC4FEAEC71002907DA0A460021A3
:102B5000DCF1000C61EB02012D2202E0220504D51C
:102B60002B228DF80420012203E0E20701D020226D
:102B7000F7E7904659E00A2102E010220DE010210B
:102B80004FF0000A00910BE010224FF0000A44F0D1
:102B900004040827009203E008224FF0000A009284
:102BA000C4F30252022A05D059F804CB0021032AAB
:102BB00008D009E009F1070121F00702F2E802C19B
:102BC000914605E01FFA8CFC042A01D10CF0FF0CA1
:102BD0004FF00008220728D5702806D0009B83F00C
:102BE000100353EA0A0305D00EE040228DF80420BA
:102BF000012208E05CEA010206D030228DF80420B0
:102C00008DF8050002229046009B83F0080353EAEA
:102C10000A030AD15CEA010201D1620705D530221C
:102C20008DF804204FF001087F1E582804D034A0EE
:102C300003900EA802900DE036A0F9E753466046D7
:102C4000009AFDF71DFB84460398825C0298401EA3
:102C5000029002705CEA0100F0D1029806A9081AFD
:102C600000F1200A600702D524F4803400E0012737
:102C7000574502DDA7EB0A0000E0002000EB0A0147
:102C8000009005984144401A0590E00306D45B4645
:102C90002146179A059800F0B3F90544002706E08D
:102CA00001A85A46C05D179990476D1C7F1C474587
:102CB000F6DBE0030CD55B462146179A059800F039
:102CC0009FF9054404E030205A46179990476D1C3F
:102CD0000099481E00900029F5DC08E0029802994E
:102CE0005A460078491C0291179990476D1CBAF119
:102CF0000001AAF1010AF1DC65E1000009280100E8
:102D00003031323334353637383961626364656661
:102D10000000000030313233343536373839414223
:102D2000434445460000000000F058F90544761C75
:102D3000307800287FF4ECAD19B02846BDE8F08F5C
:102D4000620700D4062709F1070222F0070CFCE80D
:102D50000223E14603F000485FEA080C02D00FF2BC
:102D6000702C0DE05FEA045C02D50FF2682C07E0DE
:102D70005FEAC47C02D00FF2602C01E0AFF2700C6D
:102D80004FF0FF3823F00043CDF850C065280CD039
:102D900006DC452809D046281DD047283DD13DE016
:102DA000662818D067287ED138E00021112F01DB7A
:102DB000112000E0781CCDE9000106A90EA8FFF75C
:102DC000DDFCDDE90F010E9A03910021009207F16D
:102DD000010A04914DE04FF000400097CDE9011049
:102DE00006A90EA8FFF7CAFCDDE90F0203920E9BAD
:102DF00011990022DDF80CA00093049211B9791CFE
:102E000000EB010AB7EB0A0004D4C0F1FF3007F170
:102E1000010A0490AAEB0700019044E0012F00DAB8
:102E200001270021112F01DD112000E03846CDE9F6
:102E3000000106A90EA8FFF7A1FCDDE90F010E9A1B
:102E40000391002104910092BA4621070CD4039902
:102E5000514500DA8A46BAF1010F05DD009AAAF160
:102E60000101515C302908D0B84202DA10F1040F98
:102E700006DA0121CDE9011015E0AAF10101E9E727
:102E8000002805DC049901440491AAEB000102E04A
:102E9000411C514500DD8A460499401A401C0190AE
:102EA0004FF000400290200704D40198504501DB08
:102EB000CDF8048000208DF84F0002980DF14F07E7
:102EC000B0F1004F25D02B200E9002984FF0020851
:102ED00000280CDA404202902D200E9007E00A21D3
:102EE0000298FDF735FA3031029007F8011DB8F16C
:102EF0000001A8F10108F2DC02980028EFD1791E48
:102F00000E980870307800F0200040F0450007F877
:102F1000020D12A8C01B00F107081498007800B138
:102F2000012000EB0A01019801EBE0710598414492
:102F3000401A401E0590E00306D45B462146179ACE
:102F4000059800F05DF805441498007818B15A46C9
:102F5000179990476D1CE00324D55B462146179ACC
:102F6000059800F04DF805441CE00498002807DBA4
:102F7000DDE90301884203DD0098405C179901E018
:102F8000179930205A469047049805F10105401CD6
:102F900004900198401E019004D12E205A461799A2
:102FA00090476D1CBAF10001AAF1010ADDDC05E0D1
:102FB00017F8010B5A46179990476D1CB8F100019C
:102FC000A8F10108F4DC5B462146179A0598ABE6A8
:102FD0002D0000002B000000200000002DE9F04132
:102FE000044600251E461746880404D405E03946E9
:102FF0002020B0476D1C641EF9D52846BDE8F0813D
:103000002DE9F041044600251E469046C80301D52F
:10301000302700E02027880404D505E041463846E3
:10302000B0476D1C641EF9D52846BDE8F08100004C
:1030300070B5064D00242878012802D006242046C9
:1030400070BD2869804700202870F8E7A4000020A0
:1030500070B50C460988002505292FD1417840F22A
:10306000CF760A0281781143C278491C1302027993
:1030700089B21A43531EB34220D200232380012376
:1030800000F8013B2688761C2680560703D003EB08
:10309000D203DEB201E0C2F3C70600F8016B238859
:1030A0005B1C2380002300F0CFFE18B101F0D1FD9E
:1030B000054604E020883044208000E003252846AF
:1030C00070BD70B50C460988002505292FD14178BF
:1030D00040F2CF760A0281781143C278491C13026C
:1030E000027989B21A43531EB34220D200232380AF
:1030F000022300F8013B23885B1C2380530704D084
:10310000012303EBD203DEB201E0C2F3C70600F8ED
:10311000016B23885B1C238000F0E6FE18B101F0F0
:1031200098FD054604E020883044208000E0032517
:10313000284670BD70B50C4609880026052928D19F
:10314000417805790A0281781143C278491C45EA21
:1031500002256A1E89B27C2A1BD800222280032203
:1031600000F8012B22880023521C22806A0000F8FC
:10317000012B2288521C22802A4600F0EFFE18B153
:1031800001F067FD064605E0208800EB4500208041
:1031900000E00326304670BD70B50C460988002655
:1031A000052927D1417805790A0281781143C2782F
:1031B000491C45EA02256A1E89B27C2A1AD20022DD
:1031C0002280042200F8012B2288521C22806A00EF
:1031D00000F8012B2288521C22802A4600F0F6FEBD
:1031E00018B101F036FD064605E0208800EB4500E9
:1031F000208000E00326304670BD2DE9F0410446F2
:10320000088800270D460A2842D3607826790102F3
:10321000A078227A0843401C1FFA80F8E07846EA3A
:1032200000266079731E0102A0790843401C81B218
:10323000E0797C2B42EA0022607A28D83AB3792AD6
:1032400025D8B0EB420F22D1012304F10A0000F08F
:1032500085FE98B900212980172121702988601CDA
:10326000491C2980710000F8011B29880023491C92
:1032700029803246414600F071FE18B101F0E9FCA8
:10328000074605E0288800EB4600288000E0032779
:103290003846BDE8F081000070B5064C0D46064981
:1032A0002288401CFDF71DF82088401C2880002043
:1032B00070BD000094000020804E002038B50988C1
:1032C000002405290BD141780A0281781143491C59
:1032D000027989B21AB9C278FF2A03D012B1032445
:1032E000204638BD00228DF80120C078FF280CD080
:1032F0008DF8002001231A46684600F0A5FD00283D
:10330000EED001F0A6FC0446EAE701208DF80000AB
:10331000F0E710B509880024052902D003242046CF
:1033200010BD417801230A028178C01C1143491C59
:1033300089B21A4600F012FE0028F0D001F089FC94
:103340000446ECE72DE9F0410D46098800240529E3
:1033500026D9417843790A0281781143491C8EB2FB
:10336000C178027942EA0122510704D0012101EB20
:10337000D201C9B201E0C2F3C701571EB7F5F66F1B
:103380000ED299420CD101233146801D00F05CFD24
:1033900018B101F05EFC044603E00520288000E03F
:1033A00003242046BDE8F08170B50D46098800244D
:1033B00006291DD341780A0281781143C278491C3D
:1033C0001302027989B21A434379561E772E0FD819
:1033D0005606360E9E420BD10123801D00F0BEFD25
:1033E00018B101F036FC044603E00520288000E017
:1033F0000324204670BD00002DE9F0411D46069BC8
:103400001746064629B1F72903D8134C08462171FF
:103410000EB102251BE01149216111496161114979
:10342000E1601149A1610021E16110492162104967
:1034300061621049A1622A46394600F065FC050028
:1034400005D102F0B5FB28B1667101202070284635
:10345000BDE8F0810325FAE7A4000020093E00083A
:103460002D3E00089D3D0008513D0008FD5C000810
:10347000855D00085D5D000870B5064D0024687824
:10348000012802D00624204670BD686980470020CC
:103490006870F8E7C8010020F8B50E46054600241C
:1034A00002F068FB28BB3088022823D3684601F06D
:1034B00045FD009841780A0281781143C278491C81
:1034C0001302027989B21A43500704D0012000EB9D
:1034D000D200C0B201E0C2F3C7005AB16B78834298
:1034E00008D10023A81C00F0D1FA10B101F0B1FB03
:1034F000044600E003242046F8BDF8B50E46054614
:10350000002402F037FB20BB3088022822D3684613
:1035100001F014FD009841780A0281781143C278C5
:10352000491C1302027989B21A43500704D00120C2
:1035300000EBD200C0B201E0C2F3C70052B16B7819
:10354000834207D1A81C00F0DFFA10B101F081FB23
:10355000044600E003242046F8BDF8B50E460546B3
:10356000002402F007FBF8B9308802281BD3684614
:1035700001F0E4FC009841780A0281781143C27896
:10358000491C1302027989B21A430CD06878B0EB57
:10359000420F08D10023A81C00F0F4FA20B101F07A
:1035A00058FB044600E003242046F8BDF8B50E465B
:1035B0000546002402F0DEFAF0B9308802281AD35A
:1035C000684601F0BBFC009841780A0281781143FB
:1035D000C278491C1302027989B21A430BD0687869
:1035E000B0EB420F07D1A81C00F000FB20B101F0A6
:1035F00030FB044600E003242046F8BDF8B50D4634
:103600000646002402F0B6FA68BB288802282CD3AC
:10361000684601F093FC0098417805790A028178A8
:103620001143491C8FB2C17845EA012541790A024C
:1036300081791143C279491C1302027A89B21A4373
:103640007378B3EB450F0FD101230A3000F09AFADB
:1036500030B900232A463946B01C00F093FA10B165
:1036600001F0F7FA044600E003242046F8BD38B51F
:103670000988002405290BD141780A028178114379
:10368000491C027989B21AB9C278FF2A03D012B153
:103690000324204638BD00228DF80120C078FF2881
:1036A0000CD08DF8002001231A46684600F0EEF990
:1036B0000028EED001F0CDFA0446EAE701208DF8AB
:1036C0000000F0E710B509880024052902D0032482
:1036D000204610BD417801230A028178C01C1143A5
:1036E000491C89B21A4600F04DFA0028F0D001F0CA
:1036F000B0FA0446ECE738B50546088800240528EA
:1037000002D002F037FA18B3684601F017FC687867
:103710002A790102A8780843401C81B2E87842EA7D
:10372000002200985307457904D0012303EBD2030C
:10373000DBB201E0C2F3C70352B1AB4208D10123AF
:10374000801D00F0A3F920B101F083FA044600E0E7
:103750000324204638BD38B508880024052802D047
:1037600002F008FAD0B1684601F0E8FB0098417811
:103770000A0281781143C278491C1302027989B286
:103780001A434379B3EB420F08D10123801D00F0A7
:10379000F9F920B101F05DFA044600E00324204667
:1037A00038BD000070B515460E4608B102251FE071
:1037B000124C11481A4660611148A06111482061FD
:1037C0001148E06100202062104860621048A06249
:1037D0001048E0622946304600F0B6F8050007D1EF
:1037E00002F084F830B1012084F8010001F0ACFB54
:1037F000284670BD0325F9E74D3A0008C8010020AE
:10380000713A0008DD39000891390008415A000872
:103810000D5B0008A95A0008F8B54A4C607818B149
:10382000032801D00620F8BD684602F041F80028C0
:1038300010D0BDF8000004281FD004DC012807D0F8
:1038400002287DD107E008284AD0102878D153E01B
:103850000320607074E03B4AE3690832111D901F39
:10386000984728B9A0786179884201D1042001E005
:1038700001202FE002F044F862E0E16801220878BC
:10388000E0702271C20902D0487820711FE02D4EED
:103890000025303616F83510C9B1814214D1012007
:1038A000207002F067F920B101F0B6FA2081012002
:1038B000607106EBC500234942680831E068904713
:1038C00020710020207002E06D1C102DE2DB2079B9
:1038D00018B10220A0711020CCE701F00FFB2DE001
:1038E00018480C3001F02AFB01F096FAD4E90313D2
:1038F00002466079984723E01248A5790C3001F020
:103900001DFB25B1012D0AD0022D17D10FE001F0CA
:1039100083FA02466079E16801F008FB0EE001F0ED
:103920007BFA02466079E16801F0F8FA06E001F0FE
:1039300073FA02466079E16801F0E8FA01F09AFB57
:103940000020F8BDC80100202DE9F04116460D46C3
:1039500007460024FCF7E3FF334608222946384691
:1039600001F0E2FF60B1B5F5964F01D9232003E0E5
:1039700006496800B1FBF0F080B202F041F800B9EE
:103980000324FCF7CFFF2046BDE8F081A07F17009D
:103990002DE9F0411646884607460025FCF7BFFF93
:1039A0000C4C2089042804D321890B4801F01EFA0D
:1039B00028B10525FCF7B6FF2846BDE8F08106488A
:1039C000007838702089C01E30800348401CC8F839
:1039D0000000EFE7B8010020D05500202DE9F041AC
:1039E000002590460F460646012802D90220BDE870
:1039F000F081FCF794FF134CA078012804D0052532
:103A0000FCF790FF2846F2E7781E0127E060E78088
:103A10000670E28802EB0801E180E18801F0E6F936
:103A2000E188094A5318491CE1801870010AE088AE
:103A30000244401CE080117067700121002001F0F9
:103A400091FADDE7B8010020D354002010B5FCF74F
:103A500066FF0649002088700146012001F082FAC5
:103A600001F0EAFABDE81040FCF75CBFB8010020A5
:103A700010B5FCF754FF0021084601F073FA01F07D
:103A8000B3FABDE81040FCF74DBF00002DE9F04748
:103A90000C469046012106464FF0000901EBD8057F
:103AA00001F09EF91749641E01EBC007A1F10A005D
:103AB000083F4188A0B200EB0802402A1CD8401AF7
:103AC000C0F3CC0400F0070A0BE000BF3819641CF7
:103AD00016F8013BA4B20822514602F08CF96D1E83
:103AE000ADB2012DF2D818F0070207D0337838199B
:103AF000514602F080F901E04FF001094846BDE867
:103B0000F08700008A0100202DE9F0470C4690461E
:103B1000012106464FF0000901EBD80501F060F9DC
:103B20001749641E01EB4007A1F10800BF1E018880
:103B3000A0B200EB0802102A1CD8401AC0F3CC0433
:103B400000F0070A0BE000BF3819641C16F8013BAF
:103B5000A4B20822514602F04EF96D1EADB2012DFD
:103B6000F2D818F0070207D033783819514602F01E
:103B700042F901E04FF001094846BDE8F087000036
:103B8000880100202DE9F04115460F460446002625
:103B900001F026F900EBC00101EB001011497F1E76
:103BA00001EBC0011048C839C288B8B24319642B70
:103BB00013D8801A80B20DE014F8012B120221F8FC
:103BC000102014F8013B1A4321F81020401C6D1EF0
:103BD00080B2ADB2002DEFD100E001263046BDE845
:103BE000F081000002530020800100202DE9F04107
:103BF00015460F460446002601F0F2F800EBC0011E
:103C000001EB001011497F1E01EBC0011048C839BB
:103C10008288B8B24319642B13D8801A80B20DE0A1
:103C200014F8012B120221F8102014F8013B1A435A
:103C300021F81020401C6D1E80B2ADB2002DEFD1D6
:103C400000E001263046BDE8F08100003A52002035
:103C50008001002038B52B4C207808B1062038BDF3
:103C6000684601F08DFF70B39DF80000012846D032
:103C7000022802D0042842D10FE0224AA369921DF3
:103C8000911CC81F9847F0B960782179884200D00C
:103C9000C8B9042001F096FF31E0A0680121194B5A
:103CA0000278A270E170002113F12C0313F8315057
:103CB0006DB1954208D103EBC1014A681149891DD4
:103CC0009047E07003E01AE0491C1029EEDB6078B1
:103CD000A8B1E07870B10021E180A17841F08002C4
:103CE000A1680A70E288521C92B2E2808854E0888F
:103CF000401CE080D4E90213E28820799847002034
:103D000038BD0000A40000202DE9F0411F461546F3
:103D10000E460024FCF703FE3B46082229463046A7
:103D200001F064FF60B1B5F5964F01D9232003E09F
:103D300006496800B1FBF0F080B201F0C1FF00B9A4
:103D40000324FCF7EFFD2046BDE8F081A07F1700BB
:103D50002DE9F0411646884607460025FCF7DFFDB1
:103D60000C4CA088042804D3A1880B4801F03EF82D
:103D700028B10525FCF7D6FD2846BDE8F0810648A8
:103D800000783870A088C01E30800348401CC8F8F6
:103D90000000EFE798000020A04E00202DE9F04140
:103DA00090460E4607460025FCF7B9FD144C607896
:103DB000012806D05FF00505FCF7B4FD2846BDE8F4
:103DC000F081701E0126A06066800770628802EB99
:103DD00008016180618801F009F86188094A531877
:103DE000491C61801870010A60880244401C608090
:103DF000117026700121002001F04EF9DCE700006F
:103E000098000020A04E002010B5FCF788FD064960
:103E1000002048700146012001F03EF901F0BCF994
:103E2000BDE81040FCF77EBD9800002010B5FCF7FF
:103E300076FD0021084601F02FF901F09BF9BDE85D
:103E40001040FCF76FBD00002DE9F047044601204B
:103E5000244F00EBD206A7F10A00491E458888B21C
:103E600081184FF00009402936D8401BC0F3CC051B
:103E700000F0070A02F007086BB1012B2ED120E0F9
:103E800078196D1CADB20822514601F0A3FF761ED1
:103E900004F8010BB6B2002EF2D114F8012DC8F1CE
:103EA00008018A40D0B2C840207017E078196D1C14
:103EB00014F8013BADB20822514601F09CFF761E7A
:103EC000B6B2012EF2D85FEA080207D0237878193B
:103ED000514601F090FF01E04FF001094846BDE86E
:103EE000F08700005A0100202DE9F04704461746EC
:103EF0000120DFF8649000EBD705A9F10800491E06
:103F0000028888B2C1194FF0000810291FD8801A02
:103F1000C0F3CC0600F0070A0CE000BF09EB060076
:103F2000761CB6B20822514601F054FF6D1E04F80B
:103F3000010BADB2002DF1D107F0070014F8012DEF
:103F4000C0F108018A40D0B2C840207001E04FF0B3
:103F500001084046BDE8F08758010020F0B51A4E30
:103F6000491E89B20025174CF6888F18642F26D871
:103F7000891B89B27BB1012B22D11DE034F81130AD
:103F80001B0A00F8013B14F81130491C521E00F8BE
:103F9000013B89B292B2002AF0D111E010F8013B46
:103FA0001B0224F8113010F8016B334324F8113050
:103FB000491C521E89B292B2002AEFD100E00125BD
:103FC0002846F0BD685000205001002070B5114D0A
:103FD000491E89B200240E4BAD888E18642E13D86A
:103FE000491B89B20DE000BF33F811502D0A00F8CB
:103FF000015B13F81150491C521E00F8015B89B295
:1040000092B2002AF0D100E00124204670BD0000E9
:10401000A04F00205001002013B54FF6FF7301227E
:1040200069460248FDF7FDFE00981CBD68030020AC
:10403000FCF7DCFFFEF78CF9FDF79AFFFDF758FF60
:10404000FEF76CF8FEF786F8FEF744F8FEF79EF8E8
:10405000FEF71CF8FDF7FAFF0448FDF7AFFC00F08F
:10406000E3F8FDF763FF00F0F9F8FEE7280300200E
:1040700010B5EFF3058179B9EFF3108111B9EFF3C2
:10408000118119B106490968022905D0002408B137
:1040900001F09CF9204610BD6FF00504FAE700001E
:1040A0006C00002070B50E46050002D0300E0028CE
:1040B00002D06FF0030410E0EFF3058078B9EFF35E
:1040C000108010B9EFF3118018B10B480068022876
:1040D00005D0284601F0C0FA0446204670BD2846A7
:1040E00001F006FB04463146284601F0D5FA0028C7
:1040F000F3D1C41EF1E700006C00002010B54FF0B2
:104100000001EFF30582BAB9EFF3108212B9EFF3B1
:1041100011821AB1094A1268022A0DD048B1D0E9B9
:1041200002202AB1202807D3104601F0CBFA02E082
:1041300010B901F0B9FA0146084610BD6C00002024
:1041400038B50C4610B1210E002902D06FF00300E3
:1041500038BDEFF3058169B9EFF3108111B9EFF3C1
:10416000118119B10F490968022903D0214601F0D4
:10417000CCFA38BD002100916A46214601F00CFBC3
:1041800060B1009920460029F3D0074A4FF08051D2
:104190001160BFF34F8FBFF36F8F38BD6FF0020018
:1041A00038BD00006C00002004ED00E0F8B51D46AD
:1041B00016460C4610B1210E002902D06FF0030004
:1041C000F8BDEFF3058169B9EFF3108111B9EFF391
:1041D000118119B113490968022903D0F10704D0EC
:1041E000012303E06FF00500F8BD0023B10701D5FE
:1041F000002200E001222146009501F0D5FAF307E4
:104200006FF001016FF0020206D0844206D1F8BDC2
:104210000846F8BD1046F8BD0442FCD1002DF9D087
:10422000F6E700006C000020EFF3058068B9EFF3BB
:1042300010820949086812B9EFF311820AB1022805
:1042400003D028B14FF0FF3070476FF00500704782
:1042500001200860002070476C00002010B5EFF3CB
:10426000058070B9EFF310820A49086812B9EFF3BC
:1042700011820AB1022804D0012805D04FF0FF3086
:1042800010BD6FF0050010BD0220086001F066F956
:10429000002010BD6C000020F8B5144603460E4601
:1042A0004FF00005EFF30580E8BBEFF3108010B985
:1042B000EFF3118018B123480068022840D093B36F
:1042C0009E423DD84CB1A0680028E06803D0502839
:1042D00036D3012002E008B132E00020012B05D0E6
:1042E00010B31846A26801F032FE20E040B103206E
:1042F0000090002211460120A36801F06CFE04E04A
:1043000003220021012001F042FE050018D086B1F1
:1043100000231A46194601F0D5FE012809D0284687
:1043200001F006F800250BE0184601F0F3FD05004A
:1043300006D00CB1216800E00021284600F0E4FF1F
:104340002846F8BD6C00002038B50024E51E002882
:1043500004D000BFEFF30581B9B902E06FF00304A8
:1043600011E0EFF3108111B9EFF3118119B1104988
:104370000968022909D000231A46194601F0A2FE55
:10438000012800D02C46204638BD00210091694606
:1043900001F0A6FF0128F5D100980028F3D00549C7
:1043A0004FF080500860BFF34F8FBFF36F8FEAE785
:1043B0006C00002004ED00E02DE9FF414FEA01030D
:1043C0004FF00005EFF30581039599BBEFF31081E2
:1043D00011B9EFF3118119B11F490968022938D0C9
:1043E00040B38026182100244AB3176807B13C4621
:1043F00097691FB139467F1E382F02D21779FF0700
:1044000003D0002004B0BDE8F081576907B1BE08B1
:10441000D2F808C0BCF1000F0DD0D5685C2D18D3C0
:1044200012693AB137B18DE806103246214602F0E2
:10443000A8F803900DE0D7685FB912694AB903AADA
:10444000CDE90012B2B2214602F06EF8012800D088
:1044500003950398D6E700006C0000202DE9F04199
:10446000134C0F46054666692068001D00F0DAFC13
:10447000681C07D137B12168BDE8F0410D48091D1E
:1044800000F030BD20683544B5424560216805D252
:10449000A068BDE8F041091D00F00CBD6068091D71
:1044A00000F008FD206B854200D22563BDE8F08155
:1044B0001C0000209C0A00202DE9F041054600F078
:1044C00085FE2D4C2069401C206120682B4F10B1C7
:1044D000E06930B32BE025602069012827D1002650
:1044E00006EB860007EB800000F0D6FC761C382E29
:1044F000F6D3234800F0D0FC2148143000F0CCFC67
:104500001F48283000F0C8FC1D483C3000F0C4FCB7
:104510001B48503000F0C0FC194860601430A060A7
:1045200005E02068E96AC06A884200D82560E06A30
:10453000401CE0626864E86AA169884200D9A06111
:1045400000EB800007EB8000291D00F0CBFC00F0A1
:104550005DFEE06900280CD02068E96AC06A8842E4
:1045600007D208494FF080500860BFF34F8FBFF368
:104570006F8FBDE8F08100001C000020EC050020DA
:104580004C0A002004ED00E038B500F01FFE104C8E
:10459000A068C8B90F4800F07FFC0E48143000F046
:1045A0007BFC0C482060143060600A4B00202833EC
:1045B000009003F1500210210A2001F00CFDA060D0
:1045C00010B105A100F0A0FEBDE8384000F01EBE0D
:1045D00058000020B00A0020546D72510000000005
:1045E00030B4026C0B46002A0BD0C1681144C16084
:1045F0008468A14201D30168C16030BC1846FBF752
:1046000070BE30BC70472DE9F041856B17460446FB
:104610000026026C82B1C7B1E068FBF762FEE16878
:10462000206C091AE1602268914202D2A168081A3E
:10463000E060022F16D017E02068A8B9A06802F049
:104640004BF806460020A0600EE06068FBF749FECC
:10465000216C606808446060A168884204D32068C7
:10466000606001E005B16D1E6D1CA5633046BDE8BC
:10467000F08110B5044690F8590058B101280CD0CB
:1046800002280FD0502080F31188BFF34F8FBFF363
:104690006F8FFEE7206B00F0CDFD2046BDE8104097
:1046A00000F0C8BD10BD000010484FF47051420723
:1046B00006D0C01D0D4920F00700411AC1F5705108
:1046C0000B4A00230144C2E900030839103A21F0E3
:1046D000070111604B600B600B1AC0E90013936077
:1046E0004FF000405360D0607047000080120020FF
:1046F00080000020144E154CA6F29C474FF08058C5
:10470000DFF84C9012E000BF00F060FDF068C56873
:10471000281D00F087FB2069401E2061E068401ED4
:10472000E06000F073FD2846FFF7A3FFE068002873
:10473000EAD138680128F9D9C9F80080BFF34F8F52
:10474000BFF36F8FF2E70000880A00201C000020F2
:1047500004ED00E070B51D46049C51B1C4F8002082
:10476000C4E90F010121204601F068FC84F84C5097
:1047700070BD2460F4E700002DE9F05F8846DDE9B4
:104780000B941546834691009A460A9EA522206BFB
:10479000FBF7B9FD6FF00301206B01EB85010844C5
:1047A00020F00707780707D0502080F31188BFF367
:1047B0004F8FBFF36F8FFEE70025B8F1000F0FD0CA
:1047C0005FF00000221818F8001082F8341018F872
:1047D000001011B1401C1028F4D384F8435001E0BC
:1047E00084F83450382E00D33726E662C4E91365C6
:1047F000201D00F05CFB04F1180000F058FB246160
:10480000C6F138006462A061656584F8585052466C
:104810005946384600F096FA2060B9F1000F01D0F1
:10482000C9F80040BDE8F09F2DE9F0471E46DDE9DC
:10483000089417460D00804615D0002C11D0FFF7C4
:10484000A3FE04F11801C4F8008081E86002201D75
:1048500000F02DFB002F04D014F8280F40F00400C6
:104860002070BDE8F087502080F31188BFF34F8F90
:10487000BFF36F8FFEE7000030B5114900E011462D
:104880000A688242FBD34B685C18844203D14068BB
:1048900018444860084643681C18944209D1084CE3
:1048A000103C2468A24209D052681A4442600A6847
:1048B00012680260814200D0086030BD0460F9E7F0
:1048C0008000002070B5002441600B4D00619142D2
:1048D00006D8D11A8269914206D2011D686807E0A4
:1048E0009A4203D2994201D3012403E0011D2868B2
:1048F00000F0E0FA204670BD5800002010B50446D4
:1049000000F064FCA06B28B15FF0000400F07EFCB6
:10491000204610BD0124F9E730B589B03C4D6EE06A
:104920000498002806DADDE90601059A9047049804
:10493000002864DB069C606910B1201D00F072FA4B
:1049400003A800F0D7F8024604980A2857D2DFE8F7
:1049500000F00505052D334A05052D3394F8280090
:1049600040F0010084F828000599A069059B0144E6
:104970002046FFF7A7FF68B3216A2046884794F8CE
:10498000280040073BD5002000900598A16900232E
:1049900042181946204601F0C3FFD8B9502080F3D1
:1049A0001188BFF34F8FBFF36F8FFEE714F8280F06
:1049B00020F00100207022E094F8280040F001006F
:1049C00084F828000598A06128B181181346204674
:1049D000FFF778FF13E0502080F31188BFF34F8F6B
:1049E000BFF36F8FFEE794F82800810703D42046B9
:1049F00000F020FC03E020F0010084F828000022F1
:104A000004A9A86801F0BAFC002889D109B030BD1A
:104A1000580000202DE9FC410F46054600F0E2FD5C
:104A200001A800F067F80446019818B101F0CCFE27
:104A3000BDE8FC81254EAFB170680068D0B3002797
:104A4000291B3A46B06800F09FFC01F0BDFE00282B
:104A5000EED11F494FF080500860BFF34F8FBFF376
:104A60006F8FE5E7A542EBD801F0AEFE3068274630
:104A7000C068C468201D00F0D5F994F828004107EB
:104A800019D5A0692B4641193A462046FFF71AFF6F
:104A9000A8B100200346014600902A46204601F0B6
:104AA0003FFF60B9502080F31188BFF34F8FBFF3F1
:104AB0006F8FFEE707E020F0010084F82800216AEC
:104AC00020468847B4E70127BAE7000058000020D5
:104AD00004ED00E006484168096829B14168C968E9
:104AE000C9684968016370474FF0FF31FAE7000079
:104AF0001C00002070B5054601F07CFD064E044602
:104B00003069844203D200F009F8012000E000205F
:104B100028602046346170BD58000020F8B5194D5A
:104B200020E0C068C4680668201D00F07BF9216A97
:104B30002046884794F82800400713D5A0693044E0
:104B4000B04206D924616060211D286800F0B2F9E6
:104B500008E000200346014600903246204601F05E
:104B6000DFFE38B1286801680029DAD16968C5E933
:104B70000010F8BD502080F31188BFF34F8FBFF3B2
:104B80006F8FFEE75800002008484068401C4FF037
:104B9000500080F3118804D0BFF34F8FBFF36F8FA5
:104BA000FEE7BFF34F8FBFF36F8FFEE78800002053
:104BB0000346002012B1994302D070470B42FCD04B
:104BC00001207047074C2068016841B1C06800218E
:104BD000D0F80000FFF71EFFFFF79EFEF3E701216C
:104BE0000020F7E7580000202DE9F041044600F0CE
:104BF000EDFA94F9455004F1240609E0606A48B1E1
:104C0000304601F0A9FD08B100F00EFC6D1E6DB23A
:104C1000002DF3DC4FF0FF3684F8456000F0F6FA23
:104C200000F0D4FA94F9445004F1100709E0206927
:104C300048B1384601F090FD08B100F0F5FB6D1E5B
:104C40006DB2002DF3DC84F84460BDE8F04100F063
:104C5000DDBA002804D0012803D0072803D004209F
:104C60007047022070470620704700002DE9F04190
:104C70000546002700F0B6FC314E306808B9FFF752
:104C800013FDF06805424BD1C5B3083568070ED057
:104C900005F00700C0F108000544680707D0502060
:104CA00080F31188BFF34F8FBFF36F8FFEE72DB3F3
:104CB0007068854234D82248103001460C6801E003
:104CC00020460C466168A94202D221680029F7D12A
:104CD00031688C4224D00768216801606068083719
:104CE000411B10290FD96019420708D0502080F3CA
:104CF0001188BFF34F8FBFF36F8FFEE710E0416065
:104D00006560FFF7B9FD61687068401A7060B2684D
:104D1000904200D2B060F06801430020C4E9000175
:104D200001F052FD780707D0502080F31188BFF3BF
:104D30004F8FBFF36F8FFEE73846BDE8F08100006C
:104D40007000002010B5031F4FF080741C601B1F03
:104D500021F001011960191F044B0B6014390A601E
:104D6000091F6FF0020244380A6010BD894B000829
:104D70000020FFF7C3F9074C074D4FF0FF36606086
:104D80003346022201216068FFF710FA2868804745
:104D9000F6E7000068010020C80000200020FFF7AF
:104DA000ADF9074C074D4FF0FF36606033460222E5
:104DB00001216068FFF7FAF928688047F6E70000EC
:104DC0009C010020F001002001480068004700001D
:104DD000CC0000200148006800470000F4010020DA
:104DE0000148407970470000C801002070B5094DA6
:104DF000FF231A4605F5807606E000BF10F8014B48
:104E000054402A5D5A40335D491E89B2F6D242EAC7
:104E1000032070BD506A0008014880887047000078
:104E2000B8010020D0E9013201699A60D0E901237C
:104E30005A604A68824201D182684A600022026157
:104E40000868401E08600868704700000449086848
:104E50000A688069D26A0968C2F138028A617047BB
:104E60001C000020034B036003F15C0008608020FD
:104E700010607047C80B0020044B036003F15C0016
:104E800008604FF48070106070470000240E00200E
:104E900000F0E2BB00F039BC00F108014FF0FF3236
:104EA000C0E90112C1600161002101607047002169
:104EB0000161704730B50B685A1C02D000F108023E
:104EC00002E0026904E02246546825689D42FAD94E
:104ED00053684B6099608A60516008610168491CA1
:104EE000016030BD42684A6093688B609368596086
:104EF000916008610168491C0160704702482021E7
:104F00004068FFF71DB900009401002002484FF4EB
:104F100080714068FFF714B9940100200248802195
:104F20004068FFF70DB900009401002002484021BD
:104F30004068FFF705B900009401002001490160B5
:104F400070470000D454002010B50121034A0846E0
:104F5000FFF7A2F90249086010BD0000506C00087C
:104F60009401002070B50D46124B134C4FF4804154
:104F700050B1A0680068C26842F02002C2600022FE
:104F80001846FBF728FF09E001221846FBF723FF2C
:104F9000A0680068C16821F02001C16060684FF01E
:104FA00001011DB1BDE87040FFF7CAB8BDE870400F
:104FB000FFF778B8000402409C01002038B5C824EF
:104FC000022000F05DF8FCF78CFF0021054D0B4638
:104FD0002246009108B1092100E00421686801F02F
:104FE0009FFC38BDB001002038B5FCF77AFF0021E6
:104FF000054C0B460A46009108B1082100E0032148
:10500000606801F08DFC38BDB001002038B5642423
:10501000012000F035F8FCF764FF0021054D0B4638
:105020002246009108B1092100E00421686801F0DE
:1050300077FC38BDB001002038B50D4C32212088F6
:1050400048434FF47A71B0FBF1F500206D1C00F07D
:1050500017F8FCF746FF00210B462A46009108B1DD
:10506000092100E00421606801F05AFC38BD00000D
:10507000B001002001480068FFF766B994010020E4
:105080000149C87070470000B801002001498871CB
:1050900070470000C801002070B52DED028B0D4651
:1050A0002A4B2B4C82B04FF4005150B1A0680068DD
:1050B000C26842F02002C26000221846FBF78BFE55
:1050C00009E001221846FBF786FEA0680068C16867
:1050D00021F02001C16060684FF0010135B102B0DC
:1050E000BDEC028BBDE87040FFF72AB8FEF7DAFF8F
:1050F00018480468606A9FED188A00EE100A9FED58
:10510000171AB8EE400AC0EE080A81EE200A10EE27
:10511000100AFBF70AF90546606A0E4600EE100A0F
:10512000F8EE400A80EE880A10EE100AFBF7FDF850
:1051300041EC100BCDE9005653EC102B08A0FDF705
:10514000EDFA02B0BDEC028B70BD0000000402401D
:1051500068010020280300200000C84200007A44B3
:105160006D733D252E32662C6670733D252E32669A
:105170000D0A000038B5FCF7B4FE0021054C0B46C3
:105180000A46009108B1082100E00321206801F0DF
:10519000C7FB38BD7C01002038B5FCF7A2FE0A4DE4
:1051A000002430B101F02CFA0023024606210094BD
:1051B00005E001F01FFA002302460121009428684F
:1051C00001F0AEFB38BD00007C010020502080F3D0
:1051D0001188BFF34F8FBFF36F8F0A494868401C97
:1051E000486001280CD10848006810F0FF0F07D074
:1051F000502080F31188BFF34F8FBFF36F8FFEE70E
:10520000704700008800002004ED00E0084948686D
:1052100028B1401E486001D180F3118870475020AA
:1052200080F31188BFF34F8FBFF36F8FFEE700004D
:105230008800002070B5002827D0144DA0F1080484
:105240006168E868014207D1502080F31188BFF3FC
:105250004F8FBFF36F8FFEE722683AB1502080F383
:105260001188BFF34F8FBFF36F8FFEE781436160FB
:1052700000F0B8F960686968084468602046FFF784
:10528000FBFABDE8704001F09FBA70BD70000020CD
:105290004FF0E02000210161816105494FF47A72ED
:1052A0000968B1FBF2F1491E4161072101617047B4
:1052B0001800002010B5FAF7CDFF114910280ED3C1
:1052C00000F1E02090F8F0030A78904207D25020D5
:1052D00080F31188BFF34F8FBFF36F8FFEE709484C
:1052E0000068896800F4E060884207D9502080F3A4
:1052F0001188BFF34F8FBFF36F8FFEE710BD000023
:10530000880000200CED00E010B5084B002200BF23
:1053100053F832401CB1521C082AF9D310BD43F88F
:10532000321003EBC201486010BD0000AC05002044
:1053300010B504000AD000F013F894F846000028D5
:105340000CD12046BDE81040FFF774BF502080F319
:105350001188BFF34F8FBFF36F8FFEE710BD0000C2
:10536000084A002102EBC1035B68834206D100209A
:1053700042F8310002EBC10148607047491C08291E
:10538000F0D37047AC05002070B515460E460446B4
:10539000FFF71CFF94F944100020491C01D184F848
:1053A000440094F94510491C01D184F84500FFF7E9
:1053B0002DFFA06B28B92A46314604F1240000F0E5
:1053C00051F82046BDE87040FFF70EBC10B5020052
:1053D00014D00F48806B38B1502080F31188BFF390
:1053E0004F8FBFF36F8FFEE700F0FCF800211046EF
:1053F000FFF734F801F0E8F9002807D105494FF02C
:1054000080500860BFF34F8FBFF36F8F10BD000057
:105410001C00002004ED00E002498A6A026049692C
:10542000416070471C00002001490120486270471C
:105430001C00002010B50C4650B10949096818310C
:10544000FFF738FD2046BDE810400121FFF706B800
:10545000502080F31188BFF34F8FBFF36F8FFEE7AB
:105460001C00002070B514460D4668B10A49096851
:105470001831FFF737FD0CB14FF0FF3521462846B4
:10548000BDE87040FEF7EABF502080F31188BFF3FB
:105490004F8FBFF36F8FFEE71C00002010B514463E
:1054A000030011D01048826BB2B1026841F0004194
:1054B0009161016818461831FFF714FD2046BDE8D8
:1054C00010400121FEF7CABF502080F31188BFF3BE
:1054D0004F8FBFF36F8FFEE7502080F31188BFF32B
:1054E0004F8FBFF36F8FFEE71C00002070B5194D82
:1054F000AA6BF2B141F000410160C4680CB3FFF740
:1055000091FC201DFFF78EFCE06AA969884200D952
:10551000A861114900EB800001EB8000211DFFF71D
:10552000E1FCE06A2968C96A884201D90120686201
:1055300070BD502080F31188BFF34F8FBFF36F8F82
:10554000FEE7502080F31188BFF34F8FBFF36F8FBA
:10555000FEE700001C000020EC05002030B587B0FD
:105560000024039405AA04A903A80494FFF77AFC75
:10557000DDE903010094CDE90110002315A11748CE
:10558000059A00F0FEFF164D002868631FD001F059
:1055900097F9012809D0401C19D1502080F31188B7
:1055A000BFF34F8FBFF36F8FFEE7502080F311885A
:1055B000BFF34F8FBFF36F8F4FF0FF302863012091
:1055C000E8616C6107B0BDE8304000F029BC07B06D
:1055D00030BD000049444C4500000000F54600087D
:1055E0001C0000200248816B491C81637047000049
:1055F0001C000020164810B5816B11B101214162D9
:1056000010BD002141628169124A01E0B9B1491E11
:1056100001EB810352F82330002BF7D001EB81031B
:1056200002EB830202F1080453685B685360A342F3
:1056300001D15B685360DA680260816110BD50205F
:1056400080F31188BFF34F8FBFF36F8FFEE7000029
:105650001C000020EC05002070B50E46040009D0A7
:10566000300E0FD0502080F31188BFF34F8FBFF35F
:105670006F8FFEE7502080F31188BFF34F8FBFF389
:105680006F8FFEE7FFF7A2FD256825EA0600206080
:10569000FFF7BCFD284670BD0A46014600230148BD
:1056A00001F072B9914E000870B52020FFF7DEFAC4
:1056B000040005D00025201D2560FFF7EDFB2577B0
:1056C000204670BD38B558B1202104460020009115
:1056D0002060201DFFF7E0FB01202077204638BD29
:1056E000502080F31188BFF34F8FBFF36F8FFEE719
:1056F0005022EFF3118182F31188BFF34F8FBFF374
:105700006F8F006881F3118870472DE9F041002701
:10571000884604000AD05FEA18600FD0502080F35A
:105720001188BFF34F8FBFF36F8FFEE7502080F3D8
:105730001188BFF34F8FBFF36F8FFEE7261D04F173
:105740000C05FFF74FFF2168F06841EA080121606E
:1057500017E0D0E9001601F07F425301236821F0E1
:105760007F4102D40B4203D10AE031EA030307D19F
:10577000D20100D50F43216841F00071FFF7B6FE5A
:105780003046A842E5D12068B843206001F01CF8FB
:105790002068BDE8F081000013460A460146014832
:1057A00001F0F2B8954E00082DE9F0479A46DDF871
:1057B000209090460D4604004FF0000709D0280EB7
:1057C0000FD0502080F31188BFF34F8FBFF36F8F3E
:1057D000FEE7502080F31188BFF34F8FBFF36F8F28
:1057E000FEE71DB100F0F8FE40B112E0502080F35A
:1057F0001188BFF34F8FBFF36F8FFEE7B9F1000F32
:1058000007D0502080F31188BFF34F8FBFF36F8F05
:10581000FEE7FFF7E7FE2668524629463046FFF7C7
:10582000C7F930B1B8F1000F1AD02068A843206042
:1058300016E0B9F1000F13D0B8F1000F01D04FF00E
:105840008077BAF1000F01D047F0806745EA070181
:105850004A46201DFFF722FE00F0B6FF18B10AE00D
:1058600000F0B2FF1FE011494FF080500860BFF315
:105870004F8FBFF36F8FFFF7E9FA0646800110D410
:10588000FFF7A4FC2668524629463046FFF790F9F8
:1058900028B1B8F1000F02D02068A8432060FFF7BC
:1058A000B5FC26F07F463046BDE8F08704ED00E009
:1058B00038B504464FF0FF3000900B48002301221A
:1058C0001F214068FFF770FF042809D004DC01287D
:1058D00006D0022805D103E0082801D0102800D105
:1058E0002080012038BD00009401002010B5002068
:1058F000FEF704FC01494860012010BD940100201E
:105900000146034810B54068FFF7FFFE012010BDB7
:105910009401002010B5014601220248FBF704F86B
:10592000012010BDA80100207CB5254C012808D01D
:10593000022802D0032802D003E0224800E02248D7
:10594000A060A0680025C560416033B14FF480516C
:10595000012B05D0022B0BD106E08560056107E025
:1059600081604FF4C06102E081604FF480610161A9
:10597000FCF70EF908B1FAF7D4FFA0680168CA680D
:1059800022F02002CA600168CA6822F04002CA60A0
:105990000E4A0321FCF7FCF909480D490C3001605F
:1059A000C580858006490820CDE9000182010023D9
:1059B00008A10C4800F0B8FD012800D000207CBDF3
:1059C0009C010020D403002040040020E1210008B5
:1059D000CA5300206D6173746572207472616E73B6
:1059E000000000009D4D0008044989680A68506065
:1059F000086801684906FCD5012070479C01002019
:105A000038B5094C32210123208048434FF47A7184
:105A1000B0FBF1F105480090002205A0491C00F000
:105A200035FF6060012038BDB0010020D54D000871
:105A30004D61737465722074696D657200000000B9
:105A4000F8B500266846FFF765FF154CA07830B121
:105A5000144D012807D0022813D0032801D1FFF7E5
:105A6000EBFA3046F8BDFFF7BFFA002060702081E6
:105A70009DF8001020892A18401C208111700220F6
:105A80000BE02089FF2807D89DF8001020892A18EC
:105A9000401C20811170E2E70320A070DFE70000C6
:105AA000B8010020D055002070B5174D0024A8780B
:105AB00020B1022803D0032804D109E00120FFF718
:105AC0001FFF04460120A870687802280ED104E068
:105AD0000120FFF7DBFA1020F1E7287830B9002029
