:020000040800F2
:10000000107700205D020008F71800086D16000840
:10001000F51800080F040008911E000800000000F9
:100020000000000000000000000000009D0100082A
:10003000A504000800000000F9010008311A0008BA
:1000400077020008770200087702000877020008AC
:10005000770200087702000877020008770200089C
:10006000770200087702000877020008770200088C
:10007000770200087702000877020008770200087C
:10008000110400081D040008770200087702000828
:10009000770200087702000877020008770200085C
:1000A000770200087702000877020008770200084C
:1000B000770200087702000877020008770200083C
:1000C000770200087702000877020008770200082C
:1000D0007702000877020008191E0008551E000864
:1000E000770200087702000877020008770200080C
:1000F00077020008770200087702000877020008FC
:1001000077020008770200087702000877020008EB
:100110007702000877020008FD1A0008091B000892
:1001200077020008770200087702000877020008CB
:1001300077020008770200087702000877020008BB
:1001400077020008770200087702000877020008AB
:10015000770200087702000877020008770200089B
:10016000770200087702000877020008770200088B
:1001700077020008770200087702000800000000FC
:100180007702000877020008DFF80CD000F002F9CF
:100190000048004779310008107700202C4B19687F
:1001A0000868B0E8F04F80F30988BFF36F8F4FF015
:1001B000000080F3118870470000000008480068C4
:1001C000006880F308884FF0000080F3148862B65E
:1001D00061B6BFF34F8FBFF36F8F00DF00BF00BF6B
:1001E00008ED00E0DFF80C00016841F470010160E7
:1001F000704700BF88ED00E0EFF30980BFF36F8F19
:10020000134B1A681EF0100F08BF20ED108A20E96A
:10021000F04F106009B44FF0500080F31188BFF325
:100220004F8FBFF36F8F04F0DBFA4FF0000080F3C5
:10023000118809BC19680868B0E8F04F1EF0100F6B
:1002400008BFB0EC108A80F30988BFF36F8F704746
:100250001C000020EFF3058070470000064880472F
:1002600006480047FEE7FEE7FEE7FEE7FEE7FEE79B
:10027000FEE7FEE7FEE7FEE7E11A00088901000855
:100280002DE9F05F0546002092469B4688460646CB
:10029000814640241BE0284641464746224600F05E
:1002A00069F853465A46C01A914110D31146184670
:1002B000224600F050F82D1A67EB01084F462246FF
:1002C0000120002100F047F817EB00094E41201EE5
:1002D000A4F10104DFDC484631462A464346BDE826
:1002E000F09F40EA01039B0703D009E008C9121FF1
:1002F00008C0042AFAD203E011F8013B00F8013BE0
:10030000521EF9D27047D2B201E000F8012B491E0B
:10031000FBD270470022F6E710B513460A460446A2
:100320001946FFF7F0FF204610BD30B50B460146D9
:1003300000202022012409E021FA02F59D4205D384
:1003400003FA02F5491B04FA02F52844151EA2F12E
:100350000102F1DC30BD202A04DB203A00FA02F170
:10036000002070479140C2F1200320FA03F31943A3
:1003700090407047202A04DB203A21FA02F0002145
:10038000704721FA02F3D040C2F1200291400843A5
:1003900019467047064C074D06E0E06840F001033F
:1003A00094E8070098471034AC42F6D3FFF7F0FE0C
:1003B000246100084461000870B58C1810F8015BD6
:1003C00015F0070301D110F8013B2A1106D110F8EE
:1003D000012B03E010F8016B01F8016B5B1EF9D1F2
:1003E0002B0705D40023521E0DD401F8013BFAE778
:1003F00010F8013BCB1A921C03E013F8015B01F8E3
:10040000015B521EF9D5A142D8D3002070BDFEE792
:10041000014800F075B8000070040020014800F0A9
:100420006FB80000D004002001681823CAB2103A47
:10043000B2FBF3F2054B6FF30901032A9B5CC36522
:1004400000D9091D8165084670470000C45E000898
:1004500010B5014600208B698A6A4FF0C07453B111
:10046000B3F5005F15D072B1012A0CD0022A0AD070
:10047000032A09D104E01AB1012A06D0022A03D1C5
:10048000C96AC90100D5012010BDC96AA142FAD0CC
:1004900010BD002AF7D0012AF2D0022AF3D0032A95
:1004A000F3D010BD704703F03FBF704703F05CBF4F
:1004B00030B513461CE0502484F31188BFF34F8FEE
:1004C000BFF36F8FC4888588AC4215D0C588046897
:1004D000645DC5886D1CC580C588B5F5847F01D96C
:1004E0000025C58001F8014B002484F31188521EB9
:1004F000002AE0D1981A30BD002080F31188F9E776
:100500002DE9F84304464FF00009CDF80090634808
:100510004FF41651A56D0068B0FBF1F72E6894F802
:100520005C10082000FA01F131420FD021680A68FE
:1005300052070BD50A6822F004020A6094F85C1096
:100540008840A860606D40F00100606594F85C1020
:100550004FF0010808FA01F0304208D021684969DB
:10056000090604D5A860606D40F00200606594F84B
:100570005C1004208840304208D02168096889074F
:1005800004D5A860606D40F00400606594F85C10CC
:1005900010208840304218D021680968090714D516
:1005A000A86020680168490304D50068000308D5E5
:1005B000A16C07E00168C90503D4016821F00801B6
:1005C0000160216C09B12046884794F85C10202016
:1005D0008840304231D021680968C9062DD5A8600D
:1005E00094F8350005282068016806D0490347D5EE
:1005F000006800031DD4616C1CE021F0160101604D
:100600002068416921F080014161206C08B9A06C2B
:1006100020B12068016821F00801016094F85C10A5
:100620003F208840A86084F8349084F83580216D9C
:100630001FE0E16B09B120468847606D00282BD090
:10064000606DC00714D0052084F83500206801686B
:1006500021F0010101600098401C0090B84203D8CD
:1006600020680068C007F6D184F8349084F835809B
:10067000E16C002910D001B02046BDE8F0430847E6
:100680000168C905D5D4016821F01001016084F822
:10069000349084F83580CCE7BDE8F883180000205A
:1006A0002DE9F041044600F04DF906465CB1002505
:1006B00084F83450022084F835002068016821F065
:1006C000010101600DE00120BDE8F08100F03AF980
:1006D000801B052805D920206065032084F835009B
:1006E000F2E720680068C007F0D12268116820484E
:1006F0000140D4E901031843D4E9033633431843D6
:1007000063691843A3691843E3691843236A1843CC
:100710000843616A042903D1D4E90B131943084340
:10072000106020684069666A20F0070130460E4379
:10073000012704280CD1A06A0643E06A40B1204694
:10074000FFF786FE20B14020606584F83570BAE777
:10075000206846612046FFF767FE94F85C203F2141
:1007600091408160656584F835700020ACE7000039
:100770003F8010F02DE9F84F00224FF001080325CB
:100780004FF00F0E0B6808FA02F42340A3426ED11B
:100790004E68012E05D0022E03D0112E01D0122E4C
:1007A00012D186684FEA420C05FA0CF7BE43CF68B7
:1007B00007FA0CF7374387604668A6430C79C4F301
:1007C0000014944034434460C668570005FA07FC9F
:1007D0008C6826EA0C06BC403443C4604C68022C8A
:1007E00001D0122C13D1D40800EB8404A346D4F812
:1007F000209054074FEAD46A0EFA0AF629EA06094D
:100800000E6906FA0AF646EA0906CBF82060066881
:100810000C7926EA0C0604F00304BC40344304605F
:100820004C68E40065D5364C266846F48046266060
:10083000246822F0030604F480440094314C3444CC
:10084000A446D4F808489607370F0EFA07F6B443C3
:100850002D4EB04201D1002624E02C4EB04201D1F1
:1008600001261FE02A4EB04202D102261AE040E0E3
:10087000284EB04201D1032614E0274EB04201D1E8
:1008800004260FE0254EB04201D105260AE0244E91
:10089000B04201D1062605E0224EB04201D1072622
:1008A00000E00826BE402643CCF808681E4E346897
:1008B0004F689C43FF0300D51C4334601A4C241D31
:1008C00026684F689E43BF0300D51E432660164E20
:1008D000083634684F689C43FF0200D51C433460DF
:1008E000114E0C3634684F689C43BF0200D51C4340
:1008F0003460521C102AFFF445AFBDE8F88F0000A9
:100900004438024000300140000002400004024030
:1009100000080240000C0240001002400014024097
:1009200000180240001C0240003C0140426931EACC
:10093000020200D10904816170470AB181617047E8
:100940000904FBE701488068704700000C000020A4
:100950000248816802781144816070470C000020D1
:100960000B4810B5016841F400710160016841F461
:1009700080610160016841F480710160032000F032
:100980008DF8002000F006F800F03EF8002010BDC1
:10099000003C024010B5014688B00022362000F02D
:1009A0005DF8362000F04CF813480024016841F04F
:1009B00010010160006805A900F01000069068466B
:1009C00000F018F900F036F90C494000B0FBF1F1E5
:1009D0000C480B4A491E026040F2E732C0E903248A
:1009E000C0E9011400F070FB10B1012008B010BD87
:1009F000044800F0ABFBF9E74038024040420F00EA
:100A000000100040300500200C4882B0016841F41D
:100A100080410160006800F4804000900748001F9A
:100A2000016841F0805101600068002200F08050B0
:100A300000900F21901E02B000F010B84438024020
:100A4000002809DB00F01F020121914040098000CD
:100A500000F1E020C0F8001170470000F0B40E4B28
:100A60001B680C46C3F30223C3F10705042D00D90C
:100A70000425191D072901D2002300E0DB1E0126F1
:100A800006FA05F1491E214099409E40761E164007
:100A90003143F0BC01F00EBA0CED00E0064900F065
:100AA000070208684FF6FF03184040EA0220034A95
:100AB00010430860704700000CED00E00000FA05EC
:100AC0002DE9F0470E46050065D0DFF81481D8F80F
:100AD0000000F7B200F00F00B04207D288F80070B3
:100AE000D8F8000000F00F00B04254D128683D4C07
:100AF000810712D5400703D5206840F4E0502060FC
:100B00002878000703D5206840F460402060206802
:100B1000A96820F0F000084320602878C0072DD095
:100B2000304968680839012812D0022813D00328F8
:100B300011D00968890700292DDA216821F0030105
:100B400001432160FFF7FEFE814641F2883A0EE044
:100B500009688903EFE709688901ECE7FFF7F2FE0E
:100B6000A0EB0901514502D90320BDE8F0872068B8
:100B7000696800F00C00B0EB810FEFD1D8F80010DD
:100B8000404601F00F01B14207D90770006800F03C
:100B90000F00B04201D00120E7E72878400705D5D3
:100BA0002068E96820F4E0500843206028780007B6
:100BB00006D52068296920F4604040EAC100206021
:100BC00000F058F82168084AC1F30311515CC8408D
:100BD0000649086006480068FFF7DCFE0020C4E70D
:100BE000003C024008380240CC5E0008180000209B
:100BF000100000200F2202600C4A136803F0030368
:100C00004360136803F0F0038360136803F4E05358
:100C1000C36012684FF4E05303EAD2020261044851
:100C2000006800F00F0008607047000008380240BC
:100C3000003C02400448054900680968044AC1F3C1
:100C40008221515CC84070471800002008380240DB
:100C5000DC5E00080448054900680968044AC1F3DD
:100C60004231515CC84070471800002008380240EB
:100C7000DC5E0008154810B5006810F00C0214483E
:100C800013D04110042A0FD0082A0ED10F4C241F74
:100C90002268236802F03F025B0207D52068C0F398
:100CA0008810A0FB010106E0084610BD2168C1F3D1
:100CB0008811A1FB00010023FFF7E2FA2168C1F3CC
:100CC0000141491C4900B0FBF1F010BD0838024059
:100CD0000024F4002DE9F84F04006ED02078DFF8EE
:100CE0003C93C007A9F104054AD009F1040001684A
:100CF000C1F38101012908D00068C0F381000228F6
:100D00000AD1D9F80000400206D52868800337D5FB
:100D100060680028E1D033E06068B0F5803F10D013
:100D2000B0F5A02F286810D020F480302860286803
:100D300020F4802028606068A8B1FFF703FE064613
:100D40000DE0286840F48030F4E740F4802028600B
:100D5000F7E700BFFFF7F6FD801B642873D828680B
:100D60008003F7D50CE0FFF7EDFD064605E000BF78
:100D7000FFF7E8FD801B6428F0D828688003F7D4CB
:100D80002078DFF89C8280074FF0000A3ED5A34808
:100D9000001D016811F00C0F08D00068C0F381003D
:100DA00002280BD1D9F80000400207D42868800738
:100DB00016D5E068012800D112E02BE1E068B8B157
:100DC0000120C8F80000FFF7BDFD064605E000BFA2
:100DD000FFF7B8FD801B0228C0D828688007F7D528
:100DE0002868216920F0F80040EAC10028600DE081
:100DF000C8F800A0FFF7A6FD064604E0FFF7A2FD35
:100E0000801B02281FD828688007F7D420780007A5
:100E100022D5824E83486169703671B1012101602B
:100E2000FFF790FD074604E0FFF78CFDC01B02288A
:100E300009D830688007F7D50EE0C0F800A0FFF7AA
:100E400081FD074605E082E0FFF77CFDC01B02281C
:100E50007DD830688007F7D42078400768D5DFF860
:100E6000BCB100270BF13C0BDBF80000C0000BD439
:100E7000DBF8001041F08051CBF80010DBF80000E7
:100E8000012700F080500090674E3068C00510D4F4
:100E9000306840F480703060FFF754FD009005E04A
:100EA000FFF750FD0099401A022850D83068C0055D
:100EB000F6D55A4EA0686C3601280FD00528306848
:100EC00010D020F001003060306820F00400306065
:100ED000A068B8B1FFF736FD00900FE0306840F031
:100EE0000100F4E740F004003060F7E7FFF72AFD67
:100EF0000099411A41F28830814266D830688007F3
:100F0000F4D50EE0FFF71EFD009007E0FFF71AFD95
:100F10000099411A41F28830814256D830688007E2
:100F2000F4D42FB1DBF8001021F08051CBF8001081
:100F3000A069C8B33949091D0968C1F381010229B3
:100F40004AD00228504607D0C8F8600000E03CE0D4
:100F5000FFF7F8FC04463BE04746C8F86000FFF79F
:100F6000F1FC064605E000BFFFF7ECFC801B022801
:100F70002BD828688001F7D4D4E907010843A16A77
:100F80002A4A490802EB0141626A41EA8211084398
:100F900094F82C1040EA0161C9F80010012038666D
:100FA000FFF7D0FC044606E036E000BFFFF7CAFCBE
:100FB000001B022809D828688001F7D52CE000BF63
:100FC000FFF7C0FC001B022802D90320BDE8F88F00
:100FD00028688001F4D41FE00128F7D0D9F8000078
:100FE000E26900F48001914214D1226A00F03F01CD
:100FF00091420FD147F6C071626A0140914209D116
:10100000A26A00F44031914204D1E16A00F07060BC
:10101000884201D00120D9E70020D7E704380240F8
:1010200000004742800E4742007000400000FFFF72
:10103000704770477047000070B590F83C20012A57
:1010400032D0012480F83C40022280F83D20036821
:101050005A689D6822F070060A6832435A60134B42
:1010600002689A4214D0B2F1804F11D0104B9A42CC
:101070000ED0104B9A420BD00F4B9A4208D00F4B18
:101080009A4205D00E4B9A4202D00E4B9A4204D19E
:10109000496825F080031943916080F83D400021A4
:1010A00080F83C10084670BD022070BD0000014071
:1010B0000004004000080040000C00400004014013
:1010C000004001400018004010B5040003D094F81F
:1010D0003D0010B10EE0012010BD002084F83C005E
:1010E000204600F07BFD206C08B9084820640146CA
:1010F00020468847022084F83D00211D206800F02A
:1011000009FD012084F83D00002010BD11110008E8
:1011100008B500680B49884212D10B48016841F0BC
:10112000200101600068002200F0200000900521ED
:101130003720FFF793FCBDE808403720FFF780BC5D
:1011400008BD000000140040403802400168CA6831
:1011500042F00102CA600068816801F007010629B7
:1011600003D0016841F00101016000207047704721
:101170007047704770B50446006801694FF000057C
:10118000C943890717D4C168C943890713D4E91E25
:1011900001610120207720688069800702D0D4F89F
:1011A000881005E0D4F8901020468847D4F89410B1
:1011B00020468847257720680169C943490719D423
:1011C000C168C943490715D46FF0040101610220C9
:1011D00020772068806910F4407F02D0D4F888100E
:1011E00005E0D4F8901020468847D4F894102046A3
:1011F0008847257720680169C943090718D4C16861
:10120000C943090714D46FF0080101610420207755
:101210002068C069800702D0D4F8881005E0D4F8AF
:10122000901020468847D4F89410204688472577A8
:1012300020680169C943C90619D4C168C943C906F0
:1012400015D46FF010010161082020772068C06973
:1012500010F4407F02D0D4F8881005E0D4F8901044
:1012600020468847D4F89410204688472577206880
:101270000169C943C90708D1C168C943C90704D175
:10128000891E0161A16F2046884720680169C94312
:1012900009060AD4C168C943090606D46FF0800163
:1012A0000161D4F8A8102046884720680169C94325
:1012B00049060AD4C168C943490606D46FF0400103
:1012C0000161D4F880102046884720680169C9432D
:1012D00089060CD4C168C943890608D46FF020017F
:1012E00001612046D4F8A010BDE87040084770BDE9
:1012F000704770477047000000680349884201D179
:10130000FFF726BB70470000001000407047704791
:1013100070477047704770477047000070B5040011
:1013200004D094F83900002510B10DE0012070BD03
:1013300084F83850204600F087FC606E08B91348E6
:101340006066014620468847242084F839002068DA
:10135000C16821F40051C160204600F097FC20686C
:10136000016921F4904101612068416921F02A015D
:1013700041612068C16841F40051C160E5632020EB
:1013800084F8390084F83A00002070BD91130008F9
:101390002DE9F04387B0064614216846FEF7BAFFF0
:1013A0005649D6F800C056480225032707220024D4
:1013B0008C451ED1524914310B6843F010030B6069
:1013C000096801F010010591016841F00101016017
:1013D0000068029400F0010005907802CDE9000554
:1013E000CDE9037269464748FFF7C4F907B0BDE885
:1013F000F0834349DFF810811031444BC44556D186
:10140000D1F800C04CF4003CC1F800C0096801F4F8
:1014100000310591016841F0080101600068029403
:1014200000F0080005906020CDE90005CDE90372C9
:1014300069461846FFF79EF9364D35484FF000686B
:101440002860C5E901844FF48069C5E903496C61EE
:10145000AC610420EC61C5E90840C5E90A7428467E
:101460002C63FFF71DF908B1FFF71FF87563AE6332
:10147000284D274860351830E5E802084020A5E8E7
:101480001102244845F814496030AC61EC612C62CB
:101490006C62FFF705F908B1FFF707F83563002222
:1014A00006212620AE63FFF7D9FA262023E01A4E44
:1014B000B4459BD10E6846F480260E60096801F49D
:1014C00080210591016841F00801016000680294E3
:1014D00000F0080005904FF44070CDE90005CDE91B
:1014E000037269461846FFF745F9002205212720B7
:1014F000FFF7B4FA2720FFF7A3FA77E700100140BF
:10150000303802400000024000440040000C02401D
:1015100088600240700400200048004010B500239D
:1015200072B190F83840012C10D0012480F8384076
:1015300090F83940202C0BD090F839401CB326E0AD
:10154000C16B41F02001C163012010BD022010BD1C
:101550000D291CD2DFE801F007090B0D0F1113153F
:101560001B1B1B252700026416E0426414E0826402
:1015700012E0C26410E002650EE042650CE0826594
:101580000AE0C26508E00B290BD00C290BD0C16B17
:1015900041F02001C1630123002180F83810184672
:1015A00010BD4266F8E78266F6E7704770472DE99E
:1015B000F843044690F839001F4616460D46202889
:1015C00050D1B5B1AEB194F8380001284AD001200D
:1015D00084F838004FF00008C4F83C80212084F8DB
:1015E0003900FFF7AFF9A6848146E68484F8388095
:1015F00026E00120BDE8F883E08C401EE084A0686E
:101600004B46B0F5805F4FF000024FF0800120465E
:10161000009703D000F0CEFBE8B90DE000F0CAFB64
:10162000C8B928882168C0F308004860206908B15B
:101630006D1C05E0AD1C03E0216815F8010B486046
:10164000E08C0028D8D14B4600224021204600974C
:1016500000F0B0FB08B10320CCE7202084F839006B
:101660000020C7E70220C5E770477047FEE710B5C6
:10167000FEF7F0FD002800D0012010BD0D4808B590
:10168000016841F4001101600068002200F40010BC
:10169000009005211020FFF7E1F91020FFF7D0F9A5
:1016A000002205211120FFF7D9F9BDE808401120DB
:1016B000FFF7C6B93038024010B50B4A00210B487D
:1016C00001F052FF0A4C084A0021A060483A09483C
:1016D00001F04AFF044A2060243A0021064801F044
:1016E00043FF606010BD00008C5E0008A91900086F
:1016F000000000209918000849190008F0B587B0CB
:1017000014216846FEF706FE25480024016841F0D2
:1017100080010160016801F080010591016841F0DC
:1017200002010160016801F002010591016841F0C8
:1017300008010160016801F008010591016841F0AC
:1017400001010160016801F001010591016841F0AA
:10175000100101600068134E00F010004FF4C04506
:101760000590002229463046FFF7E7F80E4F012288
:1017700003213846FFF7E1F800950125CDE9015432
:10178000694630460394FEF7F5FF0320CDE90005D6
:1017900069463846CDE90245FEF7ECFF07B0F0BDDB
:1017A0003038024000040240001002401CB5002402
:1017B0000E4800940C49019401605321C0E90114C2
:1017C0004FF6FF718461C160FFF77EFC08B1FEF740
:1017D0006CFE0094694605480194FFF72DFC002833
:1017E00001D0FEF762FE1CBD001400408002002004
:1017F0000C4810B50A4901604FF4E1314160002105
:1018000081600C22C160C0E904128161C161FFF7EF
:1018100085FD002803D0BDE81040FEF746BE10BD90
:10182000001001402C0300200C4810B50A4901604B
:101830004FF4E1314160002181600C22C160C0E9B8
:1018400004128161C161FFF769FD002803D0BDE882
:101850001040FEF72ABE10BD00440040980300204F
:101860000C4810B50A4901604FF4E1314160002194
:1018700081600C22C160C0E904128161C161FFF77F
:101880004DFD002803D0BDE81040FEF70EBE10BD90
:10189000004800400404002000234FF4E1320321FB
:1018A000184600F08BFF00F0F3FD00BF00F0C0FF12
:1018B000FCE70000F8B54FF0FF350C4E00952C46C4
:1018C000B06800680168890601D54068C4B2009418
:1018D000641C06D00548012269460C3000F00CF863
:1018E000EDE7034800688047F8BD0000A001002034
:1018F000F0010020FEE77047F0B5502383F3118814
:10190000BFF34F8FBFF36F8F4FF48474002315E044
:101910000D7887880668F55585886D1C85808588D3
:10192000A54200D983808588C688B54206D1C5887E
:101930006D1CC580C588A54200D9C380521EE7D260
:10194000002080F31188F0BD08B500204FF4E1338A
:1019500002220121009000F05BFD00F075FB00BF4A
:1019600001F01CFAFCE70000F8B54FF0FF350C4E13
:1019700000952C46B06800680168890601D540686A
:10198000C4B20094641C06D00548012269460C309C
:10199000FFF7B2FFEDE7034800688047F8BD00009D
:1019A00068010020C400002086B01422174901A855
:1019B000FEF797FCDFF85880164E642701AD6423CC
:1019C0000A220021012001F05DF901AB0A22002169
:1019D0000120009701F07CF901214046FEF7A6FFA7
:1019E0005FF00004214635F81400401C25F814006F
:1019F000F06830F8142008A000F04CFA641C0A2C9F
:101A0000F0DB642001F0D0FBD9E70000B05E0008F5
:101A1000001002408801002052656749443D25645A
:101A20002C526567646174613D25640D0A000000F5
:101A300010B5502080F31188BFF34F8FBFF36F8F25
:101A400003F0F4FF18B104494FF080500860002003
:101A500080F3118810BD000004ED00E030B593B0B4
:101A600030216846FEF756FC14210CA8FEF752FC04
:101A700019480025016841F080510160006800F0BC
:101A8000805011901548016841F480410160006860
:101A9000022400F480401190012000900004019085
:101AA0008001CDE9064008AA0420A82182E813009D
:101AB0000B906846FFF70EF90CA90F2081E8310062
:101AC0004FF4A0500F90E002109005210CA8FEF7F3
:101AD000F7FF13B030BD00004038024000700040F6
:101AE0000548016841F47001016003494FF000604E
:101AF000803908607047000088ED00E00148FFF77A
:101B000039BB0000300500200148FFF733BB00005F
:101B100080020020F0B50268254C264D264E274F46
:101B2000274B4FF0804CA04209D0604507D0A84217
:101B300005D0B04203D0B84201D0984204D122F07F
:101B4000700E4A6842EA0E02A0421BD0604519D0CE
:101B5000A84217D0B04215D0B84213D0984211D045
:101B6000184DA8420ED0184DA8420BD0174DA842D0
:101B700008D0174DA84205D0164DA84202D0164DE8
:101B8000A84203D122F44075CA682A434D6922F065
:101B900080022A4302608A68C2620A688262A042A6
:101BA00001D0984201D10969016301214161F0BD71
:101BB000000001400004004000080040000C00400C
:101BC0000004014000400140004401400048014041
:101BD00000180040001C0040002000400D4940F863
:101BE000781F0D4941600D4981600D49C1600D4963
:101BF00001610D4941610D4981610D49C1610D4985
:101C000001620D4941620D4981620D49C1620D4970
:101C100001637047F91200080D1300080F13000844
:101C2000111300087111000873110008F112000867
:101C3000F3120008F51200086F11000833100008B5
:101C40003510000831100008084901640849416452
:101C5000084981640849C16408490165084941652A
:101C6000084981650849C165704700006B16000886
:101C700069160008AD150008AB1500081913000817
:101C80001313000817130008151300082DE9F0417D
:101C9000044600680169E26821F440511143016182
:101CA0002169A068E269084361691143084321681A
:101CB000CA6849F20C639A430243CA6020684169CA
:101CC000A26921F4407111434161E069192764253B
:101CD0003226B0F5004F354A354920684FF00008EC
:101CE00006D0884201D0904236D1FEF7B3FF35E0EE
:101CF000884201D0904202D1FEF7ACFF01E0FEF72E
:101D000099FF61684A18A0FB070148EB0803FEF73A
:101D1000B7FA0146B0FBF5F00201B1FBF5F06FF048
:101D20001803584301EB800006EBC000B0FBF5F050
:101D300000F0F80002EB4002B1FBF5F0584301EB74
:101D4000800006EBC000B0FBF5F000F00700216852
:101D500010448860BDE8F081FEF76CFF61688B0F6E
:101D60008A00A0FB0701FEF78BFA0146B0FBF5F0F5
:101D70006FF01802504301EB800006EB0010B0FB3F
:101D8000F5F000F0F002B1FBF5F002EB0012B1FB50
:101D9000F5F06FF01803584301EB800006EB0010DC
:101DA000B0FBF5F000F00F00D1E700000014014097
:101DB000001001402DE9F041984617460E460446B2
:101DC000069D1DE0681C1BD02DB1FEF7BBFDA0EBEE
:101DD0000800A84214D92068C16821F4D071C160FC
:101DE0002068416921F001014161202084F8390017
:101DF00084F83A00002084F838000320BDE8F08120
:101E00002068006836EA000004D00020B842D9D02B
:101E10000020F3E70120F9E738B50D4C2068006891
:101E2000800606D5E16C2046884721686FF02000C7
:101E3000086020680168090703D5416801684168A6
:101E400000910168490602D56FF04001016038BD7C
:101E50009803002038B50D4C20680068800606D530
:101E6000E16C2046884721686FF0200008602068F8
:101E70000168090703D5416801684168009101685C
:101E8000490602D56FF04001016038BD040400200E
:101E9000FEE700000FB4054B10B503A9044A0298F1
:101EA00000F028F810BC5DF814FB00006131000858
:101EB0007C0200200907090E002804DB00F1E02065
:101EC00080F80014704700F00F0000F1E02080F867
:101ED000141D704702E008C8121F08C1002AFAD179
:101EE00070477047002001E001C1121F002AFBD19A
:101EF000704700002DE9FF4F89B09B46044600253E
:101F000006E025280BD05A460B999047641C6D1C9F
:101F100020780028F5D10DB02846BDE8F08F0027C5
:101F2000B8460122474900E0074314F8013F203B2F
:101F300002FA03F00842F7D120782E2819D114F8BC
:101F4000010F47F004072A280ED06FF02F022078E7
:101F5000A0F1300109290CD808EB880102EB4101FE
:101F600000EB0108641CF2E70A98641C50F8048B2B
:101F70000A9020780028CED0642808D0692806D09E
:101F800075281ED05A460B9990476D1C58E00A9947
:101F90004FF00A0901C90A91002802DA40422D21B6
:101FA00002E0390504D52B218DF82010012103E032
:101FB000F90704D02021F7E78A4608AE0DE000219A
:101FC000FAE70A994FF00A0901C90A91F7E7494669
:101FD000FEF7ABF9303106F8011D0028F7D1ADEB63
:101FE000060000F12009780701D44FF00108C84528
:101FF00002DDA8EB090000E000208046002706E093
:1020000008A85A46C05D0B9990476D1C7F1C574528
:10201000F6DB04E030205A460B9990476D1CB8F16E
:102020000001A8F10108F5DC05E016F8010B5A469D
:102030000B9990476D1CB9F10001A9F10109F4DC7D
:10204000641C65E70928010070B5064D0024287856
:10205000012802D00624204670BD28698047002050
:102060002870F8E7A400002070B50C460988002508
:1020700005292FD1417840F2CF760A0281781143A9
:10208000C278491C1302027989B21A43531EB34223
:1020900020D200232380012300F8013B2688761CF0
:1020A0002680560703D003EBD203DEB201E0C2F371
:1020B000C70600F8016B23885B1C2380002300F017
:1020C00067FF18B101F09DFE054604E0208830440A
:1020D000208000E00325284670BD70B50C460988B5
:1020E000002505292FD1417840F2CF760A02817868
:1020F0001143C278491C1302027989B21A43531E54
:10210000B34220D200232380022300F8013B23881E
:102110005B1C2380530704D0012303EBD203DEB200
:1021200001E0C2F3C70600F8016B23885B1C238023
:1021300000F07EFF18B101F064FE054604E020883F
:102140003044208000E00325284670BD70B50C4661
:1021500009880026052928D1417805790A02817865
:102160001143C278491C45EA02256A1E89B27C2ABD
:102170001BD800222280032200F8012B2288002392
:10218000521C22806A0000F8012B2288521C2280F7
:102190002A4600F087FF18B101F033FE064605E03D
:1021A000208800EB4500208000E00326304670BD0B
:1021B00070B50C4609880026052927D14178057994
:1021C0000A0281781143C278491C45EA02256A1E39
:1021D00089B27C2A1AD200222280042200F8012B24
:1021E0002288521C22806A0000F8012B2288521C8F
:1021F00022802A4600F08EFF18B101F002FE06464A
:1022000005E0208800EB4500208000E003263046F2
:1022100070BD2DE9F0410446088800270D460A28C4
:1022200042D3607826790102A078227A0843401CC4
:102230001FFA80F8E07846EA00266079731E0102F2
:10224000A0790843401C81B2E0797C2B42EA00224D
:10225000607A28D83AB3792A25D8B0EB420F22D138
:10226000012304F10A0000F01DFF98B90021298024
:10227000172121702988601C491C2980710000F8F1
:10228000011B29880023491C29803246414600F061
:1022900009FF18B101F0B5FD074605E0288800EBFD
:1022A0004600288000E003273846BDE8F0810000A2
:1022B00070B5064C0D4606492288401CFEF711F801
:1022C0002088401C2880002070BD00009400002061
:1022D000B04E002038B50988002405290BD141787B
:1022E0000A0281781143491C027989B21AB9C2786D
:1022F000FF2A03D012B10324204638BD00228DF8F6
:102300000120C078FF280CD08DF8002001231A4648
:10231000684600F03DFE0028EED001F072FD044654
:10232000EAE701208DF80000F0E710B509880024E5
:10233000052902D00324204610BD417801230A025A
:102340008178C01C1143491C89B21A4600F0AAFECC
:102350000028F0D001F055FD0446ECE72DE9F041EE
:102360000D4609880024052926D9417843790A02B7
:1023700081781143491C8EB2C178027942EA012268
:10238000510704D0012101EBD201C9B201E0C2F32F
:10239000C701571EB7F5F66F0ED299420CD1012333
:1023A0003146801D00F0F4FD18B101F02AFD04460D
:1023B00003E00520288000E003242046BDE8F081EA
:1023C00070B50D460988002406291DD341780A02FC
:1023D00081781143C278491C1302027989B21A43E9
:1023E0004379561E772E0FD85606360E9E420BD1D5
:1023F0000123801D00F056FE18B101F002FD0446D5
:1024000003E00520288000E00324204670BD000082
:102410002DE9F0411D46069B1746064629B1F729CE
:1024200003D8134C084621710EB102251BE0114957
:102430002161114961611149E1601149A1610021E6
:10244000E16110492162104961621049A1622A4686
:10245000394600F0FDFC050005D102F0ADFC28B1C5
:102460006671012020702846BDE8F0810325FAE757
:10247000A4000020512F0008752F0008E52E000849
:10248000992E0008054F00088D4F0008654F000881
:1024900070B5064D00246878012802D00624204635
:1024A00070BD6869804700206870F8E7CC010020A3
:1024B000F8B50E460546002402F052FC28BB3088D1
:1024C000022823D3684601F01DFE009841780A02D5
:1024D00081781143C278491C1302027989B21A43E8
:1024E000500704D0012000EBD200C0B201E0C2F3DB
:1024F000C7005AB16B78834208D10023A81C00F0B2
:10250000DDFA10B101F07DFC044600E00324204612
:10251000F8BDF8B50E460546002402F021FC20BBAC
:102520003088022822D3684601F0ECFD00984178FB
:102530000A0281781143C278491C1302027989B2D8
:102540001A43500704D0012000EBD200C0B201E0D2
:10255000C2F3C70052B16B78834207D1A81C00F0C8
:10256000EBFA10B101F04DFC044600E003242046D4
:10257000F8BDF8B50E460546002402F0F1FBF8B9A7
:10258000308802281BD3684601F0BCFD00984178D2
:102590000A0281781143C278491C1302027989B278
:1025A0001A430CD06878B0EB420F08D10023A81C66
:1025B00000F000FB20B101F024FC044600E00324FD
:1025C0002046F8BDF8B50E460546002402F0C8FBCB
:1025D000F0B9308802281AD3684601F093FD0098BC
:1025E00041780A0281781143C278491C13020279AA
:1025F00089B21A430BD06878B0EB420F07D1A81C00
:1026000000F00CFB20B101F0FCFB044600E00324C9
:102610002046F8BDF8B50D460646002402F0A0FBA2
:1026200068BB288802282CD3684601F06BFD00980F
:10263000417805790A0281781143491C8FB2C1782B
:1026400045EA012541790A0281791143C279491C81
:102650001302027A89B21A437378B3EB450F0FD194
:1026600001230A3000F0A6FA30B900232A46394681
:10267000B01C00F09FFA10B101F0C3FB044600E06B
:1026800003242046F8BD38B50988002405290BD15C
:1026900041780A0281781143491C027989B21AB93A
:1026A000C278FF2A03D012B10324204638BD00228D
:1026B0008DF80120C078FF280CD08DF80020012370
:1026C0001A46684600F0FAF90028EED001F099FBAE
:1026D0000446EAE701208DF80000F0E710B509880C
:1026E0000024052902D00324204610BD417801238F
:1026F0000A028178C01C1143491C89B21A4600F0B5
:1027000059FA0028F0D001F07CFB0446ECE738B51C
:10271000054608880024052802D002F021FB18B3E2
:10272000684601F0EFFC68782A790102A87808432E
:10273000401C81B2E87842EA0022009853074579AC
:1027400004D0012303EBD203DBB201E0C2F3C703E1
:1027500052B1AB4208D10123801D00F0AFF920B186
:1027600001F04FFB044600E00324204638BD38B595
:1027700008880024052802D002F0F2FAD0B1684699
:1027800001F0C0FC009841780A0281781143C278B8
:10279000491C1302027989B21A434379B3EB420F01
:1027A00008D10123801D00F005FA20B101F029FBBA
:1027B000044600E00324204638BD000070B51546ED
:1027C0000E4608B102251FE0124C11481A466061FE
:1027D0001148A061114820611148E0610020206289
:1027E000104860621048A0621048E06229463046F6
:1027F00000F0C2F8050007D102F06EF930B10120F7
:1028000084F8010001F084FC284670BD0325F9E737
:102810007D2A0008CC010020A12A00080D2A00080A
:10282000C12900082D4C0008F94C0008954C0008FF
:10283000F8B5504C607818B1032801D00620F8BDD7
:10284000684602F02BF9002810D0BDF800000428DB
:102850001FD004DC012807D0022807D107E0082890
:1028600056D0102802D15FE00320607080E0414A1A
:10287000E3690832111D901F984728B9A078617943
:10288000884201D1042001E001203BE002F02EF952
:102890006EE0E16801220878E0702271C20902D07E
:1028A000487820712BE0334F0026303717F8361068
:1028B00009B3814220D10120207002F051FA80B189
:1028C00001F08EFB2081012507EBC60665712949C1
:1028D00072680831E06890476D1C2071102DF5DD9D
:1028E00007E007EBC600234942680831E0689047DB
:1028F00020710020207002E0761C102ED6DB20799B
:1029000018B10220A0711020C0E701F0DBFB2DE020
:1029100018480C3001F0F6FB01F062FBD4E9031318
:1029200002466079984723E01248A5790C3001F0FF
:10293000E9FB25B1012D0AD0022D17D10FE001F0DE
:102940004FFB02466079E16801F0D4FB0EE001F034
:1029500047FB02466079E16801F0C4FB06E001F044
:102960003FFB02466079E16801F0B4FB01F066FCD0
:102970000020F8BDCC0100202DE9F04116460D469F
:1029800007460024FDF78FFD3346082229463846C6
:1029900002F0C0F860B1B5F5964F01D9232003E0ED
:1029A00006496800B1FBF0F080B202F01FF900B9EF
:1029B0000324FDF77BFD2046BDE8F081A07F1700D2
:1029C0002DE9F0411646884607460025FDF76BFDC8
:1029D0000C4C2089042804D321890B4801F0EAFA21
:1029E00028B10525FDF762FD2846BDE8F0810648BF
:1029F000007838702089C01E30800348401CC8F819
:102A00000000EFE7BC010020106E00202DE9F0412E
:102A1000002590460F460646102802D90220BDE840
:102A2000F081FDF740FD134CA078012804D0052566
:102A3000FDF73CFD2846F2E7781E0127E060E780BD
:102A40000670E28802EB0801E180E18801F0B2FA49
:102A5000E188094A5318491CE1801870010AE0888E
:102A60000244401CE080117067700121002001F0D9
:102A70005DFBDDE7BC010020136D002010B5FDF704
:102A800012FD0649002088700146012001F04EFB2E
:102A900001F0B6FBBDE81040FDF708BDBC01002009
:102AA00010B5FDF700FD0021084601F03FFB01F0E5
:102AB0007FFBBDE81040FDF7F9BC00002DE9F047B1
:102AC0000C469046012106464FF0000901EBD8055F
:102AD00001F06AFA1649641E01EBC0071548083F69
:102AE0004188A0B200EB0802402A1BD8401AC0F36C
:102AF000CC0400F0070A0AE03819641C16F8013B00
:102B0000A4B20822514602F07AFA6D1EADB2012D30
:102B1000F2D818F0070207D033783819514602F07E
:102B20006EFA01E04FF001094846BDE8F087000069
:102B30008A520020800100202DE9F0470C46904683
:102B4000012106464FF0000901EBD80501F02CFAEF
:102B50001649641E01EB40071548BF1E0188A0B24C
:102B600000EB0802102A1BD8401AC0F3CC0400F076
:102B7000070A0AE03819641C16F8013BA4B20822BF
:102B8000514602F03CFA6D1EADB2012DF2D818F09C
:102B9000070207D033783819514602F030FA01E0C5
:102BA0004FF001094846BDE8F08700006A52002056
:102BB000800100202DE9F04115460F46044600260D
:102BC00001F0F2F900EBC00101EB001011497F1E8A
:102BD00001EBC0011048C839C288B8B24319642B50
:102BE00013D8801A80B20DE014F8012B120221F8DC
:102BF000102014F8013B1A4321F81020401C6D1ED0
:102C000080B2ADB2002DEFD100E001263046BDE824
:102C1000F08100008A5F0020800100202DE9F04152
:102C200015460F460446002601F0BEF900EBC00130
:102C300001EB001011497F1E01EBC0011048C8399B
:102C40008288B8B24319642B13D8801A80B20DE081
:102C500014F8012B120221F8102014F8013B1A433A
:102C600021F81020401C6D1E80B2ADB2002DEFD1B6
:102C700000E001263046BDE8F08100000A53002044
:102C800080010020F8B514460D460646102801D9EB
:102C90000220F8BD184602F069F8B8B1684601F0A4
:102CA00031FA304601F0D6FA009803210170290A62
:102CB00041708570210AC1700471052001F0D6FAB7
:102CC000082001F013FF00F04BF8F8BD0520F8BD17
:102CD0002DE9F8438046002408981F4615460E4605
:102CE000B8F1100F02D90220BDE8F88302F03EF8D7
:102CF000B8B1684601F006FA404601F0ABFA009818
:102D0000102100F8011B310A00F8011B290A00F804
:102D1000016B00F8031B690000F8025C00F8011C5D
:102D20000FE00520E0E700BF37F81400010A009823
:102D300000F8011B009017F81410641C00F8011B28
:102D4000A4B20090A542EFD8062000EB450080B267
:102D500001F08CFA082001F0C9FE00F001F8C3E789
:102D600010B50D480024631E22464FF4F0714068F0
:102D700000F0B8FA202D0CD0402D05D0802D05D0C4
:102D8000B5F5807F05D103E0042402E0032400E0D0
:102D90000624204610BD00009801002038B52B4CB9
:102DA000207808B1062038BD684601F0EDFF70B309
:102DB0009DF80000012846D0022802D0042842D104
:102DC0000FE0224AA369921D911CC81F9847F0B9D1
:102DD00060782179884200D0C8B9042001F0F6FF5C
:102DE00031E0A0680121194B0278A270E170002146
:102DF00013F12C0313F831506DB1954208D103EB58
:102E0000C1014A681149891D9047E07003E01AE04A
:102E1000491C1029EEDB6078A8B1E07870B1002180
:102E2000E180A17841F08002A1680A70E288521C1A
:102E300092B2E2808854E088401CE080D4E902131A
:102E4000E28820799847002038BD0000A4000020C7
:102E50002DE9F0411F4615460E460024FDF723FBE1
:102E60003B4608222946304601F0C4FF60B1B5F563
:102E7000964F01D9232003E006496800B1FBF0F02A
:102E800080B202F021F800B90324FDF70FFB2046C1
:102E9000BDE8F081A07F17002DE9F0411646884675
:102EA00007460025FDF7FFFA0C4CA088042804D340
:102EB000A1880B4801F07EF828B10525FDF7F6FA48
:102EC0002846BDE8F081064800783870A088C01E0A
:102ED00030800348401CC8F80000EFE7980000204D
:102EE000D04E00202DE9F04190460E4607460025C1
:102EF000FDF7D9FA144C6078012806D05FF005057B
:102F0000FDF7D4FA2846BDE8F081701E0126A060C6
:102F100066800770628802EB08016180618801F0B9
:102F200049F86188094A5318491C61801870010AE0
:102F300060880244401C60801170267001210020CE
:102F400001F09AF9DCE7000098000020D04E002044
:102F500010B5FDF7A8FA0649002048700146012087
:102F600001F08AF901F0C6F9BDE81040FDF79EBAFC
:102F70009800002010B5FDF796FA0021084601F0F0
:102F80007BF901F0A5F9BDE81040FDF78FBA00000C
:102F90002DE9F04704460120244F00EBD206A7F1AB
:102FA0000A00491E458888B281184FF0000940295F
:102FB00036D8401BC0F3CC0500F0070A02F0070822
:102FC0006BB1012B2ED120E078196D1CADB2082217
:102FD000514602F003F8761E04F8010BB6B2002E3B
:102FE000F2D114F8012DC8F108018A40D0B2C840CE
:102FF000207017E078196D1C14F8013BADB208225F
:10300000514601F0FCFF761EB6B2012EF2D85FEAFF
:10301000080207D023787819514601F0F0FF01E04B
:103020004FF001094846BDE8F08700005A01002032
:103030002DE9F047044617460120DFF8649000EBC5
:10304000D705A9F10800491E028888B2C1194FF0BE
:10305000000810291FD8801AC0F3CC0600F0070A18
:103060000CE000BF09EB0600761CB6B20822514600
:1030700001F0B4FF6D1E04F8010BADB2002DF1D1CB
:1030800007F0070014F8012DC0F108018A40D0B202
:10309000C840207001E04FF001084046BDE8F087CD
:1030A00058010020F0B51A4E491E89B20025174C70
:1030B000F6888F18642F26D8891B89B27BB1012B23
:1030C00022D11DE034F811301B0A00F8013B14F83E
:1030D0001130491C521E00F8013B89B292B2002AFD
:1030E000F0D111E010F8013B1B0224F8113010F868
:1030F000016B334324F81130491C521E89B292B23D
:10310000002AEFD100E001252846F0BD98500020AC
:103110005001002070B5114D491E89B200240E4B9C
:10312000AD888E18642E13D8491B89B20DE000BFFC
:1031300033F811502D0A00F8015B13F81150491CA7
:10314000521E00F8015B89B292B2002AF0D100E071
:103150000124204670BD0000D04F00205001002007
:1031600013B54FF6FF73012269460248FEF71FFAB6
:1031700000981CBD2C030020FDF7F2FBFEF76EFC4F
:10318000FEF7BCFAFEF77AFAFEF732FBFEF74CFBCD
:10319000FEF70CFBFEF764FB00F0E2F8FEF78CFA9A
:1031A00000F0F8F8FEE7000010B5EFF3058179B9FB
:1031B000EFF3108111B9EFF3118119B106490968D4
:1031C000022905D0002408B101F0AEF9204610BD57
:1031D0006FF00504FAE700006C00002070B50E46A1
:1031E000050002D0300E002802D06FF0030410E07A
:1031F000EFF3058078B9EFF3108010B9EFF3118089
:1032000018B10B480068022805D0284601F01AFBC7
:103210000446204670BD284601F060FB0446314656
:10322000284601F02FFB0028F3D1C41EF1E700006F
:103230006C00002010B54FF00001EFF30582BAB921
:10324000EFF3108212B9EFF311821AB1094A126832
:10325000022A0DD048B1D0E902202AB1202807D394
:10326000104601F025FB02E010B901F013FB014606
:10327000084610BD6C00002038B50C4610B1210E78
:10328000002902D06FF0030038BDEFF3058169B962
:10329000EFF3108111B9EFF3118119B10F490968EA
:1032A000022903D0214601F026FB38BD0021009100
:1032B0006A46214601F066FB60B10099204600296C
:1032C000F3D0074A4FF080511160BFF34F8FBFF327
:1032D0006F8F38BD6FF0020038BD00006C00002019
:1032E00004ED00E0F8B51D4616460C4610B1210E5F
:1032F000002902D06FF00300F8BDEFF3058169B932
:10330000EFF3108111B9EFF3118119B11349096875
:10331000022903D0F10704D0012303E06FF0050078
:10332000F8BD0023B10701D5002200E001222146AB
:10333000009501F02FFBF3076FF001016FF002021F
:1033400006D0844206D1F8BD0846F8BD1046F8BD47
:103350000442FCD1002DF9D0F6E700006C000020FB
:10336000EFF3058068B9EFF310820949086812B9D4
:10337000EFF311820AB1022803D028B14FF0FF30D9
:1033800070476FF00500704701200860002070470B
:103390006C00002010B5EFF3058070B9EFF31082D8
:1033A0000A49086812B9EFF311820AB1022804D061
:1033B000012805D04FF0FF3010BD6FF0050010BDA3
:1033C0000220086001F0C0F9002010BD6C00002050
:1033D000F8B50D460024211F4E1C002817D000BF51
:1033E000EFF3058292B9EFF3108212B9EFF3118275
:1033F0001AB1134A1268022A08D0294602F0ACF921
:1034000001280ED065B16FF001040AE00DB10C4641
:1034100007E000216A46009102F050F9012802D02D
:1034200034462046F8BD00980028FAD005494FF0F0
:1034300080500860BFF34F8FBFF36F8FF1E700003C
:103440006C00002004ED00E0F8B5144603460E467B
:103450004FF00005EFF30580E8BBEFF3108010B9E3
:10346000EFF3118018B123480068022840D093B3CD
:103470009E423DD84CB1A0680028E06803D0502897
:1034800036D3012002E008B132E00020012B05D044
:1034900010B31846A26801F05EFE20E040B10320A0
:1034A0000090002211460120A36801F098FE04E07C
:1034B00003220021012001F06EFE050018D086B124
:1034C00000231A46194601F001FF012809D02846B9
:1034D00000F0DCFF00250BE0184601F01FFE0500A0
:1034E00006D00CB1216800E00021284600F0BAFFA8
:1034F0002846F8BD6C00002038B50024E51E0028E1
:1035000004D000BFEFF30581B9B902E06FF0030406
:1035100011E0EFF3108111B9EFF3118119B11049E6
:103520000968022909D000231A46194601F0CEFE87
:10353000012800D02C46204638BD00210091694664
:1035400001F0D2FF0128F5D100980028F3D00549F9
:103550004FF080500860BFF34F8FBFF36F8FEAE7E3
:103560006C00002004ED00E02DE9FF414FEA01036B
:103570004FF00005EFF30581039599BBEFF3108140
:1035800011B9EFF3118119B11F490968022938D027
:1035900040B38026182100244AB3176807B13C467F
:1035A00097691FB139467F1E382F02D21779FF075E
:1035B00003D0002004B0BDE8F081576907B1BE0810
:1035C000D2F808C0BCF1000F0DD0D5685C2D18D31F
:1035D00012693AB137B18DE806103246214602F041
:1035E000DEF903900DE0D7685FB912694AB903AA02
:1035F000CDE90012B2B2214602F0A4F9012800D0B0
:1036000003950398D6E700006C0000202DE9F041F7
:10361000134C0F46054666692068001D00F0E6FC65
:10362000681C07D137B12168BDE8F0410D48091D7C
:1036300000F03CBD20683544B5424560216805D2A4
:10364000A068BDE8F041091D00F018BD6068091DC3
:1036500000F014FD206B854200D22563BDE8F081A7
:103660001C000020CC0A00202DE9F041054600F0A6
:103670005BFE2D4C2069401C206120682B4F10B14F
:10368000E06930B32BE025602069012827D10026AE
:1036900006EB860007EB800000F0E2FC761C382E7B
:1036A000F6D3234800F0DCFC2148143000F0D8FCAD
:1036B0001F48283000F0D4FC1D483C3000F0D0FCFE
:1036C0001B48503000F0CCFC194860601430A060FA
:1036D00005E02068E96AC06A884200D82560E06A8F
:1036E000401CE0626864E86AA169884200D9A06170
:1036F00000EB800007EB8000291D00F0D7FC00F0F4
:1037000033FEE06900280CD02068E96AC06A88426C
:1037100007D208494FF080500860BFF34F8FBFF3C6
:103720006F8FBDE8F08100001C0000201C06002007
:103730007C0A002004ED00E038B500F0F5FD104CE7
:10374000A068C8B90F4800F08BFC0E48143000F098
:1037500087FC0C482060143060600A4B002028333E
:10376000009003F1500210210A2001F038FDA06002
:1037700010B105A100F076FEBDE8384000F0F4BDC0
:1037800058000020E00A0020546D72510000000033
:1037900030B4026C0B46002A0BD0C1681144C160E2
:1037A0008468A14201D30168C16030BC1846FCF7AF
:1037B00098BD30BC70472DE9F041856B1746044633
:1037C0000026026C82B1C7B1E068FCF78AFDE168AF
:1037D000206C091AE1602268914202D2A168081A9D
:1037E000E060022F16D017E02068A8B9A06802F0A8
:1037F00081F906460020A0600EE06068FCF771FDCC
:10380000216C606808446060A168884204D3206825
:10381000606001E005B16D1E6D1CA5633046BDE81A
:10382000F08110B5044690F8590058B101280CD029
:1038300002280FD0502080F31188BFF34F8FBFF3C1
:103840006F8FFEE7206B00F0A3FD2046BDE810401F
:1038500000F09EBD10BD000010484FF470514207AB
:1038600006D0C01D0D4920F00700411AC1F5705166
:103870000B4A00230144C2E900030839103A21F041
:10388000070111604B600B600B1AC0E900139360D5
:103890004FF000405360D06070470000B01200202D
:1038A00080000020144E154CA6F29C474FF0805823
:1038B000DFF84C9012E000BF00F036FDF068C568FC
:1038C000281D00F093FB2069401E2061E068401E27
:1038D000E06000F049FD2846FFF7A3FFE0680028FC
:1038E000EAD138680128F9D9C9F80080BFF34F8FB1
:1038F000BFF36F8FF2E70000B80A00201C00002021
:1039000004ED00E070B51D46049C51B1C4F80020E0
:10391000C4E90F010121204601F094FC84F84C50C9
:1039200070BD2460F4E700002DE9F05F8846DDE912
:103930000B941546834691009A460A9EA522206B59
:10394000FCF7E1FC6FF00301206B01EB85010844FB
:1039500020F00707780707D0502080F31188BFF3C5
:103960004F8FBFF36F8FFEE70025B8F1000F0FD028
:103970005FF00000221818F8001082F8341018F8D0
:10398000001011B1401C1028F4D384F8435001E01A
:1039900084F83450382E00D33726E662C4E9136524
:1039A000201D00F068FB04F1180000F064FB2461A6
:1039B000C6F138006462A061656584F858505246CB
:1039C0005946384600F0A2FA2060B9F1000F01D044
:1039D000C9F80040BDE8F09F2DE9F0471E46DDE93B
:1039E000089417460D00804615D0002C11D0FFF723
:1039F000A3FE04F11801C4F8008081E86002201DD4
:103A000000F039FB002F04D014F8280F40F0040018
:103A10002070BDE8F087502080F31188BFF34F8FEE
:103A2000BFF36F8FFEE7000030B5114900E011468B
:103A30000A688242FBD34B685C18844203D1406819
:103A400018444860084643681C18944209D1084C41
:103A5000103C2468A24209D052681A4442600A68A5
:103A600012680260814200D0086030BD0460F9E74E
:103A70008000002070B5002441600B4D0061914230
:103A800006D8D11A8269914206D2011D686807E002
:103A90009A4203D2994201D3012403E0011D286810
:103AA00000F0ECFA204670BD5800002010B5044626
:103AB00000F03AFCA06B28B15FF0000400F054FC69
:103AC000204610BD0124F9E730B589B03C4D6EE0C9
:103AD0000498002806DADDE90601059A9047049863
:103AE000002864DB069C606910B1201D00F07EFA9E
:103AF00003A800F0D7F8024604980A2857D2DFE856
:103B000000F00505052D334A05052D3394F82800EE
:103B100040F0010084F828000599A069059B014444
:103B20002046FFF7A7FF68B3216A2046884794F82C
:103B3000280040073BD5002000900598A16900238C
:103B400042181946204602F035F9D8B9502080F3C2
:103B50001188BFF34F8FBFF36F8FFEE714F8280F64
:103B600020F00100207022E094F8280040F00100CD
:103B700084F828000598A06128B1811813462046D2
:103B8000FFF778FF13E0502080F31188BFF34F8FC9
:103B9000BFF36F8FFEE794F82800810703D4204617
:103BA00000F0F6FB03E020F0010084F8280000227A
:103BB00004A9A86801F0E6FC002889D109B030BD4D
:103BC000580000202DE9FC410F46054600F000FE9C
:103BD00001A800F067F80446019818B102F03EF819
:103BE000BDE8FC81254EAFB170680068D0B30027F6
:103BF000291B3A46B06800F075FC02F02FF8002847
:103C0000EED11F494FF080500860BFF34F8FBFF3D4
:103C10006F8FE5E7A542EBD802F020F83068274621
:103C2000C068C468201D00F0E1F994F8280041073D
:103C300019D5A0692B4641193A462046FFF71AFFCD
:103C4000A8B100200346014600902A46204602F013
:103C5000B1F860B9502080F31188BFF34F8FBFF3E4
:103C60006F8FFEE707E020F0010084F82800216A4A
:103C700020468847B4E70127BAE700005800002033
:103C800004ED00E006484168096829B14168C96847
:103C9000C9684968016370474FF0FF31FAE70000D7
:103CA0001C00002070B5054601F0B2FE064E044629
:103CB0003069844203D200F009F8012000E00020BE
:103CC00028602046346170BD58000020F8B5194DB9
:103CD00020E0C068C4680668201D00F087F9216AEA
:103CE0002046884794F82800400713D5A06930443F
:103CF000B04206D924616060211D286800F0BEF939
:103D000008E000200346014600903246204602F0BB
:103D100051F838B1286801680029DAD16968C5E925
:103D20000010F8BD502080F31188BFF34F8FBFF310
:103D30006F8FFEE75800002008484068401C4FF095
:103D4000500080F3118804D0BFF34F8FBFF36F8F03
:103D5000FEE7BFF34F8FBFF36F8FFEE788000020B1
:103D60000346002012B1994302D070470B42FCD0A9
:103D700001207047074C2068016841B1C0680021EC
:103D8000D0F80000FFF71EFFFFF79EFEF3E70121CA
:103D90000020F7E7580000202DE9F041044600F02C
:103DA000C3FA94F9455004F1240609E0606A48B169
:103DB000304601F01BFF08B100F0E4FB6D1E6DB250
:103DC000002DF3DC4FF0FF3684F8456000F0CCFAAC
:103DD00000F0AAFA94F9445004F1100709E02069B0
:103DE00048B1384601F002FF08B100F0CBFB6D1E70
:103DF0006DB2002DF3DC84F84460BDE8F04100F0C2
:103E0000B3BA002804D0012803D0072803D0042027
:103E10007047022070470620704700002DE9F041EE
:103E20000546002700F0D4FC314E306808B9FFF792
:103E300013FDF06805424BD1C5B3083568070ED0B5
:103E400005F00700C0F108000544680707D05020BE
:103E500080F31188BFF34F8FBFF36F8FFEE72DB351
:103E60007068854234D82248103001460C6801E061
:103E700020460C466168A94202D221680029F7D188
:103E800031688C4224D00768216801606068083777
:103E9000411B10290FD96019420708D0502080F328
:103EA0001188BFF34F8FBFF36F8FFEE710E04160C3
:103EB0006560FFF7B9FD61687068401A7060B268AC
:103EC000904200D2B060F06801430020C4E90001D4
:103ED00001F0C4FE780707D0502080F31188BFF3AB
:103EE0004F8FBFF36F8FFEE73846BDE8F0810000CB
:103EF000700000200449086818B10868026D521C5F
:103F000002650868704700001C00002010B5031F00
:103F10004FF080741C601B1F21F001011960191FF4
:103F2000044B0B6014390A60091F6FF00202443819
:103F30000A6010BD393D00080020FFF77BF9074CEF
:103F4000074D4FF0FF366060334602220121606862
:103F5000FFF7C8F928688047F6E7000068010020ED
:103F6000C80000200020FFF765F9074C074D4FF00F
:103F7000FF3660603346022201216068FFF7B2F924
:103F800028688047F6E70000A0010020F401002027
:103F90000148006800470000CC000020014800688C
:103FA00000470000F80100200148407970470000F8
:103FB000CC01002070B5094DFF231A4605F5807627
:103FC00006E000BF10F8014B54402A5D5A40335DB3
:103FD000491E89B2F6D242EA032070BDE45E0008B1
:103FE0000148808870470000BC010020D0E9013200
:103FF00001699A60D0E901235A604A68824201D17E
:1040000082684A60002202610868401E08600868F1
:1040100070470000044908680A688069D26A096824
:10402000C2F138028A6170471C000020034B036014
:1040300003F15C000860802010607047F80B0020DE
:10404000044B036003F15C0008604FF48070106063
:1040500070470000540E002000F0F4BB00F04BBC91
:1040600000F108014FF0FF32C0E90112C1600161A7
:1040700000210160704700210161704730B50B6875
:104080005A1C02D000F1080202E0026904E0224654
:10409000546825689D42FAD953684B6099608A60DC
:1040A000516008610168491C016030BD42684A6086
:1040B00093688B6093685960916008610168491C3E
:1040C00001607047024820214068FFF7D5B8000022
:1040D0009801002002484FF480714068FFF7CCB887
:1040E00098010020024880214068FFF7C5B8000011
:1040F00098010020024840214068FFF7BDB8000049
:10410000980100200149016070470000146D0020F3
:1041100010B50121034A0846FFF796F902490860E5
:1041200010BD0000E46000089801002070B50D4645
:10413000124B134C4FF4804150B1A0680068C26824
:1041400042F02002C26000221846FCF7F6FB09E0AC
:1041500001221846FCF7F1FBA0680068C16821F055
:104160002001C16060684FF001011DB1BDE87040E1
:10417000FFF782B8BDE87040FFF730B80004024096
:10418000A001002038B5C824022000F05DF8FDF73A
:104190006EFA0021054D0B462246009108B1092117
:1041A00000E00421686801F005FE38BDB40100207C
:1041B00038B5FDF75CFA0021054C0B460A46009124
:1041C00008B1082100E00321606801F0F3FD38BD6B
:1041D000B401002038B56424012000F035F8FDF763
:1041E00046FA0021054D0B462246009108B10921EF
:1041F00000E00421686801F0DDFD38BDB401002055
:1042000038B50D4C3221208848434FF47A71B0FB09
:10421000F1F500206D1C00F017F8FDF728FA0021D9
:104220000B462A46009108B1092100E0042160688C
:1042300001F0C0FD38BD0000B40100200148006855
:10424000FFF75AB9980100200149C8707047000073
:10425000BC0100200149487170470000CC010020DA
:104260000149887170470000CC0100200149888015
:1042700070470000BC01002070B50D46124B134C76
:104280004FF4005150B1A0680068C26842F02002AB
:10429000C26000221846FCF750FB09E001221846D4
:1042A000FCF74BFBA0680068C16821F02001C160E9
:1042B00060684FF001011DB1BDE87040FEF7DCBF42
:1042C000BDE87040FEF78ABF00040240680100208C
:1042D00038B5FDF7CCF90021054C0B460A46009194
:1042E00008B1082100E00321206801F063FD38BD1A
:1042F0007C01002038B5FDF7BAF90A4D002430B131
:1043000001F08CFB002302460621009405E001F039
:104310007FFB0023024601210094286801F04AFD3A
:1043200038BD00007C010020502080F31188BFF3CD
:104330004F8FBFF36F8F0A494868401C48600128BF
:104340000CD10848006810F0FF0F07D0502080F310
:104350001188BFF34F8FBFF36F8FFEE770470000E8
:104360008800002004ED00E00849486828B1401E9C
:10437000486001D180F311887047502080F3118884
:10438000BFF34F8FBFF36F8FFEE700008800002060
:1043900070B5002827D0144DA0F108046168E868C2
:1043A000014207D1502080F31188BFF34F8FBFF334
:1043B0006F8FFEE722683AB1502080F31188BFF377
:1043C0004F8FBFF36F8FFEE78143616000F000FA0B
:1043D00060686968084468602046FFF725FBBDE80F
:1043E000704001F03BBC70BD700000204FF0E02039
:1043F00000210161816105494FF47A720968B1FBBE
:10440000F2F1491E41610721016170471800002047
:1044100010B5FBF71FFF114910280ED300F1E02063
:1044200090F8F0030A78904207D2502080F3118868
:10443000BFF34F8FBFF36F8FFEE7094800688968AD
:1044400000F4E060884207D9502080F31188BFF360
:104450004F8FBFF36F8FFEE710BD00008800002074
:104460000CED00E010B5084B002200BF53F83240BD
:104470001CB1521C082AF9D310BD43F8321003EBCB
:10448000C201486010BD0000DC05002010B504002A
:104490000AD000F013F894F8460000280CD120460A
:1044A000BDE81040FFF774BF502080F31188BFF3C0
:1044B0004F8FBFF36F8FFEE710BD0000084A002149
:1044C00002EBC1035B68834206D1002042F8310051
:1044D00002EBC10148607047491C0829F0D37047BE
:1044E000DC05002070B515460E460446FFF71CFF9C
:1044F00094F944100020491C01D184F8440094F937
:104500004510491C01D184F84500FFF72DFFA06B31
:1045100028B92A46314604F1240000F051F820461B
:10452000BDE87040FFF738BC10B5020014D00F484A
:10453000806B38B1502080F31188BFF34F8FBFF3E9
:104540006F8FFEE700F044F900211046FFF75EF898
:1045500001F084FB002807D105494FF08050086026
:10456000BFF34F8FBFF36F8F10BD00001C00002002
:1045700004ED00E002498A6A0260496941607047BF
:104580001C00002001490120486270471C000020E7
:1045900010B50C4650B1094909681831FFF76EFD96
:1045A0002046BDE810400121FFF730B8502080F3CD
:1045B0001188BFF34F8FBFF36F8FFEE71C00002001
:1045C00070B514460D4668B10A4909681831FFF7FD
:1045D0006DFD0CB14FF0FF3521462846BDE8704017
:1045E000FFF714B8502080F31188BFF34F8FBFF34B
:1045F0006F8FFEE71C00002010B51446030011D099
:104600001048826BB2B1026841F0004191610168CB
:1046100018461831FFF74AFD2046BDE81040012139
:10462000FEF7F4BF502080F31188BFF34F8FBFF324
:104630006F8FFEE7502080F31188BFF34F8FBFF3D9
:104640006F8FFEE71C00002070B504003ED0226D85
:10465000A2B1E06C884200D30146E06A884235D0BE
:10466000012A33D11A4D2A6894420FD1502080F389
:104670001188BFF34F8FBFF36F8FFEE7502080F399
:104680001188BFF34F8FBFF36F8FFEE7E162A2691E
:10469000002A02DBC1F13801A1610E4E00EB80005F
:1046A000616906EB8000814210D1201DFFF79EFC5E
:1046B000E06AA969884200D9A86100EB800006EB96
:1046C0008000211DBDE87040FFF7F0BC70BD000008
:1046D0001C0000201C06002070B5194DAA6BF2B119
:1046E00041F000410160C4680CB3FFF77FFC201D5E
:1046F000FFF77CFCE06AA969884200D9A8611149EA
:1047000000EB800001EB8000211DFFF7CFFCE06A89
:104710002968C96A884201D90120686270BD5020A9
:1047200080F31188BFF34F8FBFF36F8FFEE75020E8
:1047300080F31188BFF34F8FBFF36F8FFEE7000048
:104740001C0000201C06002030B587B00024039414
:1047500005AA04A903A80494FFF768FCDDE9030196
:104760000094CDE90110002315A11748059A01F026
:1047700016F9164D002868631FD001F0EBFA0128E6
:1047800009D0401C19D1502080F31188BFF34F8FFE
:10479000BFF36F8FFEE7502080F31188BFF34F8F78
:1047A000BFF36F8F4FF0FF3028630120E8616C6129
:1047B00007B0BDE8304000F037BC07B030BD0000A6
:1047C00049444C4500000000A53800081C000020AA
:1047D0000248816B491C8163704700001C00002067
:1047E000164810B5816B11B10121416210BD002145
:1047F00041628169124A01E0B9B1491E01EB8103AE
:1048000052F82330002BF7D001EB810302EB830237
:1048100002F1080453685B685360A34201D15B68EE
:104820005360DA680260816110BD502080F3118806
:10483000BFF34F8FBFF36F8FFEE700001C00002017
:104840001C06002070B50E46040009D0300E0FD0B3
:10485000502080F31188BFF34F8FBFF36F8FFEE7B7
:10486000502080F31188BFF34F8FBFF36F8FFEE7A7
:10487000FFF75AFD256825EA06002060FFF774FD62
:10488000284670BD0A4601460023014801F0C6BA19
:104890005940000870B52020FFF7C0FA040005D089
:1048A0000025201D2560FFF7DBFB2577204670BD26
:1048B00038B558B120210446002000912060201D09
:1048C000FFF7CEFB01202077204638BD502080F333
:1048D0001188BFF34F8FBFF36F8FFEE75022EFF3C6
:1048E000118182F31188BFF34F8FBFF36F8F006880
:1048F00081F3118870472DE9F041002788460400B4
:104900000AD05FEA18600FD0502080F31188BFF3FF
:104910004F8FBFF36F8FFEE7502080F31188BFF3F6
:104920004F8FBFF36F8FFEE7261D04F10C05FFF7D5
:104930004FFF2168F06841EA0801216017E0D0E9E3
:10494000001601F07F425301236821F07F4102D419
:104950000B4203D10AE031EA030307D1D20100D5AB
:104960000F43216841F00071FFF7B6FE3046A842C0
:10497000E5D12068B843206001F070F92068BDE8F7
:10498000F081000013460A460146014801F046BA8C
:104990005D4000082DE9F0479A46DDF820909046EA
:1049A0000D4604004FF0000709D0280E0FD050200C
:1049B00080F31188BFF34F8FBFF36F8FFEE7502056
:1049C00080F31188BFF34F8FBFF36F8FFEE71DB1E8
:1049D00001F010F840B112E0502080F31188BFF3CD
:1049E0004F8FBFF36F8FFEE7B9F1000F07D0502054
:1049F00080F31188BFF34F8FBFF36F8FFEE7FFF790
:104A0000E7FE2668524629463046FFF7A9F930B13D
:104A1000B8F1000F1AD02068A843206016E0B9F161
:104A2000000F13D0B8F1000F01D04FF08077BAF12A
:104A3000000F01D047F0806745EA07014A46201D74
:104A4000FFF7DAFD01F00AF918B10AE001F006F902
:104A50001FE011494FF080500860BFF34F8FBFF344
:104A60006F8FFFF7D7FA0646800110D4FFF75CFC82
:104A70002668524629463046FFF772F928B1B8F148
:104A8000000F02D02068A8432060FFF76DFC26F0DD
:104A90007F463046BDE8F08704ED00E038B50446B7
:104AA0004FF0FF3000900B48002301221F21406887
:104AB000FFF770FF042809D004DC012806D0022883
:104AC00005D103E0082801D0102800D12080012062
:104AD00038BD00009801002010B50020FEF7AAFBA9
:104AE00001494860012010BD98010020014603489B
:104AF00010B54068FFF7FFFE012010BD98010020AF
:104B000010B5014601220248FBF7D2FC012010BD7E
:104B1000AC0100207CB5254C012808D0022802D029
:104B2000032802D003E0224800E02248A060A068E9
:104B30000025C560416033B14FF48051012B05D091
:104B4000022B0BD106E08560056107E081604FF420
:104B5000C06102E081604FF480610161FCF7DEFB1F
:104B600008B1FBF7A2FCA0680168CA6822F0200225
:104B7000CA600168CA6822F04002CA600E4A032176
:104B8000FCF7CCFC09480D490C300160C5808580DC
:104B900006490820CDE900018201002308A10C4844
:104BA00000F0D0FE012800D000207CBDA001002034
:104BB0009803002004040020B51800080A6C0020A7
:104BC0006D6173746572207472616E730000000011
:104BD000653F0008044989680A68506008680168F0
:104BE0004906FCD501207047A001002038B5094CCA
:104BF00032210123208048434FF47A71B0FBF1F158
:104C000005480090002205A0491C01F089F8606069
:104C1000012038BDB40100209D3F00084D61737430
:104C200065722074696D657200000000F8B5002699
:104C30006846FFF765FF154CA07830B1144D012888
:104C400007D0022813D0032801D1FFF7D9FA304644
:104C5000F8BDFFF7ADFA0020607020819DF80010CC
:104C600020892A18401C2081117002200BE0208925
:104C7000FF2807D89DF8001020892A18401C2081A1
:104C80001170E2E70320A070DFE70000BC01002004
:104C9000106E002070B5174D0024A87820B10228AE
:104CA00003D0032804D109E00120FFF71FFF0446C9
:104CB0000120A870687802280ED104E00120FFF7D7
:104CC000CFFA1020F1E7287830B90020FFF7C8FAB2
:104CD0001020FFF70BFF044600206870FFF768FA0A
:104CE000E878022803D10420FFF700FF044620469D
:104CF00070BD0000BC01002070B5174C0025607825
:104D000010B1012826D104E000210120FFF70EFA9E
:104D100020E0E08850B1E0680078FFF75BFFE068D2
:104D2000401CE060E088401EE08013E00B48007803
:104D300060B10020207000210120FFF7F7F9022068
:104D40006070207820B1FFF71DFA03E00120F1E741
:104D5000FFF740FA284670BDBC010020136D00200B
:104D60000148007870470000BC010020054A10B5DA
:104D7000126801461046FEF72BFB08B1002010BD5B
:104D8000012010BD9801002010B5044609484FF0DD
:104D9000FF3300220F210068FEF7A4FA012805D096
:104DA000022803D0042801D0082800D12070012057
:104DB00010BD00006401002010B50020FEF73AFA93
:104DC00001490860012010BD64010020014603482C
:104DD00010B50068FEF750FA012010BD64010020F4
:104DE00010B5014601220248FBF762FB012010BD0D
:104DF000740100207CB5254C012808D0022802D07F
:104E0000032802D003E0224800E02248A060A06806
:104E10000025C560416033B14FF48051012B05D0AE
:104E2000022B0BD106E08560056107E081604FF43D
:104E3000C06102E081604FF480610161FCF76EFAAD
:104E400008B1FBF732FBA0680168CA6822F02002B3
:104E5000CA600168CA6822F04002CA600E4A032193
:104E6000FCF75CFB09480D490C300160C58085806A
:104E700006490520CDE9000100234FF4007208A186
:104E80000A4800F05FFD01207CBD000068010020A1
:104E900098030020040400206919000860510020D4
:104EA000736C617665207472616E7300393F00081F
:104EB000044989680A685060086801684906FCD599
:104EC0000120704768010020322148434FF47A7175
:104ED000B0FBF1F108B5064800900223002205A0BE
:104EE000491C00F01DFF06490860012008BD0000B4
:104EF000913F0008536C6176652074696D6572009E
:104F00007C01002038B500246846FFF769FF13498B
:104F1000487830B1124A012807D0022810D003285F
:104F200001D1FFF7E7F9204638BD002088809DF8C1
:104F3000003088880244401C8880137002200BE0F7
:104F40008888FF2807D89DF8003088880244401CD4
:104F500088801370E5E703204870E2E7980000209E
:104F6000D04E002070B5084D0024687810B102289A
:104F700004D100E00120FFF729FF0446FFF7A8F95C
:104F800001206870204670BD9800002070B5124C5A
:104F90000025207810B101281CD104E00021012057
:104FA000FFF76AF916E0608850B1A0680078FFF753
:104FB0007FFFA068401CA0606088401E608009E000
:104FC0000820FFF703FF054600210120FFF754F9F1
:104FD00000202070284670BD9800002010B5CB0836
:104FE0005C4201EBC40401219140C25C184440784A
:104FF00042EA0020E040491E0840C0B210BD70B532
:10500000CC08654201EBC505AB4001219140491E2A
:10501000A9400519025D6E7842EA06228A431A43C6
:105020000255100A687070BD1CB537480168374AD0
:10503000914207D1502080F31188BFF34F8FBFF307
:105040006F8FFEE700683149491E884207D1502022
:1050500080F31188BFF34F8FBFF36F8FFEE72C49AA
:1050600008780190FF20087008788DF800009DF8FE
:1050700000009DF8002000F0F000904207D0502082
:1050800080F31188BFF34F8FBFF36F8FFEE79DF85A
:105090000000204B00F0500018700720986005E0D9
:1050A0009DF8002052008DF80020401E9DF8002041
:1050B0001206F5D49860032807D0502080F3118899
:1050C000BFF34F8FBFF36F8FFEE74FF440709860D0
:1050D000019808700C482030016841F470010160AB
:1050E000016841F070410160FFF780F900205860CD
:1050F000FBF778F80848016841F040410160FBF790
:105100005DF800201CBD000000ED00E071C20F4101
:1051100000E400E08800002034EF00E010B50C4609
:1051200048B184420FD9502080F31188BFF34F8FCC
:10513000BFF36F8FFEE7502080F31188BFF34F8FCE
:10514000BFF36F8FFEE70222002100F024F8002851
:1051500000D0846310BD38B50C4648B184420FD9E5
:10516000502080F31188BFF34F8FBFF36F8FFEE79E
:10517000502080F31188BFF34F8FBFF36F8FFEE78E
:105180000221134600220091114600F028F8002861
:1051900000D0846338BDF8B517460E46050014D01C
:1051A000DEB105FB06F05030FEF738FE04000AD0F1
:1051B000002084F8460004F150023B463146284660
:1051C0000094FEF79FFB2046F8BD502080F3118825
:1051D000BFF34F8FBFF36F8FFEE70020E3E738B5D3
:1051E000049D18B153B1CAB181B120E0502080F3C1
:1051F0001188BFF34F8FBFF36F8FFEE7502080F30E
:105200001188BFF34F8FBFF36F8FFEE7502080F3FD
:105210001188BFF34F8FBFF36F8FFEE739B1502076
:1052200080F31188BFF34F8FBFF36F8FFEE75024D9
:105230001C46012384F846302B460094FEF762FB9F
:10524000204638BD70B50D46040025D0FFF76CF838
:10525000D4E90F20216802FB0011A1600021A163A5
:10526000216861600A46D4E90F01401E00FB01215C
:10527000E16021464FF0FF3001F8440F487004F11F
:1052800010008DB1FEF7ECFE04F12400FEF7E8FEFD
:10529000FFF76AF8012070BD502080F31188BFF33A
:1052A0004F8FBFF36F8FFEE721690029F0D000F028
:1052B0009DFC0028ECD004494FF080500860BFF3FB
:1052C0004F8FBFF36F8FE3E704ED00E02DE9FF4759
:1052D00082B01D468A464FF00008040003D0BAF1A0
:1052E000000F08D011E0502080F31188BFF34F8FDA
:1052F000BFF36F8FFEE7206C38B1502080F3118828
:10530000BFF34F8FBFF36F8FFEE7022D0AD1E06B23
:10531000012807D0502080F31188BFF34F8FBFF3CF
:105320006F8FFEE700F066FB3F4F4FF000094FF034
:10533000805648B9049838B1502080F31188BFF3E3
:105340004F8FBFF36F8FFEE7FEF7EEFFA06BE16BB1
:10535000884207D3022D05D00498D0B1B8F1000FD0
:105360001AD01EE02A4651462046FEF724FA616A0A
:1053700019B104F1240000F039FC20B13E60BFF304
:105380004F8FBFF36F8FFEF7EFFF012006B0BDE830
:10539000F087FEF7E9FF22E06846FFF7EBF84FF0F1
:1053A0000108FEF7E1FFFFF713FAFEF7BDFF94F9DE
:1053B0004400401C01D184F8449094F94500401CFD
:1053C00001D184F84590FEF7CFFF04A9684600F0AC
:1053D0007FFA30B12046FEF7DFFC00F03FFC0020F2
:1053E000D4E7FEF7A1FFA06BE16B884213D1FEF773
:1053F000BBFF04F110000499FFF7CAF82046FEF73E
:10540000CBFC00F02BFC00289ED13E60BFF34F8FF9
:10541000BFF36F8F98E7FEF7A7FF2046FEF7BCFCAF
:1054200000F01CFC90E7000004ED00E02DE9F047DF
:105430001F4690468946040003D0B9F1000F08D0FA
:1054400011E0502080F31188BFF34F8FBFF36F8FAF
:10545000FEE7206C38B1502080F31188BFF34F8FE6
:10546000BFF36F8FFEE7022F0AD1E06B012807D050
:10547000502080F31188BFF34F8FBFF36F8FFEE78B
:10548000FEF7C6FF5020EFF3118680F31188BFF3BB
:105490004F8FBFF36F8FA06BE16B884206D3022F53
:1054A00004D0002086F31188BDE8F08794F94550B8
:1054B0003A4649462046FEF77EF9681C04D06D1C2A
:1054C00084F845500120EDE7606A0028FAD004F125
:1054D000240000F08BFB0028F4D0B8F1000FF1D0CD
:1054E0000121C8F80010EDE770B50E46040009D0A0
:1054F000206C78B1502080F31188BFF34F8FBFF339
:105500006F8FFEE7502080F31188BFF34F8FBFF3FA
:105510006F8FFEE7206848B9A06838B1502080F34B
:105520001188BFF34F8FBFF36F8FFEE7FEF770FF59
:105530005020EFF3118580F31188BFF34F8FBFF335
:105540006F8FA16BE06B884218D994F94500491C14
:10555000A163411C04D0401C84F8450001200EE0EA
:10556000606A0028FAD004F1240000F03FFB002814
:10557000F4D0002EF2D001203060EFE7002085F358
:10558000118870BD2DE9F747002683B08A460400D4
:1055900003D0BAF1000F08D011E0502080F3118839
:1055A000BFF34F8FBFF36F8FFEE7206C38B15020F1
:1055B00080F31188BFF34F8FBFF36F8FFEE700F0CA
:1055C00019FADFF8F4804FF000094FF0805748B91E
:1055D000059838B1502080F31188BFF34F8FBFF387
:1055E0006F8FFEE7FEF7A0FEA56BC5B151462046C2
:1055F000FEF7CEF86D1EA563206950B104F11000CE
:1056000000F0F4FA28B1C8F80070BFF34F8FBFF371
:105610006F8FFEF7A9FE012006B0BDE8F087059860
:1056200008B11EB106E0FEF79FFE27E06846FEF7D0
:10563000A1FF0126FEF798FEFFF7CAF8FEF774FEF9
:1056400094F94400401C01D184F8449094F9450039
:10565000401C01D184F84590FEF786FE05A96846F6
:1056600000F036F9002820460AD0FEF795FB00F03E
:10567000F5FA2046FEF71AFA0028B3D00020CBE74F
:10568000FEF714FA90B104F124000599FEF780FFAB
:105690002046FEF781FB00F0E1FA0028A2D1C8F80D
:1056A0000070BFF34F8FBFF36F8F9BE72046FEF76D
:1056B00073FB00F0D3FA95E704ED00E02DE9F04725
:1056C00090468946040003D0B9F1000F08D011E0DC
:1056D000502080F31188BFF34F8FBFF36F8FFEE729
:1056E000206C38B1502080F31188BFF34F8FBFF387
:1056F0006F8FFEE7FEF78CFE5020EFF3118680F3EC
:105700001188BFF34F8FBFF36F8FA76BF7B194F979
:10571000445049462046FEF73BF87F1EA763681CAD
:1057200004D06D1C84F84450012010E0206900284A
:10573000FAD004F1100000F059FA0028F4D0B8F1C2
:10574000000FF1D00121C8F80010EDE7002086F32A
:105750001188BDE8F08700002DE9F343002683B0EF
:105760000400354609D0206C78B1502080F31188B0
:10577000BFF34F8FBFF36F8FFEE7502080F3118888
:10578000BFF34F8FBFF36F8FFEE700F033F9DFF801
:105790003C814FF000094FF0805748B9049838B168
:1057A000502080F31188BFF34F8FBFF36F8FFEE758
:1057B000FEF7BAFDA06BC8B1401EA063206810B907
:1057C000FEF798FBA060206950B104F1100000F0D2
:1057D0000DFA28B1C8F80070BFF34F8FBFF36F8F79
:1057E000FEF7C2FD012005B0BDE8F083049808B1C2
:1057F00066B10FE03DB1502080F31188BFF34F8FA9
:10580000BFF36F8FFEE7FEF7AFFD5DE06846FEF782
:10581000B1FE0126FEF7A8FDFEF7DAFFFEF784FDD4
:1058200094F94400401C01D184F8449094F9450057
:10583000401C01D184F84590FEF796FD04A9684606
:1058400000F046F80028204612D0FEF7A5FA00F036
:1058500005FA2046FEF72AF90028A9D09DB3FEF7E5
:1058600063FD606A50B3206B0068C0F1380126E028
:10587000FEF71CF9E0B1206838B9FEF755FDA068C5
:1058800000F078F90546FEF76FFD04F12400049955
:10589000FEF77EFE2046FEF77FFA00F0DFF90028D3
:1058A00086D1C8F80070BFF34F8FBFF36F8F7FE7CB
:1058B0002046FEF771FA00F0D1F979E70021A068DF
:1058C000FEF7C2FE9FE7FFE700208CE704ED00E053
:1058D0002DE9F0410C46050011D0C4B1FEF724FDBE
:1058E000174B5A696E682068911B471C17D02F68A8
:1058F0009B6A9F4219D0964217D8012410E050208D
:1059000080F31188BFF34F8FBFF36F8FFEE75020F6
:1059100080F31188BFF34F8FBFF36F8FFEE7002432
:10592000FEF722FD2046BDE8F081884205D9401AE5
:1059300020602846FEF71EFEF1E700202060DCE72D
:105940001C0000202DE9FF5F8346DDE90E879946A4
:1059500016468A469000FEF761FA05001CD05C20CE
:10596000FEF75CFA040014D00020256384F8590087
:10597000CDE90240CDE900874B46324651465846B4
:10598000FDF7D2FF2046FDF76FFE012004B0BDE811
:10599000F09F2846FEF7FCFC4FF0FF30F6E7F0B52D
:1059A00085B0DDE90B640A9DA6B1DCB15C270097E8
:1059B0002663022684F85960002604AFCDE902462A
:1059C000CDE90057FDF7B0FF2046FDF74DFE0498E6
:1059D00005B0F0BD502080F31188BFF34F8FBFF3A7
:1059E0006F8FFEE7502080F31188BFF34F8FBFF316
:1059F0006F8FFEE70548C16919B1806B18B10020AF
:105A00007047012070470220704700001C000020F2
:105A100001484069704700001C00002010B5FEF7E7
:105A2000F7FC0148406910BD1C0000202DE9F04141
:105A30002E4C0027A06B40B1206A401C2062606A97
:105A400000B101273846BDE8F0816669761C6661C1
:105A500013D16068006838B1502080F31188BFF31B
:105A60004F8FBFF36F8FFEE76068A1686160A06031
:105A7000A06A401CA062FEF705F9206BDFF8708079
:105A8000864209D36068006880B16068C068C568F4
:105A9000686886420DD220632068C06A00EB8001EE
:105AA00058F821000128CAD90127C8E74FF0FF3074
:105AB000F1E7281DFEF79AFAA86A18B105F1180057
:105AC000FEF794FAE86AA169884200D9A06100EB68
:105AD000800108EB8100291DFEF7E8FAE86A2168D9
