:020000040800F2
:10000000D07600205D0200089F1C00085F190008E0
:100010009D1C0008E30300082921000800000000DF
:100020000000000000000000000000009D0100082A
:100030007904000800000000F9010008991D00087B
:1000400077020008770200087702000877020008AC
:10005000770200087702000877020008770200089C
:10006000770200087702000877020008770200088C
:10007000770200087702000877020008770200087C
:10008000E5030008F1030008770200087702000882
:10009000770200087702000877020008770200085C
:1000A000770200087702000877020008770200084C
:1000B000770200087702000877020008770200083C
:1000C000770200087702000877020008F11C000898
:1000D0007702000877020008B1200008ED20000830
:1000E000770200087702000877020008770200080C
:1000F00077020008770200087702000877020008FC
:1001000077020008770200087702000877020008EB
:100110007702000877020008651E0008711E0008BB
:1001200077020008770200087702000877020008CB
:1001300077020008770200087702000877020008BB
:1001400077020008770200087702000877020008AB
:10015000770200087702000877020008770200089B
:10016000770200087702000877020008770200088B
:1001700077020008770200087702000800000000FC
:100180007702000877020008DFF80CD000F0ECF8E6
:100190000048004769310008D07600202C4B1968D0
:1001A0000868B0E8F04F80F30988BFF36F8F4FF015
:1001B000000080F3118870470000000008480068C4
:1001C000006880F308884FF0000080F3148862B65E
:1001D00061B6BFF34F8FBFF36F8F00DF00BF00BF6B
:1001E00008ED00E0DFF80C00016841F470010160E7
:1001F000704700BF88ED00E0EFF30980BFF36F8F19
:10020000134B1A681EF0100F08BF20ED108A20E96A
:10021000F04F106009B44FF0500080F31188BFF325
:100220004F8FBFF36F8F04F03BFA4FF0000080F365
:10023000118809BC19680868B0E8F04F1EF0100F6B
:1002400008BFB0EC108A80F30988BFF36F8F704746
:100250001C000020EFF3058070470000064880472F
:1002600006480047FEE7FEE7FEE7FEE7FEE7FEE79B
:10027000FEE7FEE7FEE7FEE7491E000889010008E9
:100280002DE9F05F0546002092469B4688460646CB
:10029000814640241BE0284641464746224600F05E
:1002A00053F853465A46C01A914110D31146184686
:1002B000224600F03AF82D1A67EB01084F46224615
:1002C0000120002100F031F817EB00094E41201EFB
:1002D000A4F10104DFDC484631462A464346BDE826
:1002E000F09F40EA01039B0703D009E008C9121FF1
:1002F00008C0042AFAD203E011F8013B00F8013BE0
:10030000521EF9D27047D2B201E000F8012B491E0B
:10031000FBD270470022F6E710B513460A460446A2
:100320001946FFF7F0FF204610BD202A04DB203AD3
:1003300000FA02F1002070479140C2F1200320FA38
:1003400003F3194390407047202A04DB203A21FA36
:1003500002F00021704721FA02F3D040C2F12002DE
:100360009140084319467047064C074D06E0E06887
:1003700040F0010394E8070098471034AC42F6D3EC
:10038000FFF706FF3C5D00085C5D000870B58C1847
:1003900010F8015B15F0070301D110F8013B2A1199
:1003A00006D110F8012B03E010F8016B01F8016B86
:1003B0005B1EF9D12B0705D40023521E0DD401F882
:1003C000013BFAE710F8013BCB1A921C03E013F84B
:1003D000015B01F8015B521EF9D5A142D8D3002080
:1003E00070BDFEE7014800F087B800009C040020C3
:1003F000014800F081B80000FC04002001681823C7
:10040000CAB2103AB2FBF3F2054B6FF30901032AAB
:100410009B5CC36500D9091D8165084670470000D3
:10042000DC5A000810B5014600208B698A6A4FF03B
:10043000C07453B1B3F5005F15D072B1012A0CD06E
:10044000022A0AD0032A09D104E01AB1012A06D0EF
:10045000022A03D1C96AC90100D5012010BDC96AA9
:10046000A142FAD010BD002AF7D0012AF2D0022A08
:10047000F3D0032AF3D010BD704703F0FDBE7047E0
:1004800003F01ABF30B513461CE0502484F31188E2
:10049000BFF34F8FBFF36F8FC4888588AC4215D0F0
:1004A000C5880468645DC5886D1CC580C588B5F5C0
:1004B000847F01D90025C58001F8014B002484F315
:1004C0001188521E002AE0D1981A30BD002080F316
:1004D0001188F9E790F83510022903D08021416591
:1004E00001207047052180F835100068016821F06F
:1004F00001010160002070472DE9F84304464FF0E8
:100500000009CDF8009063484FF41651A56D0068BE
:10051000B0FBF1F72E6894F85C10082000FA01F1A6
:1005200031420FD021680A6852070BD50A6822F0C1
:1005300004020A6094F85C108840A860606D40F086
:100540000100606594F85C104FF0010808FA01F0B2
:10055000304208D021684969090604D5A860606D59
:1005600040F00200606594F85C100420884030423E
:1005700008D021680968890704D5A860606D40F03B
:100580000400606594F85C1010208840304218D058
:1005900021680968090714D5A86020680168490323
:1005A00004D50068000308D5A16C07E00168C905FF
:1005B00003D4016821F008010160216C09B12046D3
:1005C000884794F85C1020208840304231D0216860
:1005D0000968C9062DD5A86094F83500052820685B
:1005E000016806D0490347D5006800031DD4616C3B
:1005F0001CE021F0160101602068416921F08001B2
:100600004161206C08B9A06C20B12068016821F01C
:100610000801016094F85C103F208840A86084F8CD
:10062000349084F83580216D1FE0E16B09B12046DC
:100630008847606D00282BD0606DC00714D005205E
:1006400084F835002068016821F0010101600098FC
:10065000401C0090B84203D820680068C007F6D15B
:1006600084F8349084F83580E16C002910D001B012
:100670002046BDE8F04308470168C905D5D40168A4
:1006800021F01001016084F8349084F83580CCE7C3
:10069000BDE8F883180000202DE9F041044600F081
:1006A0004DF906465CB1002584F83450022084F8E8
:1006B00035002068016821F0010101600DE0012092
:1006C000BDE8F08100F03AF9801B052805D920200B
:1006D0006065032084F83500F2E720680068C007F1
:1006E000F0D12268116820480140D4E90103184381
:1006F000D4E903363343184363691843A3691843A5
:10070000E3691843236A18430843616A042903D143
:10071000D4E90B1319430843106020684069666AE6
:1007200020F0070130460E43012704280CD1A06AAF
:100730000643E06A40B12046FFF774FE20B1402036
:10074000606584F83570BAE7206846612046FFF797
:1007500055FE94F85C203F2191408160656584F8E6
:1007600035700020ACE700003F8010F02DE9F84F15
:1007700000224FF0010803254FF00F0E0B6808FA16
:1007800002F42340A3426ED14E68012E05D0022E02
:1007900003D0112E01D0122E12D186684FEA420CDE
:1007A00005FA0CF7BE43CF6807FA0CF737438760AA
:1007B0004668A6430C79C4F3001494403443446063
:1007C000C668570005FA07FC8C6826EA0C06BC4090
:1007D0003443C4604C68022C01D0122C13D1D408CD
:1007E00000EB8404A346D4F8209054074FEAD46A5F
:1007F0000EFA0AF629EA06090E6906FA0AF646EA28
:100800000906CBF8206006680C7926EA0C0604F08D
:100810000304BC40344304604C68E40065D5364CA6
:10082000266846F480462660246822F0030604F415
:1008300080440094314C3444A446D4F808489607C8
:10084000370F0EFA07F6B4432D4EB04201D1002601
:1008500024E02C4EB04201D101261FE02A4EB042C6
:1008600002D102261AE040E0284EB04201D1032610
:1008700014E0274EB04201D104260FE0254EB042CD
:1008800001D105260AE0244EB04201D1062605E03A
:10089000224EB04201D1072600E00826BE40264382
:1008A000CCF808681E4E34684F689C43FF0300D59F
:1008B0001C4334601A4C241D26684F689E43BF03B6
:1008C00000D51E432660164E083634684F689C4398
:1008D000FF0200D51C433460114E0C3634684F685B
:1008E0009C43BF0200D51C433460521C102AFFF405
:1008F00045AFBDE8F88F00004438024000300140A9
:10090000000002400004024000080240000C0240C7
:10091000001002400014024000180240001C024077
:10092000003C0140426931EA020200D109048161C0
:1009300070470AB1816170470904FBE7014880688C
:10094000704700000C00002070B5040025D094F81A
:100950003D00002520B984F83C50204600F0B8F84E
:10096000242084F83D002068016821F00101016025
:100970002068016841F4004101602068016821F4A9
:100980000041016000F04AFA4D4A6168914201D885
:100990004C4900E04C49884201D2012070BD4B49CE
:1009A0002368B0FBF1F15E6826F03F060E435E60FF
:1009B0006368934206D94FF4967359434FF47A73A0
:1009C000B1FBF3F12368491C1E6A26F03F06314350
:1009D00019626168914210D84900401EB0FBF1F2E3
:1009E000521CC2F30B02042A01D2042022E0B0FB05
:1009F000F1F0401CC0F30B001CE0A268F2B301EB65
:100A0000C10303EB0116431EB3FBF6F35B1C43F477
:100A100080431B0549D092B301EBC10202EB0111E7
:100A2000401EB0FBF1F0401CC0F30B0040F48040CE
:100A300040F400402168CA694CF6FF739A431043A2
:100A4000C861D4E9071001432068026822F0C0029F
:100A500011430160D4E9030101432068826848F230
:100A6000FF339A4311438160D4E9050108432168AB
:100A7000CA6822F0FF021043C86001E00EE016E0F1
:100A80002068016841F0010101602564202084F89C
:100A90003D00256384F83E50002070BD01EB410607
:100AA000431EB3FBF6F35B1CB3E70120C2E701EB87
:100AB0004101401EB0FBF1F0401CC0F30B00B7E752
:100AC000A086010080841E0000093D0040420F0006
:100AD00010B586B0044614216846FFF71BFC134985
:100AE0002068884220D11248016841F0020101606B
:100AF0000068694600F002000590C02000901220B6
:100B000001900120029003200390042004900948E2
:100B1000FFF72CFE06481030016841F40011016017
:100B2000006800F40010059006B010BD00540040AD
:100B300030380240000402400248816802781144C3
:100B4000816070470C0000200B4810B5016841F42B
:100B500000710160016841F480610160016841F445
:100B600080710160032000F08DF8002000F006F88D
:100B700000F03EF8002010BD003C024010B50146D8
:100B800088B00022362000F05DF8362000F04CF8E6
:100B900013480024016841F010010160006805A9B4
:100BA00000F010000690684600F018F900F036F9E1
:100BB0000C494000B0FBF1F10C480B4A491E0260A1
:100BC00040F2E732C0E90324C0E9011400F06AFCF6
:100BD00010B1012008B010BD044800F09DFCF9E7F9
:100BE0004038024040420F00001000405C050020E9
:100BF0000C4882B0016841F480410160006800F453
:100C0000804000900748001F016841F0805101605A
:100C10000068002200F0805000900F21901E02B06A
:100C200000F010B844380240002809DB00F01F0231
:100C3000012191404009800000F1E020C0F800113E
:100C400070470000F0B40E4B1B680C46C3F3022340
:100C5000C3F10705042D00D90425191D072901D268
:100C6000002300E0DB1E012606FA05F1491E2140A3
:100C700099409E40761E16403143F0BC01F055BAB3
:100C80000CED00E0064900F0070208684FF6FF038C
:100C9000184040EA0220034A1043086070470000F1
:100CA0000CED00E00000FA052DE9F0470E460500C6
:100CB00065D0DFF81481D8F80000F7B200F00F001B
:100CC000B04207D288F80070D8F8000000F00F009A
:100CD000B04254D128683D4C810712D5400703D556
:100CE000206840F4E05020602878000703D5206891
:100CF00040F4604020602068A96820F0F0000843BC
:100D000020602878C0072DD030496868083901284C
:100D100012D0022813D0032811D0096889070029AE
:100D20002DDA216821F0030101432160FFF706FE5F
:100D3000814641F2883A0EE009688903EFE70968C5
:100D40008901ECE7FFF7FAFDA0EB0901514502D953
:100D50000320BDE8F0872068696800F00C00B0EB64
:100D6000810FEFD1D8F80010404601F00F01B142D9
:100D700007D90770006800F00F00B04201D00120D1
:100D8000E7E72878400705D52068E96820F4E050B7
:100D9000084320602878000706D52068296920F4D8
:100DA000604040EAC100206000F058F82168084A1D
:100DB000C1F30311515CC840064908600648006849
:100DC000FFF7DCFE0020C4E7003C02400838024088
:100DD000E45A000818000020100000200F220260D2
:100DE0000C4A136803F003034360136803F0F00335
:100DF0008360136803F4E053C36012684FF4E05358
:100E000003EAD20202610448006800F00F000860A3
:100E10007047000008380240003C02400448054981
:100E200000680968044AC1F38221515CC8407047D8
:100E30001800002008380240F45A00080448054908
:100E400000680968044AC1F34231515CC8407047E8
:100E50001800002008380240F45A0008154810B560
:100E6000006810F00C02144813D04110042A0FD06F
:100E7000082A0ED10F4C241F2268236802F03F027B
:100E80005B0207D52068C0F38810A0FB010106E0D3
:100E9000084610BD2168C1F38811A1FB00010023A1
:100EA000FFF7EEF92168C1F30141491C4900B0FB8D
:100EB000F1F010BD083802400024F4002DE9F84F8D
:100EC00004006ED02078DFF83C93C007A9F1040538
:100ED0004AD009F104000168C1F38101012908D059
:100EE0000068C0F3810002280AD1D9F8000040024E
:100EF00006D52868800337D560680028E1D033E044
:100F00006068B0F5803F10D0B0F5A02F286810D0F1
:100F100020F480302860286820F4802028606068F1
:100F2000A8B1FFF70BFD06460DE0286840F48030BD
:100F3000F4E740F480202860F7E700BFFFF7FEFCED
:100F4000801B642873D828688003F7D50CE0FFF76E
:100F5000F5FC064605E000BFFFF7F0FC801B6428A7
:100F6000F0D828688003F7D42078DFF89C828007C7
:100F70004FF0000A3ED5A348001D016811F00C0F88
:100F800008D00068C0F3810002280BD1D9F8000016
:100F9000400207D42868800716D5E068012800D1F0
:100FA00012E02BE1E068B8B10120C8F80000FFF7BB
:100FB000C5FC064605E000BFFFF7C0FC801B022809
:100FC000C0D828688007F7D52868216920F0F80084
:100FD00040EAC10028600DE0C8F800A0FFF7AEFCB1
:100FE000064604E0FFF7AAFC801B02281FD82868E9
:100FF0008007F7D42078000722D5824E83486169A4
:10100000703671B101210160FFF798FC074604E0DA
:10101000FFF794FCC01B022809D830688007F7D579
:101020000EE0C0F800A0FFF789FC074605E082E06B
:10103000FFF784FCC01B02287DD830688007F7D4F6
:101040002078400768D5DFF8BCB100270BF13C0BD6
:10105000DBF80000C0000BD4DBF8001041F0805139
:10106000CBF80010DBF80000012700F08050009062
:10107000674E3068C00510D4306840F4807030602E
:10108000FFF75CFC009005E0FFF758FC0099401A60
:10109000022850D83068C005F6D55A4EA0686C3684
:1010A00001280FD00528306810D020F001003060F2
:1010B000306820F004003060A068B8B1FFF73EFC53
:1010C00000900FE0306840F00100F4E740F00400C9
:1010D0003060F7E7FFF732FC0099411A41F288309F
:1010E000814266D830688007F4D50EE0FFF726FC11
:1010F000009007E0FFF722FC0099411A41F2883086
:10110000814256D830688007F4D42FB1DBF8001044
:1011100021F08051CBF80010A069C8B33949091DEE
:101120000968C1F3810102294AD00228504607D03C
:10113000C8F8600000E03CE0FFF700FC04463BE03C
:101140004746C8F86000FFF7F9FB064605E000BF18
:10115000FFF7F4FB801B02282BD828688001F7D406
:10116000D4E907010843A16A2A4A490802EB014170
:10117000626A41EA8211084394F82C1040EA016146
:10118000C9F8001001203866FFF7D8FB044606E0D6
:1011900036E000BFFFF7D2FB001B022809D8286801
:1011A0008001F7D52CE000BFFFF7C8FB001B022829
:1011B00002D90320BDE8F88F28688001F4D41FE02D
:1011C0000128F7D0D9F80000E26900F480019142CB
:1011D00014D1226A00F03F0191420FD147F6C0714D
:1011E000626A0140914209D1A26A00F44031914201
:1011F00004D1E16A00F07060884201D00120D9E793
:101200000020D7E70438024000004742800E4742E2
:10121000007000400000FFFF7047000038B5016813
:1012200004464A688868C043430606D5C30704D10C
:10123000D3435B0601D4216C05E0830708D4D34374
:101240001B0605D4616C01B02046BDE8304008475C
:10125000830603D5430601D5C30551D4D3439B066A
:101260004ED443060AD494F85130032B49D0636D11
:1012700043F004036365CB688B680093830609D44D
:10128000636D43F0010363658B6800930B6823F083
:1012900040030B60C00506D4606D40F00800606537
:1012A000206880680090606D002829D0206841681F
:1012B00021F0E0014160012084F85100900701D441
:1012C000D00722D02068416821F003014160114D10
:1012D000E06C40B10565E06CFFF7FCF818B1606D9B
:1012E00040F040006065A06C002809D00565A06C46
:1012F000FFF7F0F8002803D0606D40F04000606513
:1013000038BDC8688868009038BD2046FFF784FF64
:1013100038BD0000FD1C000870B5040005D0002594
:10132000A56294F8510010B106E0012070BD84F868
:101330005050204600F030F8022084F85100206818
:10134000016821F040010160D4E901010843D4E9BA
:1013500003121143084361690843218B01F40071B2
:101360000843E1690843216A0843A16A08432168E8
:101370000860A069042101EA1040616A08432168FD
:1013800048602068C16921F40061C1616565012080
:1013900084F85100002070BD10B586B004461421B9
:1013A0006846FEF7B7FF17492068884228D11648DB
:1013B0000021026842F480520260006800F480500C
:1013C000059011481438026842F00102026000687A
:1013D00000F001000590E02000900220CDE901011D
:1013E000032003900520049069460848FFF7BEF9E2
:1013F000002205212320FFF725FC2320FFF714FC02
:1014000006B010BD003001404438024000000240E8
:101410007047704770B590F83C20012A32D0012403
:1014200080F83C40022280F83D2003685A689D689D
:1014300022F070060A6832435A60134B02689A42DF
:1014400014D0B2F1804F11D0104B9A420ED0104BF5
:101450009A420BD00F4B9A4208D00F4B9A4205D0BC
:101460000E4B9A4202D00E4B9A4204D1496825F0A5
:1014700080031943916080F83D40002180F83C10C2
:10148000084670BD022070BD00000140000400400D
:1014900000080040000C00400004014000400140F2
:1014A0000018004010B5040003D094F83D0010B1BE
:1014B00007E0012010BD002084F83C00204600F029
:1014C0000DF8022084F83D00211D206800F0D6FCB4
:1014D000012084F83D00002010BD000008B5006820
:1014E0000B49884212D10B48016841F0200101608C
:1014F0000068002200F02000009005213720FFF74F
:10150000A1FBBDE808403720FFF78EBB08BD0000F7
:1015100000140040403802400168CA6842F00102ED
:10152000CA600068816801F00701062903D00168DC
:1015300041F00101016000207047704770B504461A
:10154000006801694FF00005C943890715D4C168D7
:10155000C943890711D4E91E016101202077206861
:1015600080698007204602D0FFF7E7FF04E000F023
:1015700098F8204600F096F8257720680169C9435D
:10158000490717D4C168C943490713D46FF0040150
:101590000161022020772068806910F4407F204696
:1015A00002D0FFF7CAFF04E000F07BF8204600F00D
:1015B00079F8257720680169C943090716D4C168FD
:1015C000C943090712D46FF0080101610420207794
:1015D0002068C0698007204602D0FFF7AEFF04E014
:1015E00000F05FF8204600F05DF82577206801697B
:1015F000C943C90617D4C168C943C90613D46FF0DB
:1016000010010161082020772068C06910F4407F34
:10161000204602D0FFF791FF04E000F042F8204698
:1016200000F040F8257720680169C943C90708D14F
:10163000C168C943C90704D1891E0161204600F071
:1016400033F820680169C943090609D4C168C94350
:10165000090605D46FF0800101612046FFF7D8FE2E
:1016600020680169C943490609D4C168C9434906CC
:1016700005D46FF040010161204600F01FF820689A
:101680000169C94389060BD4C168C943890607D4D7
:101690006FF0200101612046BDE87040FFF7B9BE40
:1016A00070BD70477047000000680349884201D14F
:1016B000FFF742BA704700000010004070477047C3
:1016C000704770477047000070B5040004D094F86C
:1016D0003900002510B10DE0012070BD84F83850AC
:1016E000204600F02FFC606E08B913486066014682
:1016F00020468847242084F839002068C16821F4F6
:101700000051C160204600F03FFC2068016921F4CF
:10171000904101612068416921F02A0141612068FE
:10172000C16841F40051C160E563202084F83900AC
:1017300084F83A00002070BD3D1700082DE9F04301
:1017400087B0064614216846FEF7E4FD5649D6F8F0
:1017500000C0564802250327072200248C451ED1CD
:10176000524914310B6843F010030B60096801F013
:1017700010010591016841F00101016000680294C7
:1017800000F0010005907802CDE90005CDE9037273
:1017900069464748FEF7EAFF07B0BDE8F0834349D2
:1017A000DFF810811031444BC44556D1D1F800C048
:1017B0004CF4003CC1F800C0096801F40031059107
:1017C000016841F0080101600068029400F008001F
:1017D00005906020CDE90005CDE903726946184601
:1017E000FEF7C4FF364D35484FF000682860C5E964
:1017F00001844FF48069C5E903496C61AC61042040
:10180000EC61C5E90840C5E90A7428462C63FEF777
:1018100043FF08B1FEF733FE7563AE63284D2748DA
:1018200060351830E5E802084020A5E81102244898
:1018300045F814496030AC61EC612C626C62FEF7D3
:101840002BFF08B1FEF71BFE356300220621262080
:10185000AE63FFF7F7F9262023E01A4EB4459BD17B
:101860000E6846F480260E60096801F48021059117
:10187000016841F0080101600068029400F008006E
:1018800005904FF44070CDE90005CDE9037269463B
:101890001846FEF76BFF002205212720FFF7D2F93B
:1018A0002720FFF7C1F977E70010014030380240E8
:1018B0000000024000440040000C024088600240EA
:1018C0009C0400200048004010B5002372B190F83D
:1018D0003840012C10D0012480F8384090F839406D
:1018E000202C0BD090F839401CB326E0C16B41F09E
:1018F0002001C163012010BD022010BD0D291CD2A2
:10190000DFE801F007090B0D0F1113151B1B1B2539
:101910002700026416E0426414E0826412E0C264AC
:1019200010E002650EE042650CE082650AE0C265E7
:1019300008E00B290BD00C290BD0C16B41F0200122
:10194000C1630123002180F83810184610BD42669B
:10195000F8E78266F6E77047704770477047FEE722
:1019600010B5FEF777FC002800D0012010BD000064
:101970000D4808B5016841F40011016000680022BB
:1019800000F40010009005211020FFF75BF91020F3
:10199000FFF74AF9002205211120FFF753F9BDE8AE
:1019A00008401120FFF740B93038024010B50B4A0B
:1019B00000210B4801F098FD0A4C084A0021A06064
:1019C000483A094801F090FD044A2060243A002179
:1019D000064801F089FD606010BD0000A45A0008AF
:1019E0006D1D000800000020411C00080D1D0008AE
:1019F0002DE9F04387B014216846FEF78BFC2F4891
:101A00000024016841F080010160016801F080015B
:101A10000591016841F001010160016801F00101D7
:101A20000591016841F002010160016801F00201C5
:101A30000591016841F008010160016801F00801A9
:101A40000591016841F01001016000681C4F00F031
:101A500010000590012210213846FEF76AFFDFF8DA
:101A600064804FF4C046002231464046FEF761FFD5
:101A7000DFF85490012203214846FEF75AFF102058
:101A800000900125CDE90154694638460394FEF7DC
:101A90006DFE0096CDE90154694640460394FEF779
:101AA00065FE0320CDE9000569464846CDE90245BB
:101AB000FEF75CFE07B0BDE8F0830000303802405E
:101AC0000000024000040240001002400D4810B522
:101AD0000B4901600C49416000214FF48042816054
:101AE000C0E9031241618161C1610162FEF72CFF0F
:101AF000002803D0BDE81040FEF7C1BC10BD0000B7
:101B0000005400406C020020801A0600104810B5F6
:101B10000E4901604FF48271416000218160C16013
:101B20004FF400720161C0E905123822C0E90721B3
:101B3000416281620A21C162FFF7EEFB002803D0F7
:101B4000BDE81040FEF79BBC10BD00000030014016
:101B5000C00200201CB500240E4800940C490194DA
:101B600001605321C0E901144FF6FF718461C16027
:101B7000FFF798FC08B1FEF782FC0094694605481F
:101B80000194FFF747FC002801D0FEF778FC1CBD4C
:101B900000140040180300200C4810B50A490160E9
:101BA0004FF4E1314160002181600C22C160C0E945
:101BB00004128161C161FFF787FD002803D0BDE8F1
:101BC0001040FEF75CBC10BD00100140580300201F
:101BD0000C4810B50A4901604FF4E1314160002121
:101BE00081600C22C160C0E904128161C161FFF70C
:101BF0006BFD002803D0BDE81040FEF740BC10BDCF
:101C000000440040C40300200C4810B50A4901609C
:101C10004FF4E1314160002181600C22C160C0E9D4
:101C200004128161C161FFF74FFD002803D0BDE8B8
:101C30001040FEF724BC10BD0048004030040020D6
:101C400000234FF4E1320321184600F047FE00F074
:101C5000AFFC00BF00F07CFEFCE70000F8B54FF0E1
:101C6000FF350C4E00952C46B06800680168890667
:101C700001D54068C4B20094641C06D00548012216
:101C800069460C3000F00CF8EDE703480068804727
:101C9000F8BD000090010020E0010020FEE7704741
:101CA000F0B5502383F31188BFF34F8FBFF36F8FCD
:101CB0004FF48474002315E00D7887880668F55585
:101CC00085886D1C85808588A54200D9838085889C
:101CD000C688B54206D1C5886D1CC580C588A54299
:101CE00000D9C380521EE7D2002080F31188F0BDD6
:101CF0000148FFF793BA0000C002002010B5806BC6
:101D00000021C187C186FFF787FA10BD08B5002002
:101D10004FF4E13302220121009000F009FC00F0B1
:101D200023FA00BF01F03EF8FCE70000F8B54FF0E1
:101D3000FF350C4E00952C46B06800680168890696
:101D400001D54068C4B20094641C06D00548012245
:101D500069460C30FFF7A4FFEDE7034800688047B1
:101D6000F8BD000068010020C400002086B01422E5
:101D700007496846FEF7B5FA064C4FF4FA7501219B
:101D80002046FEF7CFFD284601F00AFAF7E70000EB
:101D9000C85A00080010024010B5502080F3118886
:101DA000BFF34F8FBFF36F8F03F088FC18B1044966
:101DB0004FF080500860002080F3118810BD0000B3
:101DC00004ED00E030B593B030216846FEF7A2FA8A
:101DD00014210CA8FEF79EFA19480025016841F06D
:101DE00080510160006800F0805011901548016832
:101DF00041F4804101600068022400F480401190A9
:101E000001200090000401908001CDE9064008AA5D
:101E10000420A82182E813000B906846FFF74EF8D3
:101E20000CA90F2081E831004FF4A0500F90E00280
:101E3000109005210CA8FEF737FF13B030BD00004D
:101E400040380240007000400548016841F47001CC
:101E5000016003494FF0006080390860704700005E
:101E600088ED00E00148FFF769BB00005C05002039
:101E70000148FFF763BB000018030020F0B50268BB
:101E8000254C264D264E274F274B4FF0804CA04225
:101E900009D0604507D0A84205D0B04203D0B8426F
:101EA00001D0984204D122F0700E4A6842EA0E0234
:101EB000A0421BD0604519D0A84217D0B04215D01F
:101EC000B84213D0984211D0184DA8420ED0184DE8
:101ED000A8420BD0174DA84208D0174DA84205D0F4
:101EE000164DA84202D0164DA84203D122F44075E7
:101EF000CA682A434D6922F080022A4302608A6838
:101F0000C2620A688262A04201D0984201D1096986
:101F1000016301214161F0BD000001400004004067
:101F200000080040000C0040000401400040014057
:101F3000004401400048014000180040001C0040DF
:101F4000002000400849016408494164084981644F
:101F50000849C16408490165084941650849816526
:101F60000849C165704700005D1900085B19000849
:101F70005919000857190008C5160008BF160008AF
:101F8000C3160008C11600082DE9F0410446006898
:101F90000169E26821F44051114301612169A0689F
:101FA000E26908436169114308432168CA6849F23C
:101FB0000C639A430243CA6020684169A26921F414
:101FC000407111434161E069192764253226B0F55B
:101FD000004F354A354920684FF0000806D0884246
:101FE00001D0904236D1FEF729FF35E0884201D07A
:101FF000904202D1FEF722FF01E0FEF70FFF616879
:102000004A18A0FB070148EB0803FEF739F901461F
:10201000B0FBF5F00201B1FBF5F06FF01803584387
:1020200001EB800006EBC000B0FBF5F000F0F8001B
:1020300002EB4002B1FBF5F0584301EB800006EBE8
:10204000C000B0FBF5F000F0070021681044886084
:10205000BDE8F081FEF7E2FE61688B0F8A00A0FB0D
:102060000701FEF70DF90146B0FBF5F06FF018021D
:10207000504301EB800006EB0010B0FBF5F000F0E0
:10208000F002B1FBF5F002EB0012B1FBF5F06FF0DE
:102090001803584301EB800006EB0010B0FBF5F08D
:1020A00000F00F00D1E700000014014000100140D3
:1020B00038B50D4C20680068800606D5E16C2046D6
:1020C000884721686FF020000860206801680907D0
:1020D00003D541680168416800910168490602D54D
:1020E0006FF04001016038BDC403002038B50D4CCD
:1020F00020680068800606D5E16C20468847216884
:102100006FF02000086020680168090703D5416866
:102110000168416800910168490602D56FF04001ED
:10212000016038BD30040020FEE70907090E0028D1
:1021300004DB00F1E02080F80014704700F00F008D
:1021400000F1E02080F8141D704702E008C8121F5B
:1021500008C1002AFAD170477047002001E001C190
:10216000121F002AFBD1704770B5064D0024287855
:10217000012802D00624204670BD2869804700202F
:102180002870F8E7A400002070B50C4609880025E7
:1021900005292FD1417840F2CF760A028178114388
:1021A000C278491C1302027989B21A43531EB34202
:1021B00020D200232380012300F8013B2688761CCF
:1021C0002680560703D003EBD203DEB201E0C2F350
:1021D000C70600F8016B23885B1C2380002300F0F6
:1021E000DBFE18B101F0CDFD054604E02088304447
:1021F000208000E00325284670BD70B50C46098894
:10220000002505292FD1417840F2CF760A02817846
:102210001143C278491C1302027989B21A43531E32
:10222000B34220D200232380022300F8013B2388FD
:102230005B1C2380530704D0012303EBD203DEB2DF
:1022400001E0C2F3C70600F8016B23885B1C238002
:1022500000F0F2FE18B101F094FD054604E020887C
:102260003044208000E00325284670BD70B50C4640
:1022700009880026052928D1417805790A02817844
:102280001143C278491C45EA02256A1E89B27C2A9C
:102290001BD800222280032200F8012B2288002371
:1022A000521C22806A0000F8012B2288521C2280D6
:1022B0002A4600F0FBFE18B101F063FD064605E07A
:1022C000208800EB4500208000E00326304670BDEA
:1022D00070B50C4609880026052927D14178057973
:1022E0000A0281781143C278491C45EA02256A1E18
:1022F00089B27C2A1AD200222280042200F8012B03
:102300002288521C22806A0000F8012B2288521C6D
:1023100022802A4600F002FF18B101F032FD064685
:1023200005E0208800EB4500208000E003263046D1
:1023300070BD2DE9F0410446088800270D460A28A3
:1023400042D3607826790102A078227A0843401CA3
:102350001FFA80F8E07846EA00266079731E0102D1
:10236000A0790843401C81B2E0797C2B42EA00222C
:10237000607A28D83AB3792A25D8B0EB420F22D117
:10238000012304F10A0000F091FE98B90021298090
:10239000172121702988601C491C2980710000F8D0
:1023A000011B29880023491C29803246414600F040
:1023B0007DFE18B101F0E5FC074605E0288800EB3A
:1023C0004600288000E003273846BDE8F081000081
:1023D00070B5064C0D4606492288401CFDF781FF6A
:1023E0002088401C2880002070BD00009400002040
:1023F000704E002038B50988002405290BD141789A
:102400000A0281781143491C027989B21AB9C2784B
:10241000FF2A03D012B10324204638BD00228DF8D4
:102420000120C078FF280CD08DF8002001231A4627
:10243000684600F0B1FD0028EED001F0A2FC044691
:10244000EAE701208DF80000F0E710B509880024C4
:10245000052902D00324204610BD417801230A0239
:102460008178C01C1143491C89B21A4600F01EFE37
:102470000028F0D001F085FC0446ECE72DE9F0419E
:102480000D4609880024052926D9417843790A0296
:1024900081781143491C8EB2C178027942EA012247
:1024A000510704D0012101EBD201C9B201E0C2F30E
:1024B000C701571EB7F5F66F0ED299420CD1012312
:1024C0003146801D00F068FD18B101F05AFC044649
:1024D00003E00520288000E003242046BDE8F081C9
:1024E00070B50D460988002406291DD341780A02DB
:1024F00081781143C278491C1302027989B21A43C8
:102500004379561E772E0FD85606360E9E420BD1B3
:102510000123801D00F0CAFD18B101F032FC044611
:1025200003E00520288000E00324204670BD000061
:102530002DE9F0411D46069B1746064629B1F729AD
:1025400003D8134C084621710EB102251BE0114936
:102550002161114961611149E1601149A1610021C5
:10256000E16110492162104961621049A1622A4665
:10257000394600F071FC050005D102F06FFB28B16F
:102580006671012020702846BDE8F0810325FAE736
:10259000A4000020592F00087D2F0008ED2E000810
:1025A000A12E0008A94D0008314E0008094E000870
:1025B00070B5064D00246878012802D00624204614
:1025C00070BD6869804700206870F8E7BC01002092
:1025D000F8B50E460546002402F022FB28BB3088E1
:1025E000022823D3684601F041FD009841780A0291
:1025F00081781143C278491C1302027989B21A43C7
:10260000500704D0012000EBD200C0B201E0C2F3B9
:10261000C7005AB16B78834208D10023A81C00F090
:10262000DDFA10B101F0ADFB044600E003242046C2
:10263000F8BDF8B50E460546002402F0F1FA20BBBD
:102640003088022822D3684601F010FD00984178B6
:102650000A0281781143C278491C1302027989B2B7
:102660001A43500704D0012000EBD200C0B201E0B1
:10267000C2F3C70052B16B78834207D1A81C00F0A7
:10268000EBFA10B101F07DFB044600E00324204684
:10269000F8BDF8B50E460546002402F0C1FAF8B9B7
:1026A000308802281BD3684601F0E0FC009841788E
:1026B0000A0281781143C278491C1302027989B257
:1026C0001A430CD06878B0EB420F08D10023A81C45
:1026D00000F000FB20B101F054FB044600E00324AD
:1026E0002046F8BDF8B50E460546002402F098FADB
:1026F000F0B9308802281AD3684601F0B7FC009878
:1027000041780A0281781143C278491C1302027988
:1027100089B21A430BD06878B0EB420F07D1A81CDE
:1027200000F00CFB20B101F02CFB044600E0032478
:102730002046F8BDF8B50D460646002402F070FAB2
:1027400068BB288802282CD3684601F08FFC0098CB
:10275000417805790A0281781143491C8FB2C1780A
:1027600045EA012541790A0281791143C279491C60
:102770001302027A89B21A437378B3EB450F0FD173
:1027800001230A3000F0A6FA30B900232A46394660
:10279000B01C00F09FFA10B101F0F3FA044600E01B
:1027A00003242046F8BD38B50988002405290BD13B
:1027B00041780A0281781143491C027989B21AB919
:1027C000C278FF2A03D012B10324204638BD00226C
:1027D0008DF80120C078FF280CD08DF8002001234F
:1027E0001A46684600F0FAF90028EED001F0C9FA5E
:1027F0000446EAE701208DF80000F0E710B50988EB
:102800000024052902D00324204610BD417801236D
:102810000A028178C01C1143491C89B21A4600F093
:1028200059FA0028F0D001F0ACFA0446ECE738B5CC
:10283000054608880024052802D002F0F1F918B3F3
:10284000684601F013FC68782A790102A8780843E9
:10285000401C81B2E87842EA00220098530745798B
:1028600004D0012303EBD203DBB201E0C2F3C703C0
:1028700052B1AB4208D10123801D00F0AFF920B165
:1028800001F07FFA044600E00324204638BD38B545
:1028900008880024052802D002F0C2F9D0B16846A9
:1028A00001F0E4FB009841780A0281781143C27874
:1028B000491C1302027989B21A434379B3EB420FE0
:1028C00008D10123801D00F005FA20B101F059FA6A
:1028D000044600E00324204638BD000070B51546CC
:1028E0000E4608B102251FE0124C11481A466061DD
:1028F0001148A061114820611148E0610020206268
:10290000104860621048A0621048E06229463046D4
:1029100000F0C2F8050007D102F03EF830B1012006
:1029200084F8010001F0A8FB284670BD0325F9E7F3
:102930009D2B0008BC010020C12B00082D2B000896
:10294000E12A0008ED4A0008B94B0008554B000881
:10295000F8B5504C607818B1032801D00620F8BDB6
:10296000684601F0FBFF002810D0BDF800000428E5
:102970001FD004DC012807D0022807D107E008286F
:1029800056D0102802D15FE00320607080E0414AF9
:10299000E3690832111D901F984728B9A078617922
:1029A000884201D1042001E001203BE001F0FEFF5C
:1029B0006EE0E16801220878E0702271C20902D05D
:1029C000487820712BE0334F0026303717F8361047
:1029D00009B3814220D10120207002F021F980B199
:1029E00001F0B2FA2081012507EBC606657129497D
:1029F00072680831E06890476D1C2071102DF5DD7C
:102A000007E007EBC600234942680831E0689047B9
:102A100020710020207002E0761C102ED6DB207979
:102A200018B10220A0711020C0E701F0FFFA2DE0DC
:102A300018480C3001F01AFB01F086FAD4E90313B0
:102A400002466079984723E01248A5790C3001F0DE
:102A50000DFB25B1012D0AD0022D17D10FE001F099
:102A600073FA02466079E16801F0F8FA0EE001F0CD
:102A70006BFA02466079E16801F0E8FA06E001F0DD
:102A800063FA02466079E16801F0D8FA01F08AFB46
:102A90000020F8BDBC0100202DE9F04116460D468E
:102AA00007460024FDF7E9FC33460822294638464C
:102AB00001F090FF60B1B5F5964F01D9232003E0F6
:102AC00006496800B1FBF0F080B201F0EFFF00B9F9
:102AD0000324FDF7D5FC2046BDE8F081A07F170058
:102AE0002DE9F0411646884607460025FDF7C5FC4E
:102AF0000C4C2089042804D321890B4801F00EFADC
:102B000028B10525FDF7BCFC2846BDE8F081064844
:102B1000007838702089C01E30800348401CC8F8F7
:102B20000000EFE7AC010020D06D00202DE9F0415E
:102B3000002590460F460646102802D90220BDE81F
:102B4000F081FDF79AFC134CA078012804D00525EC
:102B5000FDF796FC2846F2E7781E0127E060E78043
:102B60000670E28802EB0801E180E18801F0D6F905
:102B7000E188094A5318491CE1801870010AE0886D
:102B80000244401CE080117067700121002001F0B8
:102B900081FADDE7AC010020D36C002010B5FDF711
:102BA0006CFC0649002088700146012001F072FA91
:102BB00001F0DAFABDE81040FDF762BCAC0100207C
:102BC00010B5FDF75AFC0021084601F063FA01F048
:102BD000A3FABDE81040FDF753BC00002DE9F04713
:102BE0000C469046012106464FF0000901EBD8053E
:102BF00001F08EF91649641E01EBC0071548083F25
:102C00004188A0B200EB0802402A1BD8401AC0F34A
:102C1000CC0400F0070A0AE03819641C16F8013BDE
:102C2000A4B20822514602F03CF96D1EADB2012D4E
:102C3000F2D818F0070207D033783819514602F05D
:102C400030F901E04FF001094846BDE8F087000087
:102C50004A520020800100202DE9F0470C469046A2
:102C6000012106464FF0000901EBD80501F050F9AB
:102C70001649641E01EB40071548BF1E0188A0B22B
:102C800000EB0802102A1BD8401AC0F3CC0400F055
:102C9000070A0AE03819641C16F8013BA4B208229E
:102CA000514602F0FEF86D1EADB2012DF2D818F0BB
:102CB000070207D033783819514602F0F2F801E0E4
:102CC0004FF001094846BDE8F08700002A52002075
:102CD000800100202DE9F04115460F4604460026EC
:102CE00001F016F900EBC00101EB001011497F1E45
:102CF00001EBC0011048C839C288B8B24319642B2F
:102D000013D8801A80B20DE014F8012B120221F8BA
:102D1000102014F8013B1A4321F81020401C6D1EAE
:102D200080B2ADB2002DEFD100E001263046BDE803
:102D3000F08100004A5F0020800100202DE9F04171
:102D400015460F460446002601F0E2F800EBC001EC
:102D500001EB001011497F1E01EBC0011048C8397A
:102D60008288B8B24319642B13D8801A80B20DE060
:102D700014F8012B120221F8102014F8013B1A4319
:102D800021F81020401C6D1E80B2ADB2002DEFD195
:102D900000E001263046BDE8F0810000CA52002064
:102DA0008001002038B52B4C207808B1062038BDB2
:102DB000684601F03BFF70B39DF80000012846D043
:102DC000022802D0042842D10FE0224AA369921DB2
:102DD000911CC81F9847F0B960782179884200D0CB
:102DE000C8B9042001F044FF31E0A0680121194B6B
:102DF0000278A270E170002113F12C0313F8315016
:102E00006DB1954208D103EBC1014A681149891D92
:102E10009047E07003E01AE0491C1029EEDB60786F
:102E2000A8B1E07870B10021E180A17841F0800282
:102E3000A1680A70E288521C92B2E2808854E0884D
:102E4000401CE080D4E90213E288207998470020F2
:102E500038BD0000A40000202DE9F0411F461546B2
:102E60000E460024FDF709FB3B4608222946304662
:102E700001F012FF60B1B5F5964F01D9232003E0B0
:102E800006496800B1FBF0F080B201F06FFF00B9B5
:102E90000324FDF7F5FA2046BDE8F081A07F170076
:102EA0002DE9F0411646884607460025FDF7E5FA6C
:102EB0000C4CA088042804D3A1880B4801F02EF8FC
:102EC00028B10525FDF7DCFA2846BDE8F081064863
:102ED00000783870A088C01E30800348401CC8F8B5
:102EE0000000EFE798000020904E00202DE9F0410F
:102EF00090460E4607460025FDF7BFFA144C607851
:102F0000012806D05FF00505FDF7BAFA2846BDE8AE
:102F1000F081701E0126A06066800770628802EB57
:102F200008016180618800F0F9FF6188094A53183F
:102F3000491C61801870010A60880244401C60804E
:102F4000117026700121002001F03EF9DCE700003D
:102F500098000020904E002010B5FDF78EFA06492B
:102F6000002048700146012001F02EF901F06AF9B5
:102F7000BDE81040FDF784BA9800002010B5FDF7B9
:102F80007CFA0021084601F01FF901F049F9BDE87B
:102F90001040FDF775BA00002DE9F0470446012006
:102FA000244F00EBD206A7F10A00491E458888B2DB
:102FB00081184FF00009402936D8401BC0F3CC05DA
:102FC00000F0070A02F007086BB1012B2ED120E0B8
:102FD00078196D1CADB20822514601F051FF761EE2
:102FE00004F8010BB6B2002EF2D114F8012DC8F18D
:102FF00008018A40D0B2C840207017E078196D1CD3
:1030000014F8013BADB20822514601F04AFF761E8A
:10301000B6B2012EF2D85FEA080207D023787819F9
:10302000514601F03EFF01E04FF001094846BDE87E
:10303000F08700005A0100202DE9F04704461746AA
:103040000120DFF8649000EBD705A9F10800491EC4
:10305000028888B2C1194FF0000810291FD8801AC1
:10306000C0F3CC0600F0070A0CE000BF09EB060035
:10307000761CB6B20822514601F002FF6D1E04F81C
:10308000010BADB2002DF1D107F0070014F8012DAE
:10309000C0F108018A40D0B2C840207001E04FF072
:1030A00001084046BDE8F08758010020F0B51A4EEF
:1030B000491E89B20025174CF6888F18642F26D830
:1030C000891B89B27BB1012B22D11DE034F811306C
:1030D0001B0A00F8013B14F81130491C521E00F87D
:1030E000013B89B292B2002AF0D111E010F8013B05
:1030F0001B0224F8113010F8016B334324F811300F
:10310000491C521E89B292B2002AEFD100E001257B
:103110002846F0BD585000205001002070B5114DD8
:10312000491E89B200240E4BAD888E18642E13D828
:10313000491B89B20DE000BF33F811502D0A00F889
:10314000015B13F81150491C521E00F8015B89B253
:1031500092B2002AF0D100E00124204670BD0000A8
:10316000904F002050010020FDF7EEFCFEF72AFEF4
:10317000FEF73EFCFEF7FCFBFEF70EFDFEF728FD1A
:10318000FEF7E8FCFEF740FDFEF7C0FCFEF79EFCF4
:1031900000F0E2F8FEF70AFC00F0F8F8FEE70000A5
:1031A00010B5EFF3058179B9EFF3108111B9EFF3A1
:1031B000118119B106490968022905D0002408B116
:1031C00001F05AF9204610BD6FF00504FAE700003F
:1031D0006C00002070B50E46050002D0300E0028AD
:1031E00002D06FF0030410E0EFF3058078B9EFF33D
:1031F000108010B9EFF3118018B10B480068022855
:1032000005D0284601F07EFA0446204670BD2846C7
:1032100001F0C4FA04463146284601F093FA00282A
:10322000F3D1C41EF1E700006C00002010B54FF090
:103230000001EFF30582BAB9EFF3108212B9EFF390
:1032400011821AB1094A1268022A0DD048B1D0E998
:1032500002202AB1202807D3104601F089FA02E0A3
:1032600010B901F077FA0146084610BD6C00002045
:1032700038B50C4610B1210E002902D06FF00300C2
:1032800038BDEFF3058169B9EFF3108111B9EFF3A0
:10329000118119B10F490968022903D0214601F0B3
:1032A0008AFA38BD002100916A46214601F0CAFA27
:1032B00060B1009920460029F3D0074A4FF08051B1
:1032C0001160BFF34F8FBFF36F8F38BD6FF00200F7
:1032D00038BD00006C00002004ED00E0F8B51D468C
:1032E00016460C4610B1210E002902D06FF00300E3
:1032F000F8BDEFF3058169B9EFF3108111B9EFF370
:10330000118119B113490968022903D0F10704D0CA
:10331000012303E06FF00500F8BD0023B10701D5DC
:10332000002200E001222146009501F093FAF30704
:103330006FF001016FF0020206D0844206D1F8BDA1
:103340000846F8BD1046F8BD0442FCD1002DF9D066
:10335000F6E700006C000020EFF3058068B9EFF39A
:1033600010820949086812B9EFF311820AB10228E4
:1033700003D028B14FF0FF3070476FF00500704761
:1033800001200860002070476C00002010B5EFF3AA
:10339000058070B9EFF310820A49086812B9EFF39B
:1033A00011820AB1022804D0012805D04FF0FF3065
:1033B00010BD6FF0050010BD0220086001F024F977
:1033C000002010BD6C000020F8B5144603460E46E0
:1033D0004FF00005EFF30580E8BBEFF3108010B964
:1033E000EFF3118018B123480068022840D093B34E
:1033F0009E423DD84CB1A0680028E06803D0502818
:1034000036D3012002E008B132E00020012B05D0C4
:1034100010B31846A26801F0F0FD20E040B103208F
:103420000090002211460120A36801F02AFE04E06A
:1034300003220021012001F000FE050018D086B112
:1034400000231A46194601F093FE012809D02846A8
:1034500000F0C4FF00250BE0184601F0B1FD0500A7
:1034600006D00CB1216800E00021284600F0A2FF40
:103470002846F8BD6C00002038B50024E51E002861
:1034800004D000BFEFF30581B9B902E06FF0030487
:1034900011E0EFF3108111B9EFF3118119B1104967
:1034A0000968022909D000231A46194601F060FE76
:1034B000012800D02C46204638BD002100916946E5
:1034C00001F064FF0128F5D100980028F3D00549E8
:1034D0004FF080500860BFF34F8FBFF36F8FEAE764
:1034E0006C00002004ED00E02DE9FF414FEA0103EC
:1034F0004FF00005EFF30581039599BBEFF31081C1
:1035000011B9EFF3118119B11F490968022938D0A7
:1035100040B38026182100244AB3176807B13C46FF
:1035200097691FB139467F1E382F02D21779FF07DE
:1035300003D0002004B0BDE8F081576907B1BE0890
:10354000D2F808C0BCF1000F0DD0D5685C2D18D39F
:1035500012693AB137B18DE806103246214602F0C1
:1035600066F803900DE0D7685FB912694AB903AAFB
:10357000CDE90012B2B2214602F02CF8012800D0A9
:1035800003950398D6E700006C0000202DE9F04178
:10359000134C0F46054666692068001D00F0DAFCF2
:1035A000681C07D137B12168BDE8F0410D48091DFD
:1035B00000F030BD20683544B5424560216805D231
:1035C000A068BDE8F041091D00F00CBD6068091D50
:1035D00000F008FD206B854200D22563BDE8F08134
:1035E0001C0000208C0A00202DE9F041054600F067
:1035F00043FE2D4C2069401C206120682B4F10B1E8
:10360000E06930B32BE025602069012827D100262E
:1036100006EB860007EB800000F0D6FC761C382E07
:10362000F6D3234800F0D0FC2148143000F0CCFC45
:103630001F48283000F0C8FC1D483C3000F0C4FC96
:103640001B48503000F0C0FC194860601430A06086
:1036500005E02068E96AC06A884200D82560E06A0F
:10366000401CE0626864E86AA169884200D9A061F0
:1036700000EB800007EB8000291D00F0CBFC00F080
:103680001BFEE06900280CD02068E96AC06A884205
:1036900007D208494FF080500860BFF34F8FBFF347
:1036A0006F8FBDE8F08100001C000020DC050020C9
:1036B0003C0A002004ED00E038B500F0DDFD104CC0
:1036C000A068C8B90F4800F07FFC0E48143000F025
:1036D0007BFC0C482060143060600A4B00202833CB
:1036E000009003F1500210210A2001F0CAFCA060F2
:1036F00010B105A100F05EFEBDE8384000F0DCBD71
:1037000058000020A00A0020546D725100000000F3
:1037100030B4026C0B46002A0BD0C1681144C16062
:103720008468A14201D30168C16030BC1846FCF72F
:10373000D8BD30BC70472DE9F041856B1746044673
:103740000026026C82B1C7B1E068FCF7CAFDE168EF
:10375000206C091AE1602268914202D2A168081A1D
:10376000E060022F16D017E02068A8B9A06802F028
:1037700009F806460020A0600EE06068FCF7B1FD85
:10378000216C606808446060A168884204D32068A6
:10379000606001E005B16D1E6D1CA5633046BDE89B
:1037A000F08110B5044690F8590058B101280CD0AA
:1037B00002280FD0502080F31188BFF34F8FBFF342
:1037C0006F8FFEE7206B00F08BFD2046BDE81040B8
:1037D00000F086BD10BD000010484FF47051420744
:1037E00006D0C01D0D4920F00700411AC1F57051E7
:1037F0000B4A00230144C2E900030839103A21F0C2
:10380000070111604B600B600B1AC0E90013936055
:103810004FF000405360D0607047000070120020ED
:1038200080000020144E154CA6F29C474FF08058A3
:10383000DFF84C9012E000BF00F01EFDF068C56894
:10384000281D00F087FB2069401E2061E068401EB3
:10385000E06000F031FD2846FFF7A3FFE068002894
:10386000EAD138680128F9D9C9F80080BFF34F8F31
:10387000BFF36F8FF2E70000780A00201C000020E1
:1038800004ED00E070B51D46049C51B1C4F8002061
:10389000C4E90F010121204601F026FC84F84C50B8
:1038A00070BD2460F4E700002DE9F05F8846DDE993
:1038B0000B941546834691009A460A9EA522206BDA
:1038C000FCF721FD6FF00301206B01EB850108443B
:1038D00020F00707780707D0502080F31188BFF346
:1038E0004F8FBFF36F8FFEE70025B8F1000F0FD0A9
:1038F0005FF00000221818F8001082F8341018F851
:10390000001011B1401C1028F4D384F8435001E09A
:1039100084F83450382E00D33726E662C4E91365A4
:10392000201D00F05CFB04F1180000F058FB24613E
:10393000C6F138006462A061656584F8585052464B
:103940005946384600F096FA2060B9F1000F01D0D0
:10395000C9F80040BDE8F09F2DE9F0471E46DDE9BB
:10396000089417460D00804615D0002C11D0FFF7A3
:10397000A3FE04F11801C4F8008081E86002201D54
:1039800000F02DFB002F04D014F8280F40F00400A5
:103990002070BDE8F087502080F31188BFF34F8F6F
:1039A000BFF36F8FFEE7000030B5114900E011460C
:1039B0000A688242FBD34B685C18844203D140689A
:1039C00018444860084643681C18944209D1084CC2
:1039D000103C2468A24209D052681A4442600A6826
:1039E00012680260814200D0086030BD0460F9E7CF
:1039F0008000002070B5002441600B4D00619142B1
:103A000006D8D11A8269914206D2011D686807E082
:103A10009A4203D2994201D3012403E0011D286890
:103A200000F0E0FA204670BD5800002010B50446B2
:103A300000F022FCA06B28B15FF0000400F03CFC19
:103A4000204610BD0124F9E730B589B03C4D6EE049
:103A50000498002806DADDE90601059A90470498E3
:103A6000002864DB069C606910B1201D00F072FA2A
:103A700003A800F0D7F8024604980A2857D2DFE8D6
:103A800000F00505052D334A05052D3394F828006F
:103A900040F0010084F828000599A069059B0144C5
:103AA0002046FFF7A7FF68B3216A2046884794F8AD
:103AB000280040073BD5002000900598A16900230D
:103AC00042181946204601F081FFD8B9502080F3F2
:103AD0001188BFF34F8FBFF36F8FFEE714F8280FE5
:103AE00020F00100207022E094F8280040F001004E
:103AF00084F828000598A06128B181181346204653
:103B0000FFF778FF13E0502080F31188BFF34F8F49
:103B1000BFF36F8FFEE794F82800810703D4204697
:103B200000F0DEFB03E020F0010084F82800002212
:103B300004A9A86801F078FC002889D109B030BD3B
:103B4000580000202DE9FC410F46054600F0A0FD7D
:103B500001A800F067F80446019818B101F08AFE48
:103B6000BDE8FC81254EAFB170680068D0B3002776
:103B7000291B3A46B06800F05DFC01F07BFE00288E
:103B8000EED11F494FF080500860BFF34F8FBFF355
:103B90006F8FE5E7A542EBD801F06CFE3068274651
:103BA000C068C468201D00F0D5F994F828004107CA
:103BB00019D5A0692B4641193A462046FFF71AFF4E
:103BC000A8B100200346014600902A46204601F095
:103BD000FDFE60B9502080F31188BFF34F8FBFF313
:103BE0006F8FFEE707E020F0010084F82800216ACB
:103BF00020468847B4E70127BAE7000058000020B4
:103C000004ED00E006484168096829B14168C968C7
:103C1000C9684968016370474FF0FF31FAE7000057
:103C20001C00002070B5054601F03AFD064E044622
:103C30003069844203D200F009F8012000E000203E
:103C400028602046346170BD58000020F8B5194D39
:103C500020E0C068C4680668201D00F07BF9216A76
:103C60002046884794F82800400713D5A0693044BF
:103C7000B04206D924616060211D286800F0B2F9C5
:103C800008E000200346014600903246204601F03D
:103C90009DFE38B1286801680029DAD16968C5E954
:103CA0000010F8BD502080F31188BFF34F8FBFF391
:103CB0006F8FFEE75800002008484068401C4FF016
:103CC000500080F3118804D0BFF34F8FBFF36F8F84
:103CD000FEE7BFF34F8FBFF36F8FFEE78800002032
:103CE0000346002012B1994302D070470B42FCD02A
:103CF00001207047074C2068016841B1C06800216D
:103D0000D0F80000FFF71EFFFFF79EFEF3E701214A
:103D10000020F7E7580000202DE9F041044600F0AC
:103D2000ABFA94F9455004F1240609E0606A48B101
:103D3000304601F067FD08B100F0CCFB6D1E6DB29E
:103D4000002DF3DC4FF0FF3684F8456000F0B4FA44
:103D500000F092FA94F9445004F1100709E0206948
:103D600048B1384601F04EFD08B100F0B3FB6D1EBE
:103D70006DB2002DF3DC84F84460BDE8F04100F042
:103D80009BBA002804D0012803D0072803D00420C0
:103D90007047022070470620704700002DE9F0416F
:103DA0000546002700F074FC314E306808B9FFF773
:103DB00013FDF06805424BD1C5B3083568070ED036
:103DC00005F00700C0F108000544680707D050203F
:103DD00080F31188BFF34F8FBFF36F8FFEE72DB3D2
:103DE0007068854234D82248103001460C6801E0E2
:103DF00020460C466168A94202D221680029F7D109
:103E000031688C4224D007682168016060680837F7
:103E1000411B10290FD96019420708D0502080F3A8
:103E20001188BFF34F8FBFF36F8FFEE710E0416043
:103E30006560FFF7B9FD61687068401A7060B2682C
:103E4000904200D2B060F06801430020C4E9000154
:103E500001F010FD780707D0502080F31188BFF3E0
:103E60004F8FBFF36F8FFEE73846BDE8F08100004B
:103E70007000002010B5031F4FF080741C601B1FE2
:103E800021F001011960191F044B0B6014390A60FD
:103E9000091F6FF0020244380A6010BDB93C0008E7
:103EA0000020FFF7C3F9074C074D4FF0FF36606065
:103EB0003346022201216068FFF710FA2868804724
:103EC000F6E7000068010020C80000200020FFF78E
:103ED000ADF9074C074D4FF0FF36606033460222C4
:103EE00001216068FFF7FAF928688047F6E70000CB
:103EF00090010020E4010020014800680047000014
:103F0000CC0000200148006800470000E8010020C4
:103F10000148407970470000BC01002070B5094D90
:103F2000FF231A4605F5807606E000BF10F8014B26
:103F300054402A5D5A40335D491E89B2F6D242EAA6
:103F4000032070BDFC5A00080148808870470000BB
:103F5000AC010020D0E9013201699A60D0E9012367
:103F60005A604A68824201D182684A600022026136
:103F70000868401E08600868704700000449086827
:103F80000A688069D26A0968C2F138028A6170479A
:103F90001C000020034B036003F15C0008608020DC
:103FA00010607047B80B0020044B036003F15C0005
:103FB00008604FF48070106070470000140E0020FD
:103FC00000F0A0BB00F0F7BB00F108014FF0FF329A
:103FD000C0E90112C1600161002101607047002148
:103FE0000161704730B50B685A1C02D000F108021D
:103FF00002E0026904E02246546825689D42FAD92D
:1040000053684B6099608A60516008610168491C7F
:10401000016030BD42684A6093688B609368596064
:10402000916008610168491C0160704702482021C5
:104030004068FFF71DB900008801002002484FF4D6
:1040400080714068FFF714B9880100200248802180
:104050004068FFF70DB900008801002002484021A8
:104060004068FFF705B900008801002001490160A0
:1040700070470000D46C002010B50121034A0846A7
:10408000FFF7A2F90249086010BD0000FC5C0008BF
:104090008801002070B50D46124B134C4FF480413F
:1040A00050B1A0680068C26842F02002C2600022DD
:1040B0001846FCF73EFC09E001221846FCF739FCE3
:1040C000A0680068C16821F02001C16060684FF0FD
:1040D00001011DB1BDE87040FFF7CAB8BDE87040EE
:1040E000FFF778B8000402409001002038B5C824DA
:1040F000022000F05DF8FDF733FC0021054D0B4672
:104100002246009108B1092100E00421686801F00D
:104110005DFC38BDA401002038B5FDF721FC00216D
:10412000054C0B460A46009108B1082100E0032126
:10413000606801F04BFC38BDA401002038B5642450
:10414000012000F035F8FDF70BFC0021054D0B4672
:104150002246009108B1092100E00421686801F0BD
:1041600035FC38BDA401002038B50D4C3221208823
:1041700048434FF47A71B0FBF1F500206D1C00F05C
:1041800017F8FDF7EDFB00210B462A46009108B118
:10419000092100E00421606801F018FC38BD00002E
:1041A000A401002001480068FFF766B988010020DB
:1041B0000149C87070470000AC01002001498871B6
:1041C00070470000BC01002070B50D46124B134C27
:1041D0004FF4005150B1A0680068C26842F020025C
:1041E000C26000221846FCF7A4FB09E00122184631
:1041F000FCF79FFBA0680068C16821F02001C16046
:1042000060684FF001011DB1BDE87040FFF730B8A4
:10421000BDE87040FEF7DEBF0004024068010020E8
:1042200038B5FDF79DFB0021054C0B460A46009171
:1042300008B1082100E00321206801F0C7FB38BD68
:104240007C01002038B5FDF78BFB0A4D002430B10E
:1042500001F02CFA002302460621009405E001F04B
:104260001FFA0023024601210094286801F0AEFBEA
:1042700038BD00007C010020502080F31188BFF37E
:104280004F8FBFF36F8F0A494868401C4860012870
:104290000CD10848006810F0FF0F07D0502080F3C1
:1042A0001188BFF34F8FBFF36F8FFEE77047000099
:1042B0008800002004ED00E00849486828B1401E4D
:1042C000486001D180F311887047502080F3118835
:1042D000BFF34F8FBFF36F8FFEE700008800002011
:1042E00070B5002827D0144DA0F108046168E86873
:1042F000014207D1502080F31188BFF34F8FBFF3E5
:104300006F8FFEE722683AB1502080F31188BFF327
:104310004F8FBFF36F8FFEE78143616000F0B8F904
:1043200060686968084468602046FFF73DFBBDE8A7
:10433000704001F09FBA70BD700000204FF0E02087
:1043400000210161816105494FF47A720968B1FB6E
:10435000F2F1491E416107210161704718000020F8
:1043600010B5FBF777FF114910280ED300F1E020BC
:1043700090F8F0030A78904207D2502080F3118819
:10438000BFF34F8FBFF36F8FFEE70948006889685E
:1043900000F4E060884207D9502080F31188BFF311
:1043A0004F8FBFF36F8FFEE710BD00008800002025
:1043B0000CED00E010B5084B002200BF53F832406E
:1043C0001CB1521C082AF9D310BD43F8321003EB7C
:1043D000C201486010BD00009C05002010B504001B
:1043E0000AD000F013F894F8460000280CD12046BB
:1043F000BDE81040FFF774BF502080F31188BFF371
:104400004F8FBFF36F8FFEE710BD0000084A0021F9
:1044100002EBC1035B68834206D1002042F8310001
:1044200002EBC10148607047491C0829F0D370476E
:104430009C05002070B515460E460446FFF71CFF8C
:1044400094F944100020491C01D184F8440094F9E7
:104450004510491C01D184F84500FFF72DFFA06BE2
:1044600028B92A46314604F1240000F051F82046CC
:10447000BDE87040FFF750BC10B5020014D00F48E3
:10448000806B38B1502080F31188BFF34F8FBFF39A
:104490006F8FFEE700F0FCF800211046FFF776F87A
:1044A00001F0E8F9002807D105494FF08050086075
:1044B000BFF34F8FBFF36F8F10BD00001C000020B3
:1044C00004ED00E002498A6A026049694160704770
:1044D0001C00002001490120486270471C00002098
:1044E00010B50C4650B1094909681831FFF77AFD3B
:1044F0002046BDE810400121FFF748B8502080F366
:104500001188BFF34F8FBFF36F8FFEE71C000020B1
:1045100070B514460D4668B10A4909681831FFF7AD
:1045200079FD0CB14FF0FF3521462846BDE87040BB
:10453000FFF72CB8502080F31188BFF34F8FBFF3E3
:104540006F8FFEE71C00002010B51446030011D049
:104550001048826BB2B1026841F00041916101687C
:1045600018461831FFF756FD2046BDE810400121DE
:10457000FFF70CB8502080F31188BFF34F8FBFF3C3
:104580006F8FFEE7502080F31188BFF34F8FBFF38A
:104590006F8FFEE71C00002070B5194DAA6BF2B1B9
:1045A00041F000410160C4680CB3FFF7D3FC201D4B
:1045B000FFF7D0FCE06AA969884200D9A8611149D7
:1045C00000EB800001EB8000211DFFF723FDE06A76
:1045D0002968C96A884201D90120686270BD5020EB
:1045E00080F31188BFF34F8FBFF36F8FFEE750202A
:1045F00080F31188BFF34F8FBFF36F8FFEE700008A
:104600001C000020DC05002030B587B00024039496
:1046100005AA04A903A80494FFF7BCFCDDE9030183
:104620000094CDE90110002315A11748059A00F068
:10463000FEFF164D002868631FD001F097F901288E
:1046400009D0401C19D1502080F31188BFF34F8F3F
:10465000BFF36F8FFEE7502080F31188BFF34F8FB9
:10466000BFF36F8F4FF0FF3028630120E8616C616A
:1046700007B0BDE8304000F029BC07B030BD0000F5
:1046800049444C4500000000253800081C0000206B
:104690000248816B491C8163704700001C000020A8
:1046A000164810B5816B11B10121416210BD002186
:1046B00041628169124A01E0B9B1491E01EB8103EF
:1046C00052F82330002BF7D001EB810302EB830279
:1046D00002F1080453685B685360A34201D15B6830
:1046E0005360DA680260816110BD502080F3118848
:1046F000BFF34F8FBFF36F8FFEE700001C00002059
:10470000DC05002070B50E46040009D0300E0FD035
:10471000502080F31188BFF34F8FBFF36F8FFEE7F8
:10472000502080F31188BFF34F8FBFF36F8FFEE7E8
:10473000FFF7A2FD256825EA06002060FFF7BCFD13
:10474000284670BD0A4601460023014801F072B9AF
:10475000C13F000870B52020FFF720FB040005D002
:104760000025201D2560FFF72FFC2577204670BD12
:1047700038B558B120210446002000912060201D4A
:10478000FFF722FC01202077204638BD502080F31F
:104790001188BFF34F8FBFF36F8FFEE75022EFF307
:1047A000118182F31188BFF34F8FBFF36F8F0068C1
:1047B00081F3118870472DE9F041002788460400F5
:1047C0000AD05FEA18600FD0502080F31188BFF341
:1047D0004F8FBFF36F8FFEE7502080F31188BFF338
:1047E0004F8FBFF36F8FFEE7261D04F10C05FFF717
:1047F0004FFF2168F06841EA0801216017E0D0E925
:10480000001601F07F425301236821F07F4102D45A
:104810000B4203D10AE031EA030307D1D20100D5EC
:104820000F43216841F00071FFF7B6FE3046A84201
:10483000E5D12068B843206001F01CF82068BDE88D
:10484000F081000013460A460146014801F0F2B823
:10485000C53F00082DE9F0479A46DDF820909046C4
:104860000D4604004FF0000709D0280E0FD050204D
:1048700080F31188BFF34F8FBFF36F8FFEE7502097
:1048800080F31188BFF34F8FBFF36F8FFEE71DB129
:1048900000F0F8FE40B112E0502080F31188BFF321
:1048A0004F8FBFF36F8FFEE7B9F1000F07D0502095
:1048B00080F31188BFF34F8FBFF36F8FFEE7FFF7D1
:1048C000E7FE2668524629463046FFF709FA30B11E
:1048D000B8F1000F1AD02068A843206016E0B9F1A3
:1048E000000F13D0B8F1000F01D04FF08077BAF16C
:1048F000000F01D047F0806745EA07014A46201DB6
:10490000FFF722FE00F0B6FF18B10AE000F0B2FF98
:104910001FE011494FF080500860BFF34F8FBFF385
:104920006F8FFFF72BFB0646800110D4FFF7A4FC26
:104930002668524629463046FFF7D2F928B1B8F129
:10494000000F02D02068A8432060FFF7B5FC26F0D6
:104950007F463046BDE8F08704ED00E038B50446F8
:104960004FF0FF3000900B48002301221F214068C8
:10497000FFF770FF042809D004DC012806D00228C4
:1049800005D103E0082801D0102800D120800120A3
:1049900038BD00008801002010B50020FEF746FC5D
:1049A00001494860012010BD8801002001460348EC
:1049B00010B54068FFF7FFFE012010BD8801002000
:1049C00010B5014601220248FBF75CFD012010BD35
:1049D0009C0100207CB5254C012808D0022802D07B
:1049E000032802D003E0224800E02248A060A0682B
:1049F0000025C560416033B14FF48051012B05D0D3
:104A0000022B0BD106E08560056107E081604FF461
:104A1000C06102E081604FF480610161FCF754FEE7
:104A200008B1FBF72CFDA0680168CA6822F02002DB
:104A3000CA600168CA6822F04002CA600E4A0321B7
:104A4000FCF742FF09480D490C300160C5808580A4
:104A500006490820CDE900018201002308A10C4885
:104A600000F0B8FD012800D000207CBD900100209E
:104A7000C4030020300400205D1C0008CA6B002025
:104A80006D6173746572207472616E730000000052
:104A9000CD3E0008044989680A68506008680168CA
:104AA0004906FCD5012070479001002038B5094C1B
:104AB00032210123208048434FF47A71B0FBF1F199
:104AC00005480090002205A0491C00F035FF6060F9
:104AD000012038BDA4010020053F00084D6173741A
:104AE00065722074696D657200000000F8B50026DB
:104AF0006846FFF765FF154CA07830B1144D0128CA
:104B000007D0022813D0032801D1FFF72DFB304630
:104B1000F8BDFFF701FB0020607020819DF80010B8
:104B200020892A18401C2081117002200BE0208966
:104B3000FF2807D89DF8001020892A18401C2081E2
:104B40001170E2E70320A070DFE70000AC01002055
:104B5000D06D002070B5174D0024A87820B1022830
:104B600003D0032804D109E00120FFF71FFF04460A
:104B70000120A870687802280ED104E00120FFF718
:104B80001DFB1020F1E7287830B90020FFF716FB55
:104B90001020FFF70BFF044600206870FFF7BCFAF7
:104BA000E878022803D10420FFF700FF04462046DE
:104BB00070BD0000AC01002070B5174C0025607876
:104BC00010B1012826D104E000210120FFF762FA8C
:104BD00020E0E08850B1E0680078FFF75BFFE06814
:104BE000401CE060E088401EE08013E00B48007845
:104BF00060B10020207000210120FFF74BFA022055
:104C00006070207820B1FFF771FA03E00120F1E72E
:104C1000FFF794FA284670BDAC010020D36C002049
:104C20000148007870470000AC01002010B5044630
:104C300009484FF0FF3300220F210068FEF74EFBBA
:104C4000012805D0022803D0042801D0082800D16B
:104C50002070012010BD00006401002010B500206C
:104C6000FEF7E4FA01490860012010BD640100204C
:104C70000146034810B50068FEF7FAFA012010BD9E
:104C80006401002010B5014601220248FBF7FAFB3F
:104C9000012010BD740100207CB5254C012808D0EE
:104CA000022802D0032802D003E0224800E0224874
:104CB000A060A0680025C560416033B14FF4805109
:104CC000012B05D0022B0BD106E08560056107E0C2
:104CD00081604FF4C06102E081604FF48061016146
:104CE000FCF7F2FC08B1FBF7CAFBA0680168CA68D0
:104CF00022F02002CA600168CA6822F04002CA603D
:104D00000E4A0321FCF7E0FD09480D490C30016013
:104D1000C580858006490520CDE9000100234FF4B8
:104D2000007208A10A4800F055FC01207CBD00007B
:104D300068010020C4030020300400202D1D00085D
:104D400020510020736C617665207472616E73006F
:104D5000A13E0008044989680A6850600868016833
:104D60004906FCD5012070476801002032214843E4
:104D70004FF47A71B0FBF1F108B5064800900223B8
:104D8000002205A0491C00F0D7FD0649086001205B
:104D900008BD0000F93E0008536C61766520746917
:104DA0006D6572007C01002038B500246846FFF76D
:104DB00069FF1349487830B1124A012807D0022808
:104DC00010D0032801D1FFF73DFA204638BD00205E
:104DD00088809DF8003088880244401C88801370C9
:104DE00002200BE08888FF2807D89DF800308888CB
:104DF0000244401C88801370E5E703204870E2E716
:104E000098000020904E002070B5084D002468786E
:104E100010B1022804D100E00120FFF729FF044669
:104E2000FFF7FEF901206870204670BD9800002051
:104E300070B5124C0025207810B101281CD104E077
:104E400000210120FFF7C0F916E0608850B1A0688A
:104E50000078FFF77FFFA068401CA0606088401EBC
:104E6000608009E00820FFF703FF054600210120CC
:104E7000FFF7AAF900202070284670BD9800002096
:104E800010B5CB085C4201EBC40401219140C25C27
:104E90001844407842EA0020E040491E0840C0B271
:104EA00010BD70B5CC08654201EBC505AB400121D2
:104EB0009140491EA9400519025D6E7842EA06221A
:104EC0008A431A430255100A687070BD1CB53748F2
:104ED0000168374A914207D1502080F31188BFF30F
:104EE0004F8FBFF36F8FFEE700683149491E88423C
:104EF00007D1502080F31188BFF34F8FBFF36F8F1E
:104F0000FEE72C4908780190FF20087008788DF89A
:104F100000009DF800009DF8002000F0F000904295
:104F200007D0502080F31188BFF34F8FBFF36F8FEE
:104F3000FEE79DF80000204B00F05000187007209D
:104F4000986005E09DF8002052008DF80020401E7A
:104F50009DF800201206F5D49860032807D0502051
:104F600080F31188BFF34F8FBFF36F8FFEE74FF4CD
:104F700040709860019808700C482030016841F436
:104F800070010160016841F070410160FFF7D6F9DE
:104F900000205860FBF726F90848016841F04041BD
:104FA0000160FBF70BF900201CBD000000ED00E0E4
:104FB00071C20F4100E400E08800002034EF00E0FF
:104FC00010B50C4648B184420FD9502080F31188A7
:104FD000BFF34F8FBFF36F8FFEE7502080F3118830
:104FE000BFF34F8FBFF36F8FFEE70222002100F067
:104FF00024F8002800D0846310BD38B50C4648B1B1
:1050000084420FD9502080F31188BFF34F8FBFF334
:105010006F8FFEE7502080F31188BFF34F8FBFF3EF
:105020006F8FFEE70221134600220091114600F027
:1050300028F8002800D0846338BDF8B517460E461E
:10504000050014D0DEB105FB06F05030FEF7A6FED9
:1050500004000AD0002084F8460004F150023B46C8
:10506000314628460094FEF70DFC2046F8BD50203E
:1050700080F31188BFF34F8FBFF36F8FFEE70020DF
:10508000E3E738B5049D18B153B1CAB181B120E04E
:10509000502080F31188BFF34F8FBFF36F8FFEE76F
:1050A000502080F31188BFF34F8FBFF36F8FFEE75F
:1050B000502080F31188BFF34F8FBFF36F8FFEE74F
:1050C00039B1502080F31188BFF34F8FBFF36F8F3A
:1050D000FEE750241C46012384F846302B460094FA
:1050E000FEF7D0FB204638BD70B50D46040025D034
:1050F000FFF7C2F8D4E90F20216802FB0011A1607C
:105100000021A163216861600A46D4E90F01401EB5
:1051100000FB0121E16021464FF0FF3001F8440F10
:10512000487004F110008DB1FEF74EFF04F1240029
:10513000FEF74AFFFFF7C0F8012070BD502080F352
:105140001188BFF34F8FBFF36F8FFEE721690029EE
:10515000F0D000F057FB0028ECD004494FF080500D
:105160000860BFF34F8FBFF36F8FE3E704ED00E0FC
:105170002DE9FF4782B01D468A464FF00008040023
:1051800003D0BAF1000F08D011E0502080F311884D
:10519000BFF34F8FBFF36F8FFEE7206C38B1502005
:1051A00080F31188BFF34F8FBFF36F8FFEE7022D9F
:1051B0000AD1E06B012807D0502080F31188BFF39B
:1051C0004F8FBFF36F8FFEE700F05CFA3F4F4FF059
:1051D00000094FF0805648B9049838B1502080F348
:1051E0001188BFF34F8FBFF36F8FFEE7FFF744F8CF
:1051F000A06BE16B884207D3022D05D00498D0B193
:10520000B8F1000F1AD01EE02A4651462046FEF79C
:1052100092FA616A19B104F1240000F0F3FA20B1A6
:105220003E60BFF34F8FBFF36F8FFFF745F801204C
:1052300006B0BDE8F087FFF73FF822E06846FFF7C9
:1052400041F94FF00108FFF737F8FFF721FAFFF7B0
:1052500013F894F94400401C01D184F8449094F967
:105260004500401C01D184F84590FFF725F804A9BA
:10527000684600F075F930B12046FEF74DFD00F0AC
:10528000F9FA0020D4E7FEF7F7FFA06BE16B884244
:1052900013D1FFF711F804F110000499FFF720F97A
:1052A0002046FEF739FD00F0E5FA00289ED13E6069
:1052B000BFF34F8FBFF36F8F98E7FEF7FDFF2046D8
:1052C000FEF72AFD00F0D6FA90E7000004ED00E0BA
:1052D0002DE9F0471F4690468946040003D0B9F1F6
:1052E000000F08D011E0502080F31188BFF34F8FDA
:1052F000BFF36F8FFEE7206C38B1502080F3118828
:10530000BFF34F8FBFF36F8FFEE7022F0AD1E06B21
:10531000012807D0502080F31188BFF34F8FBFF3CF
:105320006F8FFEE7FFF71CF85020EFF3118680F334
:105330001188BFF34F8FBFF36F8FA06BE16B884273
:1053400006D3022F04D0002086F31188BDE8F08731
:1053500094F945503A4649462046FEF7ECF9681C58
:1053600004D06D1C84F845500120EDE7606A0028E8
:10537000FAD004F1240000F045FA0028F4D0B8F186
:10538000000FF1D00121C8F80010EDE770B50E460E
:10539000040009D0206C78B1502080F31188BFF34D
:1053A0004F8FBFF36F8FFEE7502080F31188BFF35C
:1053B0004F8FBFF36F8FFEE7206848B9A06838B100
:1053C000502080F31188BFF34F8FBFF36F8FFEE73C
:1053D000FEF7C6FF5020EFF3118580F31188BFF36D
:1053E0004F8FBFF36F8FA16BE06B884218D994F990
:1053F0004500491CA163411C04D0401C84F84500B1
:1054000001200EE0606A0028FAD004F1240000F0C8
:10541000F9F90028F4D0002EF2D001203060EFE737
:10542000002085F3118870BD2DE9F747002683B071
:105430008A46040003D0BAF1000F08D011E05020D2
:1054400080F31188BFF34F8FBFF36F8FFEE7206C9F
:1054500038B1502080F31188BFF34F8FBFF36F8FA7
:10546000FEE700F00FF9DFF8F4804FF000094FF08D
:10547000805748B9059838B1502080F31188BFF3A0
:105480004F8FBFF36F8FFEE7FEF7F6FEA56BC5B13A
:1054900051462046FEF73CF96D1EA563206950B1C8
:1054A00004F1100000F0AEF928B1C8F80070BFF3A5
:1054B0004F8FBFF36F8FFEF7FFFE012006B0BDE8F0
:1054C000F087059808B11EB106E0FEF7F5FE27E06B
:1054D0006846FEF7F7FF0126FEF7EEFEFFF7D8F865
:1054E000FEF7CAFE94F94400401C01D184F84490B0
:1054F00094F94500401C01D184F84590FEF7DCFE8C
:1055000005A9684600F02CF8002820460AD0FEF7CE
:1055100003FC00F0AFF92046FEF788FA0028B3D06C
:105520000020CBE7FEF782FA90B104F12400059940
:10553000FEF7D6FF2046FEF7EFFB00F09BF90028B0
:10554000A2D1C8F80070BFF34F8FBFF36F8F9BE7F6
:105550002046FEF7E1FB00F08DF995E704ED00E051
:105560002DE9F0410C46050011D0C4B1FEF784FED0
:10557000174B5A696E682068911B471C17D02F681B
:105580009B6A9F4219D0964217D8012410E0502000
:1055900080F31188BFF34F8FBFF36F8FFEE750206A
:1055A00080F31188BFF34F8FBFF36F8FFEE70024A6
:1055B000FEF782FE2046BDE8F081884205D9401AF8
:1055C00020602846FEF77EFFF1E700202060DCE740
:1055D0001C0000202DE9FF5F8346DDE90E87994618
:1055E00016468A469000FEF7D9FB05001CD05C20C9
:1055F000FEF7D4FB040014D00020256384F8590082
:10560000CDE90240CDE900874B4632465146584627
:10561000FEF74AF92046FDF7E7FF012004B0BDE898
:10562000F09F2846FEF75CFE4FF0FF30F6E7F0B53E
:1056300085B0DDE90B640A9DA6B1DCB15C2700975B
:105640002663022684F85960002604AFCDE902469D
:10565000CDE90057FEF728F92046FDF7C5FF04986D
:1056600005B0F0BD502080F31188BFF34F8FBFF31A
:105670006F8FFEE7502080F31188BFF34F8FBFF389
:105680006F8FFEE70548C16919B1806B18B1002022
:105690007047012070470220704700001C00002066
:1056A00001484069704700001C00002010B5FEF75B
:1056B00057FE0148406910BD1C0000202DE9F04153
:1056C0002E4C0027A06B40B1206A401C2062606A0B
:1056D00000B101273846BDE8F0816669761C666135
:1056E00013D16068006838B1502080F31188BFF38F
:1056F0004F8FBFF36F8FFEE76068A1686160A060A5
:10570000A06A401CA062FEF77DFA206BDFF8708073
:10571000864209D36068006880B16068C068C56867
:10572000686886420DD220632068C06A00EB800161
:1057300058F821000128CAD90127C8E74FF0FF30E7
:10574000F1E7281DFEF706FCA86A18B105F118005C
:10575000FEF700FCE86AA169884200D9A06100EB6D
:10576000800108EB8100291DFEF754FCE86A2168DE
:10577000C96A8842CED30127CCE700001C00002074
:10578000DC05002070B504004FF0000133D01B4D44
:105790002868844207D0502080F31188BFF34F8FD0
:1057A000BFF36F8FFEE7206D38B1401E2065E36CBC
:1057B000E26A9A421FD040B11DE0502080F3118868
:1057C000BFF34F8FBFF36F8FFEE7201DFEF7C2FBC5
:1057D000E06CE062C0F13800A061E06AA96988422B
:1057E00000D9A861064900EB800001EB8000211D73
:1057F000FEF710FC0121084670BD00001C000020CF
:10580000DC05002070B5C068C46854B104F118000C
:105810000646FEF79FFB144DA86B50B13146134866
:1058200015E0502080F31188BFF34F8FBFF36F8FC7
:10583000FEE7201DFEF78EFBE06AA969884200D9C9
:10584000A8610B4900EB800001EB8000211DFEF7F1
:10585000E1FBE06A2968C96A884202D901206862CE
:1058600070BD002070BD00001C000020640A0020F4
:10587000DC0500202DE9F0472C4D00242746A86BBD
:1058800038B1FEF7F9FCA86B401EA863A86B40B1C5
:1058900046E0502080F31188BFF34F8FBFF36F8F26
:1058A000FEE72969224E0120D1B3A6F59169804611
:1058B0003068E0B1F068C46804F11800FEF74AFBF4
:1058C000201DFEF747FBE06AA969884200D9A8615C
:1058D00000EB800109EB8100211DFEF79BFBE06AD4
:1058E0002968C96A8842E3D3C5F82480E0E70CB18F
:1058F000FEF788F92C6A4CB14FEA0806FFF7DEFE86
:1059000000B16E62641EF9D100202862686A38B165
:105910000849012738070860BFF34F8FBFF36F8F27
:10592000FEF7CAFC3846BDE8F08700001C000020E6
:10593000640A002004ED00E02DE9FC4781461E4684
:10594000174688462C200A9DFEF728FA04000AD044
:10595000002084F82800CDE9005433463A464146F9
:105960004846FDF7F9FF2046BDE8FC8710B586B034
:10597000FDF7A2FE114CA068B8B10020039004907E
:1059800005AA04A903A8FEF70FFBDDE903213020D7
:105990008DE8070000230AA10B48059AFFF747FE90
:1059A000E06010B106B0012010BD502080F31188D6
:1059B000BFF34F8FBFF36F8FFEE70000580000204A
:1059C000546D722053766300F53C00082DE9FF41C9
:1059D0001E46134602000A9D4FF0000016D0144CDC
:1059E000A768002F0FD0CDE900130292062917DA1D
:1059F000FFF748FE02284FF000030FD0002269464F
:105A0000A068FFF7B5FB04B0BDE8F081502080F33B
:105A10001188BFF34F8FBFF36F8FFEE72A46EEE783
:105A20000023324669463846FFF752FCEBE7000098
:105A3000580000201FB51C466FF00103CDE900306F
:105A4000CDE9021204480023224669468068FFF728
:105A50003FFC04B010BD000058000020205D00088D
:105A60000000000000000000000000000000000036
:105A7000000200001800000000000000000000000C
:105A8000145D00080000000000000000000000009D
:105A900000000000000200001800000000000000EC
:105AA000000000000C5D0008000000000000000085
:105AB00000000000000000000002000018000000CC
:105AC00000000000000000000100020003000400CC
:105AD000050006000700080009000A00000610166D
