:020000040800F2
:10000000D85E00205D020008B31D0008551A0008E4
:10001000B11D00080F040008A12200080000000024
:100020000000000000000000000000009D0100082A
:10003000A504000800000000F9010008B91E00082E
:1000400077020008770200087702000877020008AC
:10005000770200087702000877020008770200089C
:10006000770200087702000877020008770200088C
:10007000770200087702000877020008770200087C
:10008000110400081D040008770200087702000828
:10009000770200087702000877020008770200085C
:1000A000770200087702000877020008770200084C
:1000B000770200087702000877020008770200083C
:1000C000770200087702000877020008051E000882
:1000D000770200087702000829220008652200083C
:1000E000770200087702000877020008770200080C
:1000F00077020008770200087702000877020008FC
:1001000077020008770200087702000877020008EB
:100110007702000877020008851F000877020008B0
:1001200077020008770200087702000877020008CB
:1001300077020008770200087702000877020008BB
:1001400077020008770200087702000877020008AB
:10015000770200087702000877020008770200089B
:10016000770200087702000877020008770200088B
:1001700077020008770200087702000800000000FC
:100180007702000877020008DFF80CD000F002F9CF
:100190000048004789350008D85E00202C4B1968BC
:1001A0000868B0E8F04F80F30988BFF36F8F4FF015
:1001B000000080F3118870470000000008480068C4
:1001C000006880F308884FF0000080F3148862B65E
:1001D00061B6BFF34F8FBFF36F8F00DF00BF00BF6B
:1001E00008ED00E0DFF80C00016841F470010160E7
:1001F000704700BF88ED00E0EFF30980BFF36F8F19
:10020000134B1A681EF0100F08BF20ED108A20E96A
:10021000F04F106009B44FF0500080F31188BFF325
:100220004F8FBFF36F8F04F0A7FB4FF0000080F3F8
:10023000118809BC19680868B0E8F04F1EF0100F6B
:1002400008BFB0EC108A80F30988BFF36F8F704746
:100250001C000020EFF3058070470000064880472F
:1002600006480047FEE7FEE7FEE7FEE7FEE7FEE79B
:10027000FEE7FEE7FEE7FEE7691F000889010008C8
:100280002DE9F05F0546002092469B4688460646CB
:10029000814640241BE0284641464746224600F05E
:1002A00069F853465A46C01A914110D31146184670
:1002B000224600F050F82D1A67EB01084F462246FF
:1002C0000120002100F047F817EB00094E41201EE5
:1002D000A4F10104DFDC484631462A464346BDE826
:1002E000F09F40EA01039B0703D009E008C9121FF1
:1002F00008C0042AFAD203E011F8013B00F8013BE0
:10030000521EF9D27047D2B201E000F8012B491E0B
:10031000FBD270470022F6E710B513460A460446A2
:100320001946FFF7F0FF204610BD30B50B460146D9
:1003300000202022012409E021FA02F59D4205D384
:1003400003FA02F5491B04FA02F52844151EA2F12E
:100350000102F1DC30BD202A04DB203A00FA02F170
:10036000002070479140C2F1200320FA03F31943A3
:1003700090407047202A04DB203A21FA02F0002145
:10038000704721FA02F3D040C2F1200291400843A5
:1003900019467047064C074D06E0E06840F001033F
:1003A00094E8070098471034AC42F6D3FFF7F0FE0C
:1003B000206700084067000870B58C1810F8015BD2
:1003C00015F0070301D110F8013B2A1106D110F8EE
:1003D000012B03E010F8016B01F8016B5B1EF9D1F2
:1003E0002B0705D40023521E0DD401F8013BFAE778
:1003F00010F8013BCB1A921C03E013F8015B01F8E3
:10040000015B521EF9D5A142D8D3002070BDFEE792
:10041000014800F087B80000B0040020014800F057
:1004200081B800001005002001681823CAB2103AF4
:10043000B2FBF3F2054B6FF30901032A9B5CC36522
:1004400000D9091D8165084670470000486300080F
:1004500010B5014600208B698A6A4FF0C07453B111
:10046000B3F5005F15D072B1012A0CD0022A0AD070
:10047000032A09D104E01AB1012A06D0022A03D1C5
:10048000C96AC90100D5012010BDC96AA142FAD0CC
:1004900010BD002AF7D0012AF2D0022AF3D0032A95
:1004A000F3D010BD704704F037B8704704F054B86B
:1004B00030B513461CE0502484F31188BFF34F8FEE
:1004C000BFF36F8FC4888588AC4215D0C588046897
:1004D000645DC5886D1CC580C588B5F5847F01D96C
:1004E0000025C58001F8014B002484F31188521EB9
:1004F000002AE0D1981A30BD002080F31188F9E776
:1005000090F83510022903D0802141650120704701
:10051000052180F835100068016821F001010160B3
:10052000002070472DE9F84304464FF00009CDF84C
:10053000009063484FF41651A56D0068B0FBF1F7C9
:100540002E6894F85C10082000FA01F131420FD0B7
:1005500021680A6852070BD50A6822F004020A6073
:1005600094F85C108840A860606D40F00100606500
:1005700094F85C104FF0010808FA01F0304208D0FE
:1005800021684969090604D5A860606D40F0020041
:10059000606594F85C1004208840304208D02168DF
:1005A0000968890704D5A860606D40F004006065A3
:1005B00094F85C1010208840304218D021680968F7
:1005C000090714D5A86020680168490304D50068AC
:1005D000000308D5A16C07E00168C90503D40168D0
:1005E00021F008010160216C09B12046884794F888
:1005F0005C1020208840304231D021680968C9064B
:100600002DD5A86094F8350005282068016806D02B
:10061000490347D5006800031DD4616C1CE021F03C
:10062000160101602068416921F080014161206C60
:1006300008B9A06C20B12068016821F008010160B0
:1006400094F85C103F208840A86084F8349084F8C7
:100650003580216D1FE0E16B09B120468847606D50
:1006600000282BD0606DC00714D0052084F8350019
:100670002068016821F0010101600098401C009091
:10068000B84203D820680068C007F6D184F83490D7
:1006900084F83580E16C002910D001B02046BDE817
:1006A000F04308470168C905D5D4016821F010015D
:1006B000016084F8349084F83580CCE7BDE8F88395
:1006C000180000202DE9F041044600F04DF90646DF
:1006D0005CB1002584F83450022084F8350020688D
:1006E000016821F0010101600DE00120BDE8F08109
:1006F00000F03AF9801B052805D920206065032009
:1007000084F83500F2E720680068C007F0D122685D
:10071000116820480140D4E901031843D4E90336A5
:100720003343184363691843A3691843E3691843C3
:10073000236A18430843616A042903D1D4E90B13DF
:1007400019430843106020684069666A20F0070179
:1007500030460E43012704280CD1A06A0643E06A04
:1007600040B12046FFF774FE20B14020606584F858
:100770003570BAE7206846612046FFF755FE94F8C9
:100780005C203F2191408160656584F835700020D0
:10079000ACE700003F8010F02DE9F84F00224FF049
:1007A000010803254FF00F0E0B6808FA02F42340EE
:1007B000A3426ED14E68012E05D0022E03D0112E19
:1007C00001D0122E12D186684FEA420C05FA0CF7BE
:1007D000BE43CF6807FA0CF7374387604668A643E5
:1007E0000C79C4F30014944034434460C668570045
:1007F00005FA07FC8C6826EA0C06BC403443C4604A
:100800004C68022C01D0122C13D1D40800EB8404C4
:10081000A346D4F8209054074FEAD46A0EFA0AF699
:1008200029EA06090E6906FA0AF646EA0906CBF82D
:10083000206006680C7926EA0C0604F00304BC402C
:10084000344304604C68E40065D5364C266846F4B1
:1008500080462660246822F0030604F48044009455
:10086000314C3444A446D4F808489607370F0EFAA2
:1008700007F6B4432D4EB04201D1002624E02C4EA1
:10088000B04201D101261FE02A4EB04202D1022619
:100890001AE040E0284EB04201D1032614E0274E72
:1008A000B04201D104260FE0254EB04201D1052609
:1008B0000AE0244EB04201D1062605E0224EB042A5
:1008C00001D1072600E00826BE402643CCF8086880
:1008D0001E4E34684F689C43FF0300D51C433460B0
:1008E0001A4C241D26684F689E43BF0300D51E4343
:1008F0002660164E083634684F689C43FF0200D5C8
:100900001C433460114E0C3634684F689C43BF0260
:1009100000D51C433460521C102AFFF445AFBDE8DB
:10092000F88F0000443802400030014000000240CF
:100930000004024000080240000C02400010024087
:100940000014024000180240001C0240003C01401C
:10095000426931EA020200D10904816170470AB19B
:10096000816170470904FBE7014880687047000017
:100970000C00002070B5040025D094F83D0000253F
:1009800020B984F83C50204600F0B8F8242084F8C0
:100990003D002068016821F00101016020680168C4
:1009A00041F4004101602068016821F400410160C8
:1009B00000F04AFA4D4A6168914201D84C4900E082
:1009C0004C49884201D2012070BD4B492368B0FBDD
:1009D000F1F15E6826F03F060E435E606368934265
:1009E00006D94FF4967359434FF47A73B1FBF3F180
:1009F0002368491C1E6A26F03F063143196261686C
:100A0000914210D84900401EB0FBF1F2521CC2F3D3
:100A10000B02042A01D2042022E0B0FBF1F0401CBA
:100A2000C0F30B001CE0A268F2B301EBC10303EBBF
:100A30000116431EB3FBF6F35B1C43F480431B0516
:100A400049D092B301EBC10202EB0111401EB0FB91
:100A5000F1F0401CC0F30B0040F4804040F4004033
:100A60002168CA694CF6FF739A431043C861D4E900
:100A7000071001432068026822F0C00211430160A0
:100A8000D4E9030101432068826848F2FF339A43A6
:100A900011438160D4E9050108432168CA6822F046
:100AA000FF021043C86001E00EE016E02068016814
:100AB00041F0010101602564202084F83D00256398
:100AC00084F83E50002070BD01EB4106431EB3FB8D
:100AD000F6F35B1CB3E70120C2E701EB4101401EC6
:100AE000B0FBF1F0401CC0F30B00B7E7A08601009B
:100AF00080841E0000093D0040420F0010B586B002
:100B0000044614216846FFF705FC13492068884213
:100B100020D11248016841F0020101600068694675
:100B200000F002000590C0200090122001900120EA
:100B3000029003200390042004900948FFF72CFE44
:100B400006481030016841F400110160006800F4AB
:100B50000010059006B010BD00540040303802402F
:100B600000040240024881680278114481607047A5
:100B70000C0000200B4810B5016841F400710160C1
:100B8000016841F480610160016841F48071016095
:100B9000032000F08DF8002000F006F800F03EF889
:100BA000002010BD003C024010B5014688B0002274
:100BB000362000F05DF8362000F04CF81348002491
:100BC000016841F010010160006805A900F0100003
:100BD0000690684600F018F900F036F90C4940001C
:100BE000B0FBF1F10C480B4A491E026040F2E732BB
:100BF000C0E90324C0E9011400F06AFC10B101202F
:100C000008B010BD044800F0A5FCF9E740380240E8
:100C100040420F0000100040700500200C4882B0D8
:100C2000016841F480410160006800F48040009058
:100C30000748001F016841F08051016000680022F0
:100C400000F0805000900F21901E02B000F010B80C
:100C500044380240002809DB00F01F0201219140C6
:100C60004009800000F1E020C0F80011704700004A
:100C7000F0B40E4B1B680C46C3F30223C3F1070507
:100C8000042D00D90425191D072901D2002300E0F5
:100C9000DB1E012606FA05F1491E214099409E40BF
:100CA000761E16403143F0BC01F00ABB0CED00E0AB
:100CB000064900F0070208684FF6FF03184040EAB3
:100CC0000220034A10430860704700000CED00E06A
:100CD0000000FA052DE9F0470E46050065D0DFF863
:100CE0001481D8F80000F7B200F00F00B04207D22C
:100CF00088F80070D8F8000000F00F00B04254D11E
:100D000028683D4C810712D5400703D5206840F480
:100D1000E05020602878000703D5206840F4604048
:100D200020602068A96820F0F0000843206028783F
:100D3000C0072DD0304968680839012812D0022830
:100D400013D0032811D00968890700292DDA2168FA
:100D500021F0030101432160FFF706FE814641F2C5
:100D6000883A0EE009688903EFE709688901ECE732
:100D7000FFF7FAFDA0EB0901514502D90320BDE8B8
:100D8000F0872068696800F00C00B0EB810FEFD1AC
:100D9000D8F80010404601F00F01B14207D90770A2
:100DA000006800F00F00B04201D00120E7E728788A
:100DB000400705D52068E96820F4E050084320602A
:100DC0002878000706D52068296920F4604040EAA9
:100DD000C100206000F058F82168084AC1F30311EF
:100DE000515CC8400649086006480068FFF7DCFE11
:100DF0000020C4E7003C024008380240506300086D
:100E000018000020100000200F2202600C4A136816
:100E100003F003034360136803F0F0038360136877
:100E200003F4E053C36012684FF4E05303EAD202C4
:100E300002610448006800F00F000860704700007D
:100E400008380240003C024004480549006809682F
:100E5000044AC1F38221515CC84070471800002049
:100E600008380240606300080448054900680968C2
:100E7000044AC1F34231515CC84070471800002059
:100E80000838024060630008154810B5006810F08B
:100E90000C02144813D04110042A0FD0082A0ED196
:100EA0000F4C241F2268236802F03F025B0207D523
:100EB0002068C0F38810A0FB010106E0084610BDC1
:100EC0002168C1F38811A1FB00010023FFF7D8F9C5
:100ED0002168C1F30141491C4900B0FBF1F010BD8C
:100EE000083802400024F4002DE9F84F04006ED0C9
:100EF0002078DFF83C93C007A9F104054AD009F136
:100F000004000168C1F38101012908D00068C0F321
:100F1000810002280AD1D9F80000400206D52868CD
:100F2000800337D560680028E1D033E06068B0F511
:100F3000803F10D0B0F5A02F286810D020F480306A
:100F40002860286820F4802028606068A8B1FFF736
:100F50000BFD06460DE0286840F48030F4E740F4CD
:100F600080202860F7E700BFFFF7FEFC801B6428A5
:100F700073D828688003F7D50CE0FFF7F5FC064628
:100F800005E000BFFFF7F0FC801B6428F0D828685C
:100F90008003F7D42078DFF89C8280074FF0000AA6
:100FA0003ED5A348001D016811F00C0F08D0006861
:100FB000C0F3810002280BD1D9F80000400207D409
:100FC0002868800716D5E068012800D112E02BE1DF
:100FD000E068B8B10120C8F80000FFF7C5FC06467C
:100FE00005E000BFFFF7C0FC801B0228C0D82868BE
:100FF0008007F7D52868216920F0F80040EAC10091
:1010000028600DE0C8F800A0FFF7AEFC064604E03B
:10101000FFF7AAFC801B02281FD828688007F7D496
:101020002078000722D5824E83486169703671B1FD
:1010300001210160FFF798FC074604E0FFF794FCEC
:10104000C01B022809D830688007F7D50EE0C0F829
:1010500000A0FFF789FC074605E082E0FFF784FC6B
:10106000C01B02287DD830688007F7D4207840075D
:1010700068D5DFF8BCB100270BF13C0BDBF80000B2
:10108000C0000BD4DBF8001041F08051CBF8001009
:10109000DBF80000012700F080500090674E3068B8
:1010A000C00510D4306840F480703060FFF75CFCFD
:1010B000009005E0FFF758FC0099401A022850D82C
:1010C0003068C005F6D55A4EA0686C3601280FD09E
:1010D0000528306810D020F001003060306820F022
:1010E00004003060A068B8B1FFF73EFC00900FE04C
:1010F000306840F00100F4E740F004003060F7E7AA
:10110000FFF732FC0099411A41F28830814266D8DB
:1011100030688007F4D50EE0FFF726FC009007E06A
:10112000FFF722FC0099411A41F28830814256D8DB
:1011300030688007F4D42FB1DBF8001021F0805123
:10114000CBF80010A069C8B33949091D0968C1F37B
:10115000810102294AD00228504607D0C8F8600011
:1011600000E03CE0FFF700FC04463BE04746C8F8DF
:101170006000FFF7F9FB064605E000BFFFF7F4FB50
:10118000801B02282BD828688001F7D4D4E90701F6
:101190000843A16A2A4A490802EB0141626A41EA0E
:1011A0008211084394F82C1040EA0161C9F800103C
:1011B00001203866FFF7D8FB044606E036E000BFA2
:1011C000FFF7D2FB001B022809D828688001F7D559
:1011D0002CE000BFFFF7C8FB001B022802D9032048
:1011E000BDE8F88F28688001F4D41FE00128F7D00B
:1011F000D9F80000E26900F48001914214D1226A1A
:1012000000F03F0191420FD147F6C071626A014080
:10121000914209D1A26A00F44031914204D1E16ABD
:1012200000F07060884201D00120D9E70020D7E7A4
:101230000438024000004742800E474200700040E0
:101240000000FFFF7047000038B5016804464A6897
:101250008868C043430606D5C30704D1D3435B0661
:1012600001D4216C05E0830708D4D3431B0605D4C1
:10127000616C01B02046BDE830400847830603D5C5
:10128000430601D5C30551D4D3439B064ED4430630
:101290000AD494F85130032B49D0636D43F0040312
:1012A0006365CB688B680093830609D4636D43F054
:1012B000010363658B6800930B6823F040030B60A8
:1012C000C00506D4606D40F0080060652068806845
:1012D0000090606D002829D02068416821F0E0016D
:1012E0004160012084F85100900701D4D00722D03A
:1012F0002068416821F003014160114DE06C40B16C
:101300000565E06CFFF7FCF818B1606D40F0400037
:101310006065A06C002809D00565A06CFFF7F0F8A7
:10132000002803D0606D40F04000606538BDC8689B
:101330008868009038BD2046FFF784FF38BD000064
:10134000111E000870B5040005D00025A56294F8B0
:10135000510010B106E0012070BD84F850502046C5
:1013600000F030F8022084F851002068016821F074
:1013700040010160D4E901010843D4E9031211439B
:10138000084361690843218B01F400710843E16956
:101390000843216A0843A16A084321680860A069DC
:1013A000042101EA1040616A08432168486020680E
:1013B000C16921F40061C1616565012084F85100B3
:1013C000002070BD10B586B0044614216846FEF7B3
:1013D000A1FF17492068884228D1164800210268D9
:1013E00042F480520260006800F480500590114879
:1013F0001438026842F001020260006800F0010047
:101400000590E02000900220CDE901010320039027
:101410000520049069460848FFF7BEF9002205211F
:101420002320FFF725FC2320FFF714FC06B010BD96
:1014300000300140443802400000024070477047CD
:1014400070B590F83C20012A32D0012480F83C404D
:10145000022280F83D2003685A689D6822F07006D9
:101460000A6832435A60134B02689A4214D0B2F1B0
:10147000804F11D0104B9A420ED0104B9A420BD095
:101480000F4B9A4208D00F4B9A4205D00E4B9A420E
:1014900002D00E4B9A4204D1496825F080031943CB
:1014A000916080F83D40002180F83C10084670BDF6
:1014B000022070BD00000140000400400008004010
:1014C000000C0040000401400040014000180040B2
:1014D00010B5040003D094F83D0010B107E00120DE
:1014E00010BD002084F83C00204600F00DF80220DA
:1014F00084F83D00211D206800F04AFD012084F899
:101500003D00002010BD000008B500680649884273
:1015100008D10648016841F020010160006800F030
:101520002000009008BD0000001400404038024038
:10153000022180F83D1001688A6802F00702062A3D
:1015400003D00A6842F001020A60012180F83D10D0
:10155000002070470168CA6842F00102CA60006852
:10156000816801F00701062903D0016841F00101FB
:10157000016000207047704770B50446006801693B
:101580004FF00005C943890715D4C168C9438907CD
:1015900011D4E91E0161012020772068806980074D
:1015A000204602D0FFF7E7FF04E000F098F820465D
:1015B00000F096F8257720680169C943490717D4D8
:1015C000C168C943490713D46FF0040101610220C7
:1015D00020772068806910F4407F204602D0FFF712
:1015E000CAFF04E000F07BF8204600F079F8257788
:1015F00020680169C943090716D4C168C9430907AE
:1016000012D46FF008010161042020772068C069BE
:101610008007204602D0FFF7AEFF04E000F05FF83D
:10162000204600F05DF8257720680169C943C906A6
:1016300017D4C168C943C90613D46FF01001016102
:10164000082020772068C06910F4407F204602D02F
:10165000FFF791FF04E000F042F8204600F040F868
:10166000257720680169C943C90708D1C168C94302
:10167000C90704D1891E0161204600F033F82068B3
:101680000169C943090609D4C168C943090605D4DB
:101690006FF0800101612046FFF7D0FE20680169EC
:1016A000C943490609D4C168C943490605D46FF046
:1016B00040010161204600F01FF820680169C9431C
:1016C00089060BD4C168C943890607D46FF020018D
:1016D00001612046BDE87040FFF7B1BE70BD7047A4
:1016E0007047000000680349884201D1FFF73ABA09
:1016F0007047000000100040704770477047704707
:101700007047000070B5040004D094F8390000253B
:1017100010B10DE0012070BD84F83850204600F073
:101720009BFC606E08B913486066014620468847F6
:10173000242084F839002068C16821F40051C16078
:10174000204600F0ABFC2068016921F49041016162
:101750002068416921F02A0141612068C16841F493
:101760000051C160E563202084F8390084F83A0014
:10177000002070BD791700082DE9F04387B00646B8
:1017800014216846FEF7C6FD5649D6F800C05648F3
:1017900002250327072200248C451ED1524914310B
:1017A0000B6843F010030B60096801F0100105910C
:1017B000016841F0010101600068029400F001003D
:1017C00005907802CDE90005CDE9037269464748E6
:1017D000FEF7E2FF07B0BDE8F0834349DFF8108170
:1017E0001031444BC44556D1D1F800C04CF4003CF4
:1017F000C1F800C0096801F400310591016841F0A9
:10180000080101600068029400F008000590602063
:10181000CDE90005CDE9037269461846FEF7BCFF25
:10182000364D35484FF000682860C5E901844FF413
:101830008069C5E903496C61AC610420EC61C5E9CC
:101840000840C5E90A7428462C63FEF73BFF08B13F
:10185000FEF72BFE7563AE63284D274860351830C0
:10186000E5E802084020A5E81102244845F814499B
:101870006030AC61EC612C626C62FEF723FF08B152
:10188000FEF713FE3563002206212620AE63FFF724
:10189000EFF9262023E01A4EB4459BD10E6846F49A
:1018A00080260E60096801F480210591016841F0ED
:1018B000080101600068029400F0080005904FF4F0
:1018C0004070CDE90005CDE9037269461846FEF780
:1018D00063FF002205212720FFF7CAF92720FFF721
:1018E000B9F977E7001001403038024000000240AB
:1018F00000440040000C024088600240B004002018
:101900000048004010B5002372B190F83840012C17
:1019100010D0012480F8384090F83940202C0BD0AA
:1019200090F839401CB326E0C16B41F02001C1633F
:10193000012010BD022010BD0D291CD2DFE801F0EE
:1019400007090B0D0F1113151B1B1B252700026424
:1019500016E0426414E0826412E0C26410E00265A2
:101960000EE042650CE082650AE0C26508E00B29E2
:101970000BD00C290BD0C16B41F02001C1630123B6
:10198000002180F83810184610BD4266F8E78266DC
:10199000F6E7704770472DE9F843044690F83900A0
:1019A0001F4616460D46202850D1B5B1AEB194F869
:1019B000380001284AD0012084F838004FF0000890
:1019C000C4F83C80212084F83900FEF7CDFFA684BE
:1019D0008146E68484F8388026E00120BDE8F8835B
:1019E000E08C401EE084A0684B46B0F5805F4FF06D
:1019F00000024FF080012046009703D000F0E2FB88
:101A0000E8B90DE000F0DEFBC8B928882168C0F312
:101A100008004860206908B16D1C05E0AD1C03E0BA
:101A2000216815F8010B4860E08C0028D8D14B469E
:101A3000002240212046009700F0C4FB08B103209B
:101A4000CCE7202084F839000020C7E70220C5E752
:101A500070477047FEE710B5FEF7FCFB002800D08A
:101A6000012010BD0D4808B5016841F40011016066
:101A70000068002200F40010009005211020FFF7FC
:101A8000F7F81020FFF7E6F8002205211120FFF7F4
:101A9000EFF8BDE808401120FFF7DCB8303802400D
:101AA00038B51648FFF744FD00234FF4E1342246D1
:101AB0000321184601F0BAF800F022FF0020234667
:101AC00002220121009000F0DBFE00F0F5FC0C4A40
:101AD00000210C4801F0C6FD0B4C094A0021A06012
:101AE000483A0A4801F0BEFD054A2060243A002128
:101AF000074801F0B7FD606038BD00002C030020EE
:101B000010630008691E000800000020691D00081D
:101B1000211E00082DE9F04387B014216846FEF726
:101B2000F9FB2F480024016841F080010160016841
:101B300001F080010591016841F001010160016837
:101B400001F001010591016841F0020101600168A5
:101B500001F002010591016841F00801016001688E
:101B600001F008010591016841F010010160006871
:101B70001C4F00F010000590012210213846FEF79E
:101B8000EEFEDFF864804FF4C04600223146404646
:101B9000FEF7E5FEDFF85490012203214846FEF7E8
:101BA000DEFE102000900125CDE90154694638463B
:101BB0000394FEF7F1FD0096CDE9015469464046D5
:101BC0000394FEF7E9FD0320CDE900056946484688
:101BD000CDE90245FEF7E0FD07B0BDE8F083000067
:101BE0003038024000000240000402400010024071
:101BF0000D4810B50B4901600C49416000214FF4BC
:101C000080428160C0E9031241618161C16101626A
:101C1000FEF7B0FE002803D0BDE81040FEF745BC3B
:101C200010BD00000054004080020020801A060011
:101C3000104810B50E4901604FF4827141600021D7
:101C40008160C1604FF400720161C0E90512382261
:101C5000C0E90721416281620A21C162FFF772FB7C
:101C6000002803D0BDE81040FEF71FBC10BD0000E7
:101C700000300140D40200201CB500240F4800941D
:101C80000D490194016040F24731C0E901144FF65B
:101C9000FF71C16080218161FFF71AFC08B1FEF776
:101CA00004FC0094694605480194FFF7C9FB00282D
:101CB00001D0FEF7FAFB1CBD001400402C030020ED
:101CC0000C4810B50A4901604FF4E1314160002130
:101CD00081600C22C160C0E904128161C161FFF71B
:101CE00011FD002803D0BDE81040FEF7DEBB10BD9B
:101CF000001001406C0300200C4810B50A49016037
:101D00004FF4E1314160002181600C22C160C0E9E3
:101D100004128161C161FFF7F5FC002803D0BDE822
:101D20001040FEF7C2BB10BD00440040D8030020A5
:101D30000C4810B50A4901604FF4E13141600021BF
:101D400081600C22C160C0E904128161C161FFF7AA
:101D5000D9FC002803D0BDE81040FEF7A6BB10BD9B
:101D6000004800404404002000F09AFFFCE7000017
:101D7000F8B54FF0FF350C4E00952C4670680068A2
:101D80000168890601D54068C4B20094641C06D07D
:101D9000054801226946083000F00CF8EDE70348D9
:101DA00000688047F8BD0000A4010020F001002079
:101DB000FEE77047F0B5502383F31188BFF34F8FD0
:101DC000BFF36F8F4FF48474002315E00D7887887C
:101DD0000668F55585886D1C85808588A54200D9E3
:101DE00083808588C688B54206D1C5886D1CC580AC
:101DF000C588A54200D9C380521EE7D2002080F3D7
:101E00001188F0BD0148FFF71FBA0000D40200207E
:101E100010B5806B0021C187C186FFF713FA10BD92
:101E200001F0C4F9FCE70000F8B54FF0FF350C4EA7
:101E300000952C46B06800680168890601D54068A5
:101E4000C4B20094641C06D00548012269460C30D7
:101E5000FFF7B0FFEDE7034800688047F8BD0000DA
:101E60006C010020C400002086B01422104901A893
:101E7000FEF737FA0F4E642501AC01AB0A220021B0
:101E80000120009501F02AF901213046FEF760FD9E
:101E90005FF0000134F81100401C24F81100491CC7
:101EA000C9B20A29F6D3322001F08AFBE5E7000027
:101EB000346300080010024010B5502080F31188F0
:101EC000BFF34F8FBFF36F8F03F0F2FF18B10449D8
:101ED0004FF080500860002080F3118810BD000092
:101EE00004ED00E030B593B030216846FEF712FAF9
:101EF00014210CA8FEF70EFA19480025016841F0DC
:101F000080510160006800F0805011901548016810
:101F100041F4804101600068022400F48040119087
:101F200001200090000401908001CDE9064008AA3C
:101F30000420A82182E813000B906846FEF7D4FF26
:101F40000CA90F2081E831004FF4A0500F90E0025F
:101F5000109005210CA8FEF7BDFE13B030BD0000A7
:101F600040380240007000400548016841F47001AB
:101F7000016003494FF0006080390860704700003D
:101F800088ED00E00148FFF7F7BA00007005002077
:101F9000F0B50268254C264D264E274F274B4FF0B3
:101FA000804CA04209D0604507D0A84205D0B0427D
:101FB00003D0B84201D0984204D122F0700E4A6892
:101FC00042EA0E02A0421BD0604519D0A84217D0A9
:101FD000B04215D0B84213D0984211D0184DA84243
:101FE0000ED0184DA8420BD0174DA84208D0174D5F
:101FF000A84205D0164DA84202D0164DA84203D1E2
:1020000022F44075CA682A434D6922F080022A43AF
:1020100002608A68C2620A688262A04201D0984265
:1020200001D10969016301214161F0BD0000014056
:102030000004004000080040000C00400004014083
:1020400000400140004401400048014000180040A9
:10205000001C004000200040084901640849416418
:10206000084981640849C164084901650849416516
:10207000084981650849C16570470000531A000886
:10208000511A000895190008931900080117000853
:10209000FB160008FF160008FD1600082DE9F041A8
:1020A000044600680169E26821F44051114301616E
:1020B0002169A068E2690843616911430843216806
:1020C000CA6849F20C639A430243CA6020684169B6
:1020D000A26921F4407111434161E0691927642527
:1020E0003226B0F5004F354A354920684FF00008D8
:1020F00006D0884201D0904236D1FEF7B5FE35E0D9
:10210000884201D0904202D1FEF7AEFE01E0FEF718
:102110009BFE61684A18A0FB070148EB0803FEF725
:10212000AFF80146B0FBF5F00201B1FBF5F06FF03E
:102130001803584301EB800006EBC000B0FBF5F03C
:1021400000F0F80002EB4002B1FBF5F0584301EB60
:10215000800006EBC000B0FBF5F000F0070021683E
:1021600010448860BDE8F081FEF76EFE61688B0F59
:102170008A00A0FB0701FEF783F80146B0FBF5F0EB
:102180006FF01802504301EB800006EB0010B0FB2B
:10219000F5F000F0F002B1FBF5F002EB0012B1FB3C
:1021A000F5F06FF01803584301EB800006EB0010C8
:1021B000B0FBF5F000F00F00D1E700000014014083
:1021C000001001402DE9F041984617460E4604469E
:1021D000069D1DE0681C1BD02DB1FEF7C5FBA0EBD2
:1021E0000800A84214D92068C16821F4D071C160E8
:1021F0002068416921F001014161202084F8390003
:1022000084F83A00002084F838000320BDE8F0810B
:102210002068006836EA000004D00020B842D9D017
:102220000020F3E70120F9E738B50D4C206800687D
:10223000800606D5E16C2046884721686FF02000B3
:10224000086020680168090703D541680168416892
:1022500000910168490602D56FF04001016038BD68
:10226000D803002038B50D4C20680068800606D5DC
:10227000E16C2046884721686FF0200008602068E4
:102280000168090703D54168016841680091016848
:10229000490602D56FF04001016038BD44040020BA
:1022A000FEE700000FB4024610B504A9034B0398E3
:1022B00000F026F810BC5DF814FB00007135000832
:1022C0000907090E002804DB00F1E02080F8001463
:1022D000704700F00F0000F1E02080F8141D7047F7
:1022E00002E008C8121F08C1002AFAD170477047DF
:1022F000002001E001C1121F002AFBD1704700003D
:102300002DE9FF4F8BB09A460F460546002606E0A2
:1023100025280BD052460D9990476D1C761C2878C5
:102320000028F5D10FB03046BDE8F08F0024A0465C
:102330000122604900E0044315F8013F203B02FA06
:1023400003F00842F7D128782E2817D115F8010F8D
:1023500044F004042A280ED06FF02F022878A0F150
:10236000300109290AD808EB880102EB410100EB92
:1023700001086D1CF2E757F8048B6D1C287869285A
:102380003ED006DC0028CDD063280BD0642804D1D1
:1023900036E0732810D075284BD052460D999047DF
:1023A000761C85E017F8040B8DF8000000208DF8EE
:1023B0000100E946012003E057F8049B4FF0FF308D
:1023C00061074FF0000401D40AE0641C44450DDAB3
:1023D0008442FADB19F804100029F6D106E0641CE7
:1023E0008442FCDB19F804100029F8D1264404E0EB
:1023F00019F8010B52460D999047641EF8D257E028
:1024000001CF4FF00A0B002802DA40422D2102E0F2
:10241000210504D52B218DF82410012103E0E107CB
:1024200005D02021F7E70DF1200908910CE00021EB
:10243000F9E701CF4FF00A0BF9E75946FDF775FFB1
:1024400001F1300209F8012D0028F6D1ADEB0900A9
:1024500000F1200B600701D44FF00108D84502DDE0
:10246000A8EB0B0000E000208046002406E009A84D
:102470005246005D0D999047641C761C0898844272
:10248000F5DB04E0302052460D999047761CB8F1F8
:102490000001A8F10108F5DC05E019F8010B52462E
:1024A0000D999047761CBBF10001ABF1010BF4DCF8
:1024B0006D1C34E70928010070B5064D002428780A
:1024C000012802D00624204670BD286980470020DC
:1024D0002870F8E7A400002070B50C460988002594
:1024E00005292FD1417840F2CF760A028178114335
:1024F000C278491C1302027989B21A43531EB342AF
:1025000020D200232380012300F8013B2688761C7B
:102510002680560703D003EBD203DEB201E0C2F3FC
:10252000C70600F8016B23885B1C2380002300F0A2
:1025300037FF18B101F0E3FC054604E02088304481
:10254000208000E00325284670BD70B50C46098840
:10255000002505292FD1417840F2CF760A028178F3
:102560001143C278491C1302027989B21A43531EDF
:10257000B34220D200232380022300F8013B2388AA
:102580005B1C2380530704D0012303EBD203DEB28C
:1025900001E0C2F3C70600F8016B23885B1C2380AF
:1025A00000F04EFF18B101F0AAFC054604E02088B7
:1025B0003044208000E00325284670BD70B50C46ED
:1025C00009880026052928D1417805790A028178F1
:1025D0001143C278491C45EA02256A1E89B27C2A49
:1025E0001BD800222280032200F8012B228800231E
:1025F000521C22806A0000F8012B2288521C228083
:102600002A4600F057FF18B101F079FC064605E0B4
:10261000208800EB4500208000E00326304670BD96
:1026200070B50C4609880026052927D1417805791F
:102630000A0281781143C278491C45EA02256A1EC4
:1026400089B27C2A1AD200222280042200F8012BAF
:102650002288521C22806A0000F8012B2288521C1A
:1026600022802A4600F05EFF18B101F048FC0646C1
:1026700005E0208800EB4500208000E0032630467E
:1026800070BD2DE9F0410446088800270D460A2850
:1026900042D3607826790102A078227A0843401C50
:1026A0001FFA80F8E07846EA00266079731E01027E
:1026B000A0790843401C81B2E0797C2B42EA0022D9
:1026C000607A28D83AB3792A25D8B0EB420F22D1C4
:1026D000012304F10A0000F0EDFE98B900212980E1
:1026E000172121702988601C491C2980710000F87D
:1026F000011B29880023491C29803246414600F0ED
:10270000D9FE18B101F0FBFB074605E0288800EB75
:102710004600288000E003273846BDE8F08100002D
:1027200070B5064C0D4606492288401CFDF7D9FDC0
:102730002088401C2880002070BD000094000020EC
:10274000844E002038B50988002405290BD1417832
:102750000A0281781143491C027989B21AB9C278F8
:10276000FF2A03D012B10324204638BD00228DF881
:102770000120C078FF280CD08DF8002001231A46D4
:10278000684600F00DFE0028EED001F0B8FB0446CC
:10279000EAE701208DF80000F0E710B50988002471
:1027A000052902D00324204610BD417801230A02E6
:1027B0008178C01C1143491C89B21A4600F07AFE88
:1027C0000028F0D001F09BFB0446ECE72DE9F04136
:1027D0000D4609880024052926D9417843790A0243
:1027E00081781143491C8EB2C178027942EA0122F4
:1027F000510704D0012101EBD201C9B201E0C2F3BB
:10280000C701571EB7F5F66F0ED299420CD10123BE
:102810003146801D00F0C4FD18B101F070FB044684
:1028200003E00520288000E003242046BDE8F08175
:1028300070B50D460988002406291DD341780A0287
:1028400081781143C278491C1302027989B21A4374
:102850004379561E772E0FD85606360E9E420BD160
:102860000123801D00F026FE18B101F048FB04464C
:1028700003E00520288000E00324204670BD00000E
:102880002DE9F0411D46069B1746064629B1F7295A
:1028900003D8134C084621710EB102251BE01149E3
:1028A0002161114961611149E1601149A161002172
:1028B000E16110492162104961621049A1622A4612
:1028C000394600F0CDFC050005D102F09FFC28B18F
:1028D0006671012020702846BDE8F0810325FAE7E3
:1028E000A40000206133000885330008F532000899
:1028F000A932000839550008C1550008995500084B
:1029000070B5064D00246878012802D006242046C0
:1029100070BD6869804700206870F8E7CC0100202E
:10292000F8B50E460546002402F03EFC28BB308870
:10293000022823D3684601F05DFC009841780A0222
:1029400081781143C278491C1302027989B21A4373
:10295000500704D0012000EBD200C0B201E0C2F366
:10296000C7005AB16B78834208D10023A81C00F03D
:10297000D1FA10B101F0C3FA044600E00324204666
:10298000F8BDF8B50E460546002402F00DFC20BB4C
:102990003088022822D3684601F02CFC0098417848
:1029A0000A0281781143C278491C1302027989B264
:1029B0001A43500704D0012000EBD200C0B201E05E
:1029C000C2F3C70052B16B78834207D1A81C00F054
:1029D000DFFA10B101F093FA044600E00324204628
:1029E000F8BDF8B50E460546002402F0DDFBF8B947
:1029F000308802281BD3684601F0FCFB0098417820
:102A00000A0281781143C278491C1302027989B203
:102A10001A430CD06878B0EB420F08D10023A81CF1
:102A200000F0F4FA20B101F06AFA044600E0032451
:102A30002046F8BDF8B50E460546002402F0B4FB6A
:102A4000F0B9308802281AD3684601F0D3FB009809
:102A500041780A0281781143C278491C1302027935
:102A600089B21A430BD06878B0EB420F07D1A81C8B
:102A700000F000FB20B101F042FA044600E003241C
:102A80002046F8BDF8B50D460646002402F08CFB42
:102A900068BB288802282CD3684601F0ABFB00985D
:102AA000417805790A0281781143491C8FB2C178B7
:102AB00045EA012541790A0281791143C279491C0D
:102AC0001302027A89B21A437378B3EB450F0FD120
:102AD00001230A3000F09AFA30B900232A46394619
:102AE000B01C00F093FA10B101F009FA044600E0BE
:102AF00003242046F8BD38B50988002405290BD1E8
:102B000041780A0281781143491C027989B21AB9C5
:102B1000C278FF2A03D012B10324204638BD002218
:102B20008DF80120C078FF280CD08DF800200123FB
:102B30001A46684600F0EEF90028EED001F0DFF901
:102B40000446EAE701208DF80000F0E710B5098897
:102B50000024052902D00324204610BD417801231A
:102B60000A028178C01C1143491C89B21A4600F040
:102B70004DFA0028F0D001F0C2F90446ECE738B570
:102B8000054608880024052802D002F00DFB18B382
:102B9000684601F02FFB68782A790102A87808437B
:102BA000401C81B2E87842EA002200985307457938
:102BB00004D0012303EBD203DBB201E0C2F3C7036D
:102BC00052B1AB4208D10123801D00F0A3F920B11E
:102BD00001F095F9044600E00324204638BD38B5DD
:102BE00008880024052802D002F0DEFAD0B1684639
:102BF00001F000FB009841780A0281781143C27805
:102C0000491C1302027989B21A434379B3EB420F8C
:102C100008D10123801D00F0F9F920B101F06FF90E
:102C2000044600E00324204638BD000070B5154678
:102C30000E4608B102251FE0124C11481A46606189
:102C40001148A061114820611148E0610020206214
:102C5000104860621048A0621048E0622946304681
:102C600000F0B6F8050007D101F0D6FF30B1012021
:102C700084F8010001F0C4FA284670BD0325F9E785
:102C8000D52E0008CC010020F92E0008652E000882
:102C9000192E00087550000841510008DD50000849
:102CA000F8B54A4C607818B1032801D00620F8BD69
:102CB000684601F093FF002822D0BDF800000428E8
:102CC0001FD004DC012807D002287DD107E00828A6
:102CD0004AD0102878D153E00320607072E03B4A5C
:102CE000E3690832111D901F984728B9A0786179CF
:102CF000884201D1042001E001202FE001F0E2FF31
:102D000062E0E16801220878E0702271C20902D015
:102D1000487820711FE02D4E0025303616F835100A
:102D2000C9B1814214D10120207002F03DFA20B1D6
:102D300001F0D0F920810120607106EBC500234924
:102D400042680831E068904720710020207002E05E
:102D50006D1C102DE2DB207918B10220A07110202B
:102D6000CCE701F027FA2DE018480C3001F042FAC8
:102D700001F0B0F9D4E9031302466079984723E0E3
:102D80001248A5790C3001F035FA25B1012D0AD091
:102D9000022D17D10FE001F09DF902466079E1683C
:102DA00001F020FA0EE001F095F902466079E16841
:102DB00001F010FA06E001F08DF902466079E16851
:102DC00001F000FA01F0EEFA0020F8BDCC0100207D
:102DD0002DE9F04116460D4607460024FDF763FB3A
:102DE000334608222946384601F0ACFF60B1B5F5FC
:102DF000964F01D9232003E006496800B1FBF0F0AB
:102E000080B202F0C9F800B90324FDF74FFB204659
:102E1000BDE8F081A07F17002DE9F04116468846F5
:102E200007460025FDF73FFB0C4C2089042804D3FE
:102E300021890B4801F038F928B10525FDF736FB4B
:102E40002846BDE8F0810648007838702089C01E09
:102E500030800348401CC8F80000EFE7BC010020A8
:102E6000D45500202DE9F041002590460F46064636
:102E7000012802D90220BDE8F081FDF714FB134CB4
:102E8000A078012804D00525FDF710FB2846F2E7BD
:102E9000781E0127E060E7800670E28802EB0801F7
:102EA000E180E18801F000F9E188094A5318491CE2
:102EB000E1801870010AE0880244401CE080117033
:102EC00067700121002001F0A7F9DDE7BC010020B7
:102ED000D754002010B5FDF7E6FA064900208870A7
:102EE0000146012001F098F901F03EFABDE81040DA
:102EF000FDF7DCBABC01002010B5FDF7D4FA0021C3
:102F0000084601F089F901F007FABDE81040FDF725
:102F1000CDBA00002DE9F0470C4690460121064647
:102F20004FF0000901EBD80501F0B8F81749641E0D
:102F300001EBC007A1F11000083F4188A0B200EBEF
:102F40000802402A1CD8401AC0F3CC0400F0070A3B
:102F50000BE000BF3819641C16F8013BA4B208222C
:102F6000514602F066FB6D1EADB2012DF2D818F08D
:102F7000070207D033783819514602F05AFB01E0B6
:102F80004FF001094846BDE8F08700009401002099
:102F90002DE9F0470C469046012106464FF0000906
:102FA00001EBD80501F07AF81749641E01EBC00760
:102FB000A1F10800083F0188A0B200EB0802402AF6
:102FC0001CD8401AC0F3CC0400F0070A0BE000BF85
:102FD0003819641C16F8013BA4B20822514602F0CD
:102FE00028FB6D1EADB2012DF2D818F0070207D0F4
:102FF00033783819514602F01CFB01E04FF001090B
:103000004846BDE8F08700008C0100202DE9F04122
:1030100015460F460446002601F040F800EBC001BB
:1030200001EB001011497F1E01EBC0011048C839A7
:10303000C288B8B24319642B13D8801A80B20DE04D
:1030400014F8012B120221F8102014F8013B1A4346
:1030500021F81020401C6D1E80B2ADB2002DEFD1C2
:1030600000E001263046BDE8F08100000653002054
:10307000840100202DE9F04115460F460446002644
:1030800001F00CF800EBC00101EB001011497F1EAC
:1030900001EBC0011048C8398288B8B24319642BCB
:1030A00013D8801A80B20DE014F8012B120221F817
:1030B000102014F8013B1A4321F81020401C6D1E0B
:1030C00080B2ADB2002DEFD100E001263046BDE860
:1030D000F08100003E520020840100202DE9F843D9
:1030E0008046002408981F4615460E46B8F1010F89
:1030F00002D90220BDE8F88302F05CF8B8B1684656
:1031000001F078F8404601F05DF90098102100F8D0
:10311000011B310A00F8011B290A00F8016B00F8B5
:10312000031B690000F8025C00F8011C0FE0052099
:10313000E0E700BF37F81400010A009800F8011B0F
:10314000009017F81410641C00F8011BA4B2009042
:10315000A542EFD8062000EB450080B201F03EF911
:10316000082001F0AFFD00F001F8C3E738B50024F6
:10317000601E00900C48234601224FF4F071406815
:1031800001F0A8FC20280CD0402805D0802805D0CC
:10319000B0F5807F05D103E0042402E0032400E0C1
:1031A0000624204638BD00009C01002038B52B4C79
:1031B000207808B1062038BD684602F00DF870B3DB
:1031C0009DF80000012846D0022802D0042842D1F0
:1031D0000FE0224AA369921D911CC81F9847F0B9BD
:1031E00060782179884200D0C8B9042002F060F8E4
:1031F00031E0A0680121194B0278A270E170002132
:1032000013F12C0313F831506DB1954208D103EB43
:10321000C1014A681149891D9047E07003E01AE036
:10322000491C1029EEDB6078A8B1E07870B100216C
:10323000E180A17841F08002A1680A70E288521C06
:1032400092B2E2808854E088401CE080D4E9021306
:10325000E28820799847002038BD0000A4000020B3
:103260002DE9F0411F4615460E460024FDF71BF9D7
:103270003B4608222946304602F05CF860B1B5F5BD
:10328000964F01D9232003E006496800B1FBF0F016
:1032900080B202F031F900B90324FDF707F92046A6
:1032A000BDE8F081A07F17002DE9F0411646884661
:1032B00007460025FDF7F7F80C4CA088042804D336
:1032C000A1880B4800F0F0FE28B10525FDF7EEF8C7
:1032D0002846BDE8F081064800783870A088C01EF6
:1032E00030800348401CC8F80000EFE79800002039
:1032F000A44E00202DE9F04190460E4607460025D9
:10330000FDF7D1F8144C6078012806D05FF0050570
:10331000FDF7CCF82846BDE8F081701E0126A060BC
:1033200066800770628802EB08016180618800F0A6
:10333000BBFE6188094A5318491C61801870010A54
:1033400060880244401C60801170267001210020BA
:1033500001F04AF8DCE7000098000020A44E0020AD
:1033600010B5FDF7A0F8064900204870014601207D
:1033700001F03AF801F0B6F8BDE81040FDF796B854
:103380009800002010B5FDF78EF80021084601F0E6
:103390002BF801F095F8BDE81040FDF787B8000064
:1033A0002DE9F04704460120244F00EBD206A7F197
:1033B0001000491E458888B281184FF00009402945
:1033C00036D8401BC0F3CC0500F0070A02F007080E
:1033D0006BB1012B2ED120E078196D1CADB2082203
:1033E000514602F015F9761E04F8010BB6B2002E14
:1033F000F2D114F8012DC8F108018A40D0B2C840BA
:10340000207017E078196D1C14F8013BADB208224A
:10341000514602F00EF9761EB6B2012EF2D85FEADE
:10342000080207D023787819514602F002F901E02A
:103430004FF001094846BDE8F08700006001002018
:103440002DE9F047044617460120DFF8649000EBB1
:10345000D705A9F10800491E028888B2C1194FF0AA
:10346000000840291FD8801AC0F3CC0600F0070AD4
:103470000CE000BF09EB0600761CB6B208225146EC
:1034800002F0C6F86D1E04F8010BADB2002DF1D1AB
:1034900007F0070014F8012DC0F108018A40D0B2EE
:1034A000C840207001E04FF001084046BDE8F087B9
:1034B00058010020F0B51A4E491E89B20025174C5C
:1034C000F6888F18642F26D8891B89B27BB1012B0F
:1034D00022D11DE034F811301B0A00F8013B14F82A
:1034E0001130491C521E00F8013B89B292B2002AE9
:1034F000F0D111E010F8013B1B0224F8113010F854
:10350000016B334324F81130491C521E89B292B228
:10351000002AEFD100E001252846F0BD6C500020C4
:103520005001002070B5114D491E89B200240E4B88
:10353000AD888E18642E13D8491B89B20DE000BFE8
:1035400033F811502D0A00F8015B13F81150491C93
:10355000521E00F8015B89B292B2002AF0D100E05D
:103560000124204670BD0000A44F0020500100201F
:1035700013B54FF6FF73012269460248FEF70BFAB6
:1035800000981CBD6C030020FDF7F4FAFEF7AAFCBE
:10359000FEF7C0FAFEF766FAFEF792FBFEF7ACFB09
:1035A000FEF7C6FBFEF744FBFEF722FBFEF764FBCB
:1035B00000F020F8FEF774FA00F036F8FEE700009D
:1035C00010B5EFF3058179B9EFF3108111B9EFF37D
:1035D000118119B106490968022905D0002408B1F2
:1035E00001F06EF8204610BD6FF00504FAE7000008
:1035F0006C000020EFF3058068B9EFF310820949F1
:10360000086812B9EFF311820AB1022803D028B179
:103610004FF0FF3070476FF00500704701200860E1
:10362000002070476C00002010B5EFF3058070B9E2
:10363000EFF310820A49086812B9EFF311820AB158
:10364000022804D0012805D04FF0FF3010BD6FF0E4
:10365000050010BD0220086001F042F9002010BDF5
:103660006C0000202DE9FF414FEA01034FF00005F7
:10367000EFF30581039599BBEFF3108111B9EFF3D7
:10368000118119B11F490968022938D040B3802639
:10369000182100244AB3176807B13C4697691FB147
:1036A00039467F1E382F02D21779FF0703D000203A
:1036B00004B0BDE8F081576907B1BE08D2F808C070
:1036C000BCF1000F0DD0D5685C2D18D312693AB14A
:1036D00037B18DE806103246214602F0A2FB039076
:1036E0000DE0D7685FB912694AB903AACDE90012A3
:1036F000B2B2214602F068FB012800D0039503987E
:10370000D6E700006C0000202DE9F041134C0F4675
:10371000054666692068001D00F0E2FC681C07D1C0
:1037200037B12168BDE8F0410D48091D00F036BDF4
:1037300020683544B5424560216805D2A068BDE8DF
:10374000F041091D00F012BD6068091D00F00EFD7A
:10375000206B854200D22563BDE8F0811C0000206B
:10376000A00A00202DE9F041054600F0D5FE2D4CC1
:103770002069401C206120682B4F10B1E06930B3F4
:103780002BE025602069012827D1002606EB860062
:1037900007EB800000F0DCFC761C382EF6D32348C3
:1037A00000F0D6FC2148143000F0D2FC1F4828302D
:1037B00000F0CEFC1D483C3000F0CAFC1B485030E5
:1037C00000F0C6FC194860601430A06005E0206875
:1037D000E96AC06A884200D82560E06A401CE0625D
:1037E0006864E86AA169884200D9A06100EB8000A2
:1037F00007EB8000291D00F0D1FC00F0ADFEE06970
:1038000000280CD02068E96AC06A884207D20849BB
:103810004FF080500860BFF34F8FBFF36F8FBDE84C
:10382000F08100001C000020F0050020500A00205C
:1038300004ED00E038B500F06FFE104CA068C8B988
:103840000F4800F085FC0E48143000F081FC0C4855
:103850002060143060600A4B00202833009003F190
:10386000500210210A2001F097FFA06010B105A1BD
:1038700000F0F0FEBDE8384000F06EBE58000020B9
:10388000B40A0020546D72510000000030B4026C84
:103890000B46002A0BD0C1681144C1608468A14264
:1038A00001D30168C16030BC1846FCF71ABD30BCBA
:1038B00070472DE9F041856B174604460026026CDF
:1038C00082B1C7B1E068FCF70CFDE168206C091A11
:1038D000E1602268914202D2A168081AE060022FDA
:1038E00016D017E02068A8B9A06802F045FB06468C
:1038F0000020A0600EE06068FCF7F3FC216C6068BB
:1039000008446060A168884204D32068606001E0D8
:1039100005B16D1E6D1CA5633046BDE8F08110B584
:10392000044690F8590058B101280CD002280FD055
:10393000502080F31188BFF34F8FBFF36F8FFEE7E6
:10394000206B00F01DFE2046BDE8104000F018BEC0
:1039500010BD000010484FF47051420706D0C01D42
:103960000D4920F00700411AC1F570510B4A0023A0
:103970000144C2E900030839103A21F0070111603F
:103980004B600B600B1AC0E9001393604FF00040CE
:103990005360D06070470000841200208000002037
:1039A000144E154CA6F29C474FF08058DFF84C900F
:1039B00012E000BF00F0B0FDF068C568281D00F0FF
:1039C0008FFB2069401E2061E068401EE06000F02F
:1039D000C3FD2846FFF7A3FFE0680028EAD1386856
:1039E0000128F9D9C9F80080BFF34F8FBFF36F8F5B
:1039F000F2E700008C0A00201C00002004ED00E02B
:103A000070B51D46049C51B1C4F80020C4E90F01F3
:103A10000121204601F0F4FE84F84C5070BD246072
:103A2000F4E700002DE9F05F8846DDE90B941546C8
:103A3000834691009A460A9EA522206BFCF763FC00
:103A40006FF00301206B01EB8501084420F00707AC
:103A5000780707D0502080F31188BFF34F8FBFF352
:103A60006F8FFEE70025B8F1000F0FD05FF0000068
:103A7000221818F8001082F8341018F8001011B14C
:103A8000401C1028F4D384F8435001E084F83450EB
:103A9000382E00D33726E662C4E91365201D00F0F6
:103AA00062FB04F1180000F05EFB2461C6F13800EF
:103AB0006462A061656584F858505246594638469C
:103AC00000F0A2FA2060B9F1000F01D0C9F800405F
:103AD000BDE8F09F2DE9F0471E46DDE90894174642
:103AE0000D00804615D0002C11D0FFF7A3FE04F185
:103AF0001801C4F8008081E86002201D00F033FB4B
:103B0000002F04D014F8280F40F004002070BDE806
:103B1000F087502080F31188BFF34F8FBFF36F8F72
:103B2000FEE7000030B5114900E011460A68824204
:103B3000FBD34B685C18844203D14068184448604A
:103B4000084643681C18944209D1084C103C24686C
:103B5000A24209D052681A4442600A6812680260A0
:103B6000814200D0086030BD0460F9E78000002089
:103B700070B5002441600B4D0061914206D8D11A06
:103B80008269914206D2011D686807E09A4203D219
:103B9000994201D3012403E0011D286800F0E6FAF0
:103BA000204670BD5800002010B5044600F0B4FC5B
:103BB000A06B28B15FF0000400F0CEFC204610BDE1
:103BC0000124F9E730B589B03C4D6EE00498002837
:103BD00006DADDE90601059A90470498002864DBBF
:103BE000069C606910B1201D00F07AFA03A800F06D
:103BF000D7F8024604980A2857D2DFE800F00505F6
:103C0000052D334A05052D3394F8280040F00100B6
:103C100084F828000599A069059B01442046FFF718
:103C2000A7FF68B3216A2046884794F82800400718
:103C30003BD5002000900598A16900234218194641
:103C4000204602F0F9FAD8B9502080F31188BFF36A
:103C50004F8FBFF36F8FFEE714F8280F20F001009D
:103C6000207022E094F8280040F0010084F8280039
:103C70000598A06128B1811813462046FFF778FF08
:103C800013E0502080F31188BFF34F8FBFF36F8F85
:103C9000FEE794F82800810703D4204600F070FC6A
:103CA00003E020F0010084F82800002204A9A8689D
:103CB00001F0F8FE002889D109B030BD580000207D
:103CC0002DE9FC410F46054600F04EFE01A800F02C
:103CD00067F80446019818B102F002FABDE8FC81C9
:103CE000254EAFB170680068D0B30027291B3A4653
:103CF000B06800F0C3FC02F0F3F90028EED11F49D0
:103D00004FF080500860BFF34F8FBFF36F8FE5E730
:103D1000A542EBD802F0E4F930682746C068C468D1
:103D2000201D00F0DDF994F82800410719D5A0699D
:103D30002B4641193A462046FFF71AFFA8B100204A
:103D40000346014600902A46204602F075FA60B903
:103D5000502080F31188BFF34F8FBFF36F8FFEE7C2
:103D600007E020F0010084F82800216A20468847F7
:103D7000B4E70127BAE700005800002004ED00E096
:103D800006484168096829B14168C968C968496835
:103D9000016370474FF0FF31FAE700001C0000207C
:103DA00070B5054602F076F8064E04463069844246
:103DB00003D200F009F8012000E00020286020462E
:103DC000346170BD58000020F8B5194D20E0C0687E
:103DD000C4680668201D00F083F9216A20468847E0
:103DE00094F82800400713D5A0693044B04206D9A2
:103DF00024616060211D286800F0B8F908E0002007
:103E00000346014600903246204602F015FA38B1CA
:103E1000286801680029DAD16968C5E90010F8BD91
:103E2000502080F31188BFF34F8FBFF36F8FFEE7F1
:103E30005800002008484068401C4FF0500080F3B4
:103E4000118804D0BFF34F8FBFF36F8FFEE7BFF32E
:103E50004F8FBFF36F8FFEE78800002003460020DE
:103E600012B1994302D070470B42FCD00120704739
:103E7000074C2068016841B1C0680021D0F80000FB
:103E8000FFF71EFFFFF79EFEF3E701210020F7E793
:103E9000580000202DE9F041044600F03DFB94F964
:103EA000455004F1240609E0606A48B1304602F04A
:103EB000DFF808B100F032FC6D1E6DB2002DF3DCAE
:103EC0004FF0FF3684F8456000F046FB00F024FB1D
:103ED00094F9445004F1100709E0206948B13846CC
:103EE00002F0C6F808B100F019FC6D1E6DB2002D8D
:103EF000F3DC84F84460BDE8F04100F02DBB0028FD
:103F000004D0012803D0072803D0042070470220E2
:103F100070470620704700002DE9F0410546002754
:103F200000F022FD314E306808B9FFF713FDF0684C
:103F300005424BD1C5B3083568070ED005F0070020
:103F4000C0F108000544680707D0502080F31188AD
:103F5000BFF34F8FBFF36F8FFEE72DB370688542BD
:103F600034D82248103001460C6801E020460C4647
:103F70006168A94202D221680029F7D131688C42D8
:103F800024D007682168016060680837411B102948
:103F90000FD96019420708D0502080F31188BFF371
:103FA0004F8FBFF36F8FFEE710E041606560FFF752
:103FB000B9FD61687068401A7060B268904200D2C2
:103FC000B060F06801430020C4E9000102F088F805
:103FD000780707D0502080F31188BFF34F8FBFF3CD
:103FE0006F8FFEE73846BDE8F081000070000020CA
:103FF0000449086818B10868026D521C0265086817
:10400000704700001C00002010B5031F4FF08074A3
:104010001C601B1F21F001011960191F044B0B606C
:1040200014390A60091F6FF0020244380A6010BD9B
:10403000353E000808B5074E074D4FF0FF3400230A
:1040400000941A460121706800F044FD28688047FA
:10405000F5E700006C010020C800002008B5074EFD
:10406000074D4FF0FF34002300941A4601213068B9
:1040700000F030FD28688047F5E70000A40100202B
:10408000F40100200148006800470000CC00002037
:104090000148006800470000F8010020014840790D
:1040A00070470000CC01002070B5094DFF231A466F
:1040B00005F5807606E000BF10F8014B54402A5DFC
:1040C0005A40335D491E89B2F6D242EA032070BDE0
:1040D000686300080148808870470000BC01002028
:1040E000D0E9013201699A60D0E901235A604A6837
:1040F000824201D182684A60002202610868401E43
:104100000860086870470000044908680A68806908
:10411000D26A0968C2F138028A6170471C00002027
:10412000034B036003F15C0008608020106070475F
:10413000CC0B0020044B036003F15C0008604FF4DB
:104140008070106070470000280E002000F074BCE2
:1041500000F108014FF0FF32C0E90112C1600161B6
:1041600000210160704700210161704730B50B6884
:104170005A1C02D000F1080202E0026904E0224663
:10418000546825689D42FAD953684B6099608A60EB
:10419000516008610168491C016030BD42684A6095
:1041A00093688B6093685960916008610168491C4D
:1041B0000160704702482021406800F03DBC0000CB
:1041C0009C01002002484FF48071406800F034BC2C
:1041D0009C01002002488021406800F02DBC0000B6
:1041E0009C01002002484021406800F025BC0000EE
:1041F0009C0100200149016070470000D854002054
:1042000010B503220021012001F0A2FA0149086043
:1042100010BD00009C0100202DE9F041194F1A4CFF
:104220000D464FF4804680B19323184A18A12348C5
:10423000FEF738F8002231463846FCF790FB6068FC
:104240000068C16841F020010FE09B230F4A1CA1C8
:104250001A48FEF727F8012231463846FCF77FFB63
:1042600060680068C16821F02001C16020684FF0DB
:1042700001011DB1BDE8F04100F0DEBBBDE8F04139
:1042800000F0ACBB00040240A4010020F665000869
:1042900020204D4F444255535F4445425547282501
:1042A000733A2564293A20200952533438355F5235
:1042B000585F4D4F44450D0A000000007C0200206D
:1042C00020204D4F444255535F44454255472825D1
:1042D000733A2564293A20200952533438355F5403
:1042E000585F4D4F44450D0A0000000038B5C82402
:1042F000022000F061F8FDF7AEFB0021054D0B46F2
:104300002246009108B1092100E00421686801F00B
:1043100093FF38BDB401002038B5FDF79CFB0021A8
:10432000054C0B460A46009108B1082100E0032124
:10433000606801F081FF38BDB401002038B5642405
:10434000012000F039F8FDF786FB0021054D0B46F2
:104350002246009108B1092100E00421686801F0BB
:104360006BFF38BDB401002038B50D4C32212088D8
:1043700048434FF47A71B0FBF1F500206D1C00F05A
:104380001BF8FDF768FB00210B462A46009108B197
:10439000092100E00421606801F04EFF38BD0000F3
:1043A000B4010020034800231A461946006801F0B2
:1043B0006BBA00009C0100200149C87070470000E2
:1043C000BC0100200149487170470000CC01002069
:1043D0000149887170470000CC01002001498880A4
:1043E00070470000BC0100202DE9F0411A4F1B4C22
:1043F0000D464FF4005688B1A0680068C16841F0CE
:104400002001C1608E23164A16A12148FDF74AFFFC
:10441000002231463846FCF7A2FA10E09223104AF7
:104420001CA11B48FDF73EFF012231463846FCF730
:1044300096FAA0680068C16821F02001C160606838
:104440004FF001011DB1BDE8F04100F0F5BABDE843
:10445000F04100F0C3BA0000000402406C010020EB
:104460009C65000820204D4F444255535F4445420F
:1044700055472825733A2564293A20200952533498
:1044800038355F52585F4D4F44450D0A000000001B
:104490007C02002020204D4F444255535F4445424A
:1044A00055472825733A2564293A20200952533468
:1044B00038355F54585F4D4F44450D0A00000000E9
:1044C00038B5FDF7C8FA0021054C0B460A460091A5
:1044D00008B1082100E00321206801F0ADFE38BDDD
:1044E0008001002038B5FDF7B6FA0A4D002430B13E
:1044F00001F0D6FC002302460621009405E001F0FD
:10450000C9FC0023024601210094286801F094FEB2
:1045100038BD000080010020502080F31188BFF3D7
:104520004F8FBFF36F8F0A494868401C48600128CD
:104530000CD10848006810F0FF0F07D0502080F31E
:104540001188BFF34F8FBFF36F8FFEE770470000F6
:104550008800002004ED00E00849486828B1401EAA
:10456000486001D180F311887047502080F3118892
:10457000BFF34F8FBFF36F8FFEE70000880000206E
:1045800070B5002827D0144DA0F108046168E868D0
:10459000014207D1502080F31188BFF34F8FBFF342
:1045A0006F8FFEE722683AB1502080F31188BFF385
:1045B0004F8FBFF36F8FFEE78143616000F0D4F946
:1045C00060686968084468602046FFF7ABFABDE898
:1045D000704001F085BD70BD700000204FF0E020FC
:1045E00000210161816105494FF47A720968B1FBCC
:1045F000F2F1491E41610721016170471800002056
:1046000010B5FBF727FE114910280ED300F1E0206A
:1046100090F8F0030A78904207D2502080F3118876
:10462000BFF34F8FBFF36F8FFEE7094800688968BB
:1046300000F4E060884207D9502080F31188BFF36E
:104640004F8FBFF36F8FFEE710BD00008800002082
:104650000CED00E010B5084B002200BF53F83240CB
:104660001CB1521C082AF9D310BD43F8321003EBD9
:10467000C201486010BD0000B005002070B51546AD
:104680000E460446FFF748FF94F944100020491CE9
:1046900001D184F8440094F94510491C01D184F8F3
:1046A0004500FFF759FFA06B28B92A46314604F1AF
:1046B000240000F051F82046BDE87040FFF7EABB47
:1046C00010B5020014D00F48806B38B1502080F331
:1046D0001188BFF34F8FBFF36F8FFEE700F044F9EF
:1046E00000211046FFF710F801F0FAFC002807D16E
:1046F00005494FF080500860BFF34F8FBFF36F8FB5
:1047000010BD00001C00002004ED00E002498A6A90
:1047100002604969416070471C0000200149012086
:10472000486270471C00002010B50C4650B1094982
:1047300009681831FFF71AFD2046BDE81040012135
:10474000FEF7E2BF502080F31188BFF34F8FBFF315
:104750006F8FFEE71C00002070B514460D4668B14F
:104760000A4909681831FFF719FD0CB14FF0FF3500
:1047700021462846BDE87040FEF7C6BF502080F3B2
:104780001188BFF34F8FBFF36F8FFEE71C0000202F
:1047900010B51446030011D01048826BB2B1026804
:1047A00041F000419161016818461831FFF7F6FCAD
:1047B0002046BDE810400121FEF7A6BF502080F33F
:1047C0001188BFF34F8FBFF36F8FFEE7502080F348
:1047D0001188BFF34F8FBFF36F8FFEE71C000020DF
:1047E00070B504003ED0226DA2B1E06C884200D3C7
:1047F0000146E06A884235D0012A33D11A4D2A6831
:1048000094420FD1502080F31188BFF34F8FBFF334
:104810006F8FFEE7502080F31188BFF34F8FBFF3F7
:104820006F8FFEE7E162A269002A02DBC1F1380165
:10483000A1610E4E00EB8000616906EB80008142B1
:1048400010D1201DFFF74CFCE06AA969884200D90D
:10485000A86100EB800006EB8000211DBDE87040E0
:10486000FFF79CBC70BD00001C000020F00500207C
:1048700070B5194DAA6BF2B141F000410160C468F6
:104880000CB3FFF72DFC201DFFF72AFCE06AA96995
:10489000884200D9A861114900EB800001EB80003B
:1048A000211DFFF77BFCE06A2968C96A884201D9AB
:1048B0000120686270BD502080F31188BFF34F8FD4
:1048C000BFF36F8FFEE7502080F31188BFF34F8F47
:1048D000BFF36F8FFEE700001C000020F0050020F2
:1048E00030B587B00024039405AA04A903A8049452
:1048F000FFF716FCDDE903010094CDE90110002368
:1049000015A11748059A01F08CFA164D0028686326
:104910001FD001F061FC012809D0401C19D15020A2
:1049200080F31188BFF34F8FBFF36F8FFEE75020E6
:1049300080F31188BFF34F8FBFF36F8F4FF0FF30BD
:1049400028630120E8616C6107B0BDE8304000F0E9
:1049500085BE07B030BD000049444C450000000052
:10496000A13900081C0000200248816B491C8163AA
:10497000704700001C000020164810B5816B11B173
:104980000121416210BD002141628169124A01E0AA
:10499000B9B1491E01EB810352F82330002BF7D047
:1049A00001EB810302EB830202F1080453685B68A8
:1049B0005360A34201D15B685360DA680260816191
:1049C00010BD502080F31188BFF34F8FBFF36F8F5E
:1049D000FEE700001C000020F005002070B50E4628
:1049E000040009D0300E0FD0502080F31188BFF39F
:1049F0004F8FBFF36F8FFEE7502080F31188BFF316
:104A00004F8FBFF36F8FFEE7FFF786FD256825EA1E
:104A100006002060FFF7A0FD284670BD70B520207D
:104A2000FFF77AFA040005D00025201D2560FFF766
:104A30008FFB2577204670BD2DE9F0410027884681
:104A400004000AD05FEA18600FD0502080F311886C
:104A5000BFF34F8FBFF36F8FFEE7502080F31188B5
:104A6000BFF34F8FBFF36F8FFEE7261D04F10C05D8
:104A7000FFF77AFF2168F06841EA0801216017E03A
:104A8000D0E9001601F07F425301236821F07F41F5
:104A900002D40B4203D10AE031EA030307D1D20169
:104AA00000D50F43216841F00071FFF7E1FE304669
:104AB000A842E5D12068B843206001F011FB2068CE
:104AC000BDE8F08113460A460146014801F0E8BB03
:104AD0004D4100082DE9F0479A46DDF820909046B8
:104AE0000D4604004FF0000709D0280E0FD05020CB
:104AF00080F31188BFF34F8FBFF36F8FFEE7502015
:104B000080F31188BFF34F8FBFF36F8FFEE71DB1A6
:104B100001F0B2F940B112E0502080F31188BFF3E8
:104B20004F8FBFF36F8FFEE7B9F1000F07D0502012
:104B300080F31188BFF34F8FBFF36F8FFEE7FFF74E
:104B400013FF2668524629463046FFF787F930B1F1
:104B5000B8F1000F1AD02068A843206016E0B9F120
:104B6000000F13D0B8F1000F01D04FF08077BAF1E9
:104B7000000F01D047F0806745EA07014A46201D33
:104B8000FFF706FE01F0ACFA18B10AE001F0A8FA4E
:104B90001FE011494FF080500860BFF34F8FBFF303
:104BA0006F8FFFF7B1FA0646800110D4FFF7B4FC0F
:104BB0002668524629463046FFF750F928B1B8F129
:104BC000000F02D02068A8432060FFF7C5FC26F044
:104BD0007F463046BDE8F08704ED00E038B5044676
:104BE0004FF0FF3000900B48002301221F21406846
:104BF000FFF770FF042809D004DC012806D0022842
:104C000005D103E0082801D0102800D12080012020
:104C100038BD00009C01002010B5FFF7FFFE0949D8
:104C2000486038B12523084A08A11748FDF73AFB28
:104C3000012010BD2823044A14A11348FDF732FBBC
:104C4000002010BD9C010020B065000820204D4FC1
:104C5000444255535F44454255472825733A2564DD
:104C6000293A202009784D424D6173746572506F66
:104C700072744576656E74496E697420537563630A
:104C8000657373210D0A00007C02002020204D4F27
:104C9000444255535F44454255472825733A25649D
:104CA000293A202009784D424D6173746572506F26
:104CB00072744576656E74496E6974204661696CDC
:104CC000640D0A007CB50546009030230B4A0CA108
:104CD0001548FDF7E7FA154C606860B1FCF7BBFEBC
:104CE00028B101AA29466068FFF7ECFE03E02946D7
:104CF0006068FFF7A1FE01207CBD0000C7650008C9
:104D000020204D4F444255535F4445425547282586
:104D1000733A2564293A202009706F7374457665CB
:104D20006E743D25640D0A007C0200209C01002069
:104D300010B5014601220248FBF7BAFB012010BD65
:104D4000AC0100207CB53B4D1E460C46012812D01C
:104D5000022802D0032806D00DE037484823374AFE
:104D600037A1686004E04248344A4F2341A168609B
:104D70004C48FDF797FA686844600024C46036B177
:104D80004FF48051012E05D0022E0BD106E0846035
:104D9000046107E081604FF4C06102E081604FF47C
:104DA00080610161FCF7AEFC08B1FBF77EFB68682F
:104DB0000168CA6822F02002CA600168CA6822F04D
:104DC0004002CA60384A0321FCF79CFD1948374964
:104DD00008300160C4808480FFF720FE286038B16D
:104DE00000907823154A32492E48FDF75BFA05E01A
:104DF0007B23124A2FA12B48FDF754FA0C20CDE952
:104E00000004002380223BA13E4800F0DDFF012882
:104E100007D08823094A3CA12248FDF743FA002025
:104E20007CBD8623054A47A11E48FDF73BFA0120B9
:104E30007CBD0000A4010020D8030020DE6500082E
:104E400020204D4F444255535F4445425547282545
:104E5000733A2564293A2020094D617374657220E4
:104E60007573696E67207561727432210D0A0000D6
:104E70004404002020204D4F444255535F44454296
:104E800055472825733A2564293A2020094D617336
:104E9000746572207573696E672075617274332151
:104EA0000D0A00007C020020711D0008CE53002076
:104EB000D066000820204D4F444255535F44454280
:104EC00055472825733A2564293A2020094D6173F6
:104ED00074657220637265617465206576656E74B1
:104EE0005F73657269616C204661696C6564210D50
:104EF0000A0000006D6173746572207472616E73D4
:104F0000000000005D40000820204D4F44425553F2
:104F10005F44454255472825733A2564293A2020A5
:104F200009785461736B437265617465204D6173D8
:104F3000746572207472616E73206661696C64219D
:104F40000D0A000020204D4F444255535F44454216
:104F500055472825733A2564293A20200978546159
:104F6000736B437265617465204D61737465722063
:104F70007472616E7320737563636573730D0A00D9
:104F8000044949680A685060086801680906FCD548
:104F900001207047A401002038B5114C32210123B3
:104FA000208048434FF47A71B0FBF1F10D48009036
:104FB00000220DA0491C01F0F5F8606038B13123E2
:104FC0000D4A0EA11C48FDF76DF9012038BD3423B0
:104FD000094A1AA11848FDF765F9002038BD0000FC
:104FE000B4010020914000084D6173746572207413
:104FF000696D6572000000001066000820204D4FAA
:10500000444255535F44454255472825733A256429
:10501000293A20200920437265617465204D61732F
:105020007465722054696D6572205375636365738E
:1050300073210D0A000000007C02002020204D4F4B
:10504000444255535F44454255472825733A2564E9
:10505000293A20200920437265617465204D6173EF
:105060007465722054696D6572204661696C6421B3
:105070000D0A0000F8B500266846FFF759FE154CEA
:10508000A07830B1144D012807D0022813D003288E
:1050900001D1FFF769F93046F8BDFFF73DF900206F
:1050A000607020819DF8001020892A18401C208102
:1050B000117002200BE02089FF2807D89DF800100E
:1050C00020892A18401C20811170E2E70320A0707B
:1050D000DFE70000BC010020D455002070B5174D5B
:1050E0000024A87820B1022803D0032804D109E0C5
:1050F0000120FFF7E7FD04460120A8706878022828
:105100000ED104E00120FFF763F91020F1E72878C1
:1051100030B90020FFF75CF91020FFF7D3FD0446FB
:1051200000206870FFF7F8F8E878022803D104201F
:10513000FFF7C8FD0446204670BD0000BC010020FA
:1051400070B5174C0025607810B1012826D104E015
:1051500000210120FFF760F820E0E08850B1E0680E
:105160000078FFF70DFFE068401CE060E088401E1B
:10517000E08013E00B48007860B10020207000212F
:105180000120FFF749F802206070207820B1FFF776
:10519000ADF803E00120F1E7FFF7D0F8284670BD35
:1051A000BC010020D754002001480078704700005F
:1051B000BC010020074A10B51268411C07D0014607
:1051C000104600F00BFD002800D0012010BD4FF06C
:1051D000FF31F5E79C01002038B504464FF0FF3061
:1051E00000900948002301220F210068FFF772FC9C
:1051F000012805D0022803D0042801D0082800D1B6
:105200002070012038BD00006801002010B5FFF7B4
:1052100005FC0949086038B12123084A08A116484D
:10522000FDF740F8012010BD2323044A13A11248C2
:10523000FDF738F8002010BD6801002068650008FF
:1052400020204D4F444255535F4445425547282541
:10525000733A2564293A202009784D42506F7274C0
:105260004576656E74496E69742053756363657322
:1052700073210D0A000000007C02002020204D4F09
:10528000444255535F44454255472825733A2564A7
:10529000293A202009784D42506F72744576656E28
:1052A00074496E6974204661696C6420210D0A009E
:1052B0007CB5054600902B230B4A0CA11648FCF741
:1052C000F1FF164C206860B1FCF7C5FB28B101AABC
:1052D00029462068FFF7F6FB03E029462068FFF720
:1052E000ABFB01207CBD00007965000820204D4FFC
:1052F000444255535F44454255472825733A256437
:10530000293A202009506F737420654576656E74C4
:105310003D2564210D0A00007C0200206801002068
:1053200010B5014601220248FBF7C2F8012010BD6A
:10533000780100202DE9FC41354C1E460F4601281E
:1053400012D0022802D0032806D00DE031484823AD
:10535000314A32A1A06004E03C482F4A4F233CA1CF
:10536000A0604748FCF79EFFA06800254760C56025
:1053700036B14FF48051012E05D0022E0BD106E03C
:105380008560056107E081604FF4C06102E08160E3
:105390004FF480610161FCF7B5F908B1FBF785F8BE
:1053A000A0680168CA6822F02002CA600168CA6861
:1053B00022F04002CA60334A0321FCF7A3FA1448E2
:1053C00031490C300160C5808580FFF727FB6060A4
:1053D00018B17723104A2D4902E00F4A2C4979234E
:1053E0002748FCF75FFF0A490C20CDE900010023A4
:1053F000802228A12A4800F0E7FC012805D1842357
:10540000054A28A11E48FCF74DFF0120BDE8FC819C
:105410006C010020D80300208A65000820204D4F31
:10542000444255535F44454255472825733A256405
:10543000293A202009536C617665207573696E677F
:10544000207561727432210D0A00000044040020AE
:1054500020204D4F444255535F444542554728252F
:10546000733A2564293A202009536C6176652075CA
:1054700073696E67207561727433210D0A00000034
:105480007C020020291E0008345100208C66000890
:1054900048660008736C617665207472616E7300F3
:1054A0003540000820204D4F444255535F4445424B
:1054B00055472825733A2564293A202009785461F4
:1054C000736B43726561746520736C6176652074DB
:1054D00072616E7320737563636573730D0A0000E8
:1054E000044989680A685060086801684906FCD563
:1054F000012070476C010020322148434FF47A713B
:10550000B0FBF1F108B5074800900223002206A085
:10551000491C00F047FE07490028086000D0012020
:1055200008BD000085400008536C617665207469F1
:105530006D6572008001002038B500246846FFF7D1
:10554000EFFE1349487830B1124A012807D00228EB
:1055500010D0032801D1FEF7C5FF204638BD00203A
:1055600088809DF8003088880244401C8880137031
:1055700002200BE08888FF2807D89DF80030888833
:105580000244401C88801370E5E703204870E2E77E
:1055900098000020A44E002070B5084D00246878C3
:1055A00010B1022804D100E00120FFF781FE04467B
:1055B000FEF786FF01206870204670BD980000202D
:1055C00070B5124C0025207810B101281CD104E0E0
:1055D00000210120FEF708FF16E0608850B1A068A6
:1055E0000078FFF77DFFA068401CA0606088401E27
:1055F000608009E00820FFF75BFE054600210120DE
:10560000FEF7F2FE00202070284670BD98000020B2
:1056100010B5CB085C4201EBC40401219140C25C8F
:105620001844407842EA0020E040491E0840C0B2D9
:1056300010BD70B5CC08654201EBC505AB4001213A
:105640009140491EA9400519025D6E7842EA062282
:105650008A431A430255100A687070BD1CB537485A
:105660000168374A914207D1502080F31188BFF377
:105670004F8FBFF36F8FFEE700683149491E8842A4
:1056800007D1502080F31188BFF34F8FBFF36F8F86
:10569000FEE72C4908780190FF20087008788DF803
:1056A00000009DF800009DF8002000F0F0009042FE
:1056B00007D0502080F31188BFF34F8FBFF36F8F57
:1056C000FEE79DF80000204B00F050001870072006
:1056D000986005E09DF8002052008DF80020401EE3
:1056E0009DF800201206F5D49860032807D05020BA
:1056F00080F31188BFF34F8FBFF36F8FFEE74FF436
:1057000040709860019808700C482030016841F49E
:1057100070010160016841F070410160FEF75EFFB9
:1057200000205860FAF75EFD0848016841F04041EA
:105730000160FAF743FD00201CBD000000ED00E011
:1057400071C20F4100E400E08800002034EF00E067
:10575000F8B517460E46050014D0DEB105FB06F07D
:105760005030FEF7D9FB04000AD0002084F8460030
:1057700004F150023B46314628460094FEF740F9BA
:105780002046F8BD502080F31188BFF34F8FBFF340
:105790006F8FFEE70020E3E738B5049D18B153B1E1
:1057A000CAB181B120E0502080F31188BFF34F8F40
:1057B000BFF36F8FFEE7502080F31188BFF34F8F48
:1057C000BFF36F8FFEE7502080F31188BFF34F8F38
:1057D000BFF36F8FFEE739B1502080F31188BFF31C
:1057E0004F8FBFF36F8FFEE750241C46012384F8D0
:1057F00046302B460094FEF703F9204638BD0000E2
:1058000070B50D46040025D0FEF786FED4E90F20C2
:10581000216802FB0011A1600021A1632168616081
:105820000A46D4E90F01401E00FB0121E160214638
:105830004FF0FF3001F8440F487004F110008DB1B3
:10584000FEF786FC04F12400FEF782FCFEF784FEDE
:10585000012070BD502080F31188BFF34F8FBFF33C
:105860006F8FFEE721690029F0D000F001FC0028CD
:10587000ECD004494FF080500860BFF34F8FBFF366
:105880006F8FE3E704ED00E02DE9FF4782B01D468E
:105890008A464FF00008040003D0BAF1000F08D088
:1058A00011E0502080F31188BFF34F8FBFF36F8F4B
:1058B000FEE7206C38B1502080F31188BFF34F8F82
:1058C000BFF36F8FFEE7022D0AD1E06B012807D0EE
:1058D000502080F31188BFF34F8FBFF36F8FFEE727
:1058E00000F0CAFA3F4F4FF000094FF0805648B918
:1058F000049838B1502080F31188BFF34F8FBFF365
:105900006F8FFEE7FEF708FEA06BE16B884207D3BE
:10591000022D05D00498D0B1B8F1000F1AD01EE0C6
:105920002A4651462046FDF7C4FF616A19B104F1C9
:10593000240000F09DFB20B13E60BFF34F8FBFF30A
:105940006F8FFEF709FE012006B0BDE8F087FEF775
:1059500003FE22E06846FEF7D9FE4FF00108FEF78D
:10596000FBFDFFF701F8FEF7D7FD94F94400401C5A
:1059700001D184F8449094F94500401C01D184F889
:105980004590FEF7E9FD04A9684600F0E3F930B15F
:105990002046FEF77FFA00F0A3FB0020D4E7FEF7D5
:1059A000BBFDA06BE16B884213D1FEF7D5FD04F17E
:1059B00010000499FEF7B8FE2046FEF76BFA00F0DF
:1059C0008FFB00289ED13E60BFF34F8FBFF36F8FD8
:1059D00098E7FEF7C1FD2046FEF75CFA00F080FB79
:1059E00090E7000004ED00E02DE9F0471F469046E7
:1059F0008946040003D0B9F1000F08D011E050200F
:105A000080F31188BFF34F8FBFF36F8FFEE7206CD9
:105A100038B1502080F31188BFF34F8FBFF36F8FE1
:105A2000FEE7022F0AD1E06B012807D0502080F357
:105A30001188BFF34F8FBFF36F8FFEE7FEF7E0FDD6
:105A40005020EFF3118680F31188BFF34F8FBFF31F
:105A50006F8FA06BE16B884206D3022F04D0002029
:105A600086F31188BDE8F08794F945503A464946D7
:105A70002046FDF71EFF681C04D06D1C84F84550BD
:105A80000120EDE7606A0028FAD004F1240000F05C
:105A9000EFFA0028F4D0B8F1000FF1D00121C8F8D6
:105AA0000010EDE72DE9F747002683B08A46040091
:105AB00003D0BAF1000F08D011E0502080F3118814
:105AC000BFF34F8FBFF36F8FFEE7206C38B15020CC
:105AD00080F31188BFF34F8FBFF36F8FFEE700F0A5
